:020000040800F2
:1000000030F6012065670008A5030008A703000873
:10001000AB030008AF030008B303000800000000B2
:10002000000000000000000000000000B70300080E
:10003000B90300080000000081F20008917B00086D
:100040007F6700087F6700087F6700087F670008F8
:100050007F6700087F6700087F6700087F670008E8
:100060007F6700087F6700087F6700087F670008D8
:100070007F6700087F6700087F6700087F670008C8
:100080007F6700087F6700087F6700087F670008B8
:100090007F6700087F6700087F6700087F670008A8
:1000A0007F6700087F6700087F6700087F67000898
:1000B0007F6700087F6700087F6700087F67000888
:1000C0007F6700087F6700087F6700087F67000878
:1000D0007F670008617D00087F6700087F67000870
:1000E0007F6700087F6700087F6700087F67000858
:1000F0007F6700087F6700087F6700087F67000848
:100100007F6700087F6700087F6700087F67000837
:100110007F6700087F6700087F6700087F67000827
:100120007F6700087F6700087F6700087F67000817
:100130007F6700087F6700087F6700087F67000807
:100140007F6700087F6700087F6700087F670008F7
:100150007F6700087F6700087F6700087F670008E7
:100160007F6700087F6700087F6700087F670008D7
:100170007F6700087F6700087F6700087F670008C7
:100180007F6700087F67000800F002F800F066F85B
:100190000AA090E8000C82448344AAF10107DA45E2
:1001A00001D100F05BF8AFF2090EBAE80F0013F0CE
:1001B000010F18BFFB1A43F001031847E0180600AF
:1001C000001906000A444FF0000C10F8013B13F030
:1001D000070408BF10F8014B1D1108BF10F8015BA0
:1001E000641E05D010F8016B641E01F8016BF9D193
:1001F00013F0080F1EBF10F8014BAD1C0C1B09D1EA
:100200006D1E58BF01F801CBFAD505E014F8016B5B
:1002100001F8016B6D1EF9D59142D6D370470000ED
:100220000023002400250026103A28BF78C1FBD8FF
:10023000520728BF30C148BF0B60704769290FF0D3
:10024000B18078290FF0EA80002070471FB529F0AF
:1002500044F90FF024F91FBD10B510BD0FF0D0FB0D
:100260001146FFF7F3FF00F06EF80FF0EEFB03B45A
:10027000FFF7F2FF03BC07F00FFD00000B49D1F8B8
:1002800000C04A685CF8043B1068184442F8040B4C
:100290008C4528BFA1F1DC0C8A4228BFA1F1DC0209
:1002A000C1F800C04A6020F000407047C8EB012050
:1002B0000EE03748006808B9012000E0002034490A
:1002C00008604FF4FA730022114610460EF028FE23
:1002D000EFE707E015F036F8052300221146104637
:1002E0000EF01EFEF6E701E009F062FBFCE770B5D8
:1002F00005460121080307F0CDF804201BF0EEFAB3
:1003000013F028FD0CF070FD0EF092FF044604235C
:10031000204A0021AFF231000EF088FA02231E4A73
:100320000021AFF251000EF081FA03231B4A002195
:10033000AFF283000EF07AFAFF200EF0F7FC2046B1
:100340000EF07AFF70BD10B5A82007F029FC4FF41D
:10035000A06006F027FA4FF4E13007F0ABFC00F0A4
:10036000BAFE06F076F900F031F9002007F059FDE9
:10037000022007F056FD0CF0FAFB0023084A19464C
:10038000AFF295000EF052FA0CF016FD002010BDF1
:100390009802404250330020501200205013002099
:1003A00050100020704700BFFEE700BFFEE700BF0F
:1003B000FEE700BFFEE77047704700000CB5002065
:1003C000019000907648006840F4803074490860DD
:1003D00000BF7348006800F4003000900198401C92
:1003E0000190009818B90198B0F5A04FF1D16C4870
:1003F000006800F4003010B10120009001E00020FE
:1004000000900098012846D165484030006840F0CF
:1004100080506349403108606248006840F44040C1
:10042000604908605E48083000685D49083108602E
:100430000846006840F4004008600846006840F440
:10044000A05008605848091F0860081F006840F065
:100450008070091F086000BF5148006800F00070FC
:100460000028F9D040F20570504908604C48083027
:10047000006820F003004A49083108600846006817
:1004800040F00200086000BF45480830006800F0F6
:100490000C000828F8D10CBD10B54548006840F4A0
:1004A0007000434908603E48006840F001003C4944
:1004B000086000203A4908310860394800683D4921
:1004C0000840374908603C48091D0860081F00685B
:1004D00020F48020091F0860002031490C31086099
:1004E000FFF76CFF4FF0006031498039086010BDA4
:1004F00070B500200022022300240221284D083577
:100500002D6805F00C0020B1042806D0082834D14D
:1005100007E02A4D2A4E356033E02A4D284E3560DB
:100520002FE01F4D2D1D2D68C5F380541C4D2D1D32
:100530002D6805F03F0154B1224DB5FBF1F5184E81
:10054000361D3668C6F3881605FB06F209E01B4D1A
:10055000B5FBF1F5124E361D3668C6F3881605FB5D
:1005600006F20F4D2D1D2D68C5F301456D1C6B0066
:10057000B2FBF3F5124E356003E0104D104E3560BE
:1005800000BF00BF064D08352D68C5F303150E4E9C
:10059000705D0B4D2D68C540094E356070BD000083
:1005A000003802400070004008544007003C024000
:1005B00088ED00E0FFFFF6FE103000240024F40078
:1005C0000000002000127A00040000201CB5012168
:1005D000084606F05FFFC020009001208DF804005F
:1005E00000208DF806008DF8070003208DF8050027
:1005F0006946044806F0B0FCC021034806F028FD17
:100600001CBD0000000002400014024001B5BDF80E
:1006100000000090BDF80000FE49088008BD01B54B
:10062000BDF800000090BDF80000FA49891C088060
:1006300008BD08B5F748801C00880090BDF8000090
:1006400008BD03B5BDF80000F24A1080901C01807F
:100650000CBD01B5BDF80000FFF7D8FF052007F07D
:10066000C5FAFFF7E6FF08BDEB480089E9490880B5
:10067000704730B5014601F01F04C1F34513CA0AA3
:10068000E50205EB43151544A8B230BD00BF011EBD
:10069000A0F10102D0B2FAD1704730B504460D4640
:1006A000DD48808849F24131884205D0DA488088A7
:1006B00045F21031884214D1D7494889FFF7A6FF87
:1006C0002012FFF7ACFFE0B2FFF7A9FFD2498889FB
:1006D000FFF79CFF2812FFF7A2FFE8B2FFF79FFF8A
:1006E0005DE0CD48808846F6040188421DD1CA48A5
:1006F0008079012804D1C8480088401E001B84B2BC
:10070000C5494889FFF782FF2012FFF788FFE0B252
:10071000FFF785FFC0498889FFF778FF2812FFF7A8
:100720007EFFE8B2FFF77BFF39E0BB48808845F2E7
:100730001051884220D1B8494889FFF767FF20123D
:10074000FFF76DFFB4494989491C88B2FFF75EFF86
:10075000E0B2FFF764FFB0498889FFF757FF28121E
:10076000FFF75DFFAC498989491C88B2FFF74EFF4E
:10077000E8B2FFF754FF12E0A7488079012804D1BE
:10078000A5480088401E001B84B2A3494889214621
:10079000FFF757FFA04988892946FFF752FF30BD70
:1007A0002DE9F04105460E4600240027A0469A4850
:1007B0000088A84203DD98484088B04202DC00204F
:1007C000BDE8F08131462846FFF767FF92488088F0
:1007D00049F2413188420BD08F48808846F60401A7
:1007E000884205D08C48808845F21031884203D178
:1007F0002E20FFF70BFF0DE08748808845F210514F
:10080000884204D14FF43850FFF700FF02E0222065
:10081000FFF7FCFE8048808849F22031884202D1EF
:100820000220FFF733FF7B48801C008800B10024C2
:100830000220FFF72BFF7748801C048876488088C9
:1008400049F2413188420BD07348808845F210311B
:10085000884205D07048808845F2105188420BD1FB
:100860000220FFF713FF6B48801CB0F80080E7B24E
:100870004FF6FF7000EA07276748808849F2253164
:10088000884216D06448808844F23551884210D09E
:1008900061488088091F88420BD05F4880884BF2EE
:1008A0000551884205D05C4880884CF20551884249
:1008B00001D1204684E75848808849F24131884276
:1008C0000BD05548808845F21031884205D05248F7
:1008D000808845F21051884207D1E012C002B91257
:1008E00040EA411040EAE8206AE72046FFF7C1FEEF
:1008F00066E700B54848808849F2413188420BD00C
:100900004548808846F60401884205D042488088E0
:1009100045F21031884203D12920FFF777FE0FE01E
:100920003D48808845F21051884204D14FF424504C
:10093000FFF76CFE04E040F273110720FFF781FE21
:1009400000BD00B53448808849F2413188420BD05F
:100950003148808846F60401884205D02E488088B8
:1009600045F21031884203D12820FFF74FFE0EE0F8
:100970002948808845F21051884204D14FF4205014
:10098000FFF744FE03E000210720FFF75AFE00BDF9
:10099000F0B50546002400271F48807901281ED1A4
:1009A0001D48808846F60401884218D0082D15D2CB
:1009B000DFE805F00406080A0C0E101206250DE00B
:1009C00007250BE0042509E0052507E0012505E0E2
:1009D000002503E0032501E0022500BF00BF0E480B
:1009E000808849F24131884211D00B48808846F610
:1009F000040188420BD00848808845F210318842B3
:100A000005D00548808845F2105188427ED1082DD6
:100A100021D203E0FEFF076054330020DFE805F039
:100A20000406090C0F12151800BF14E044F08004EE
:100A300011E044F040040EE044F0C0040BE044F048
:100A4000200408E044F0600405E044F0A00402E063
:100A500044F0E00400BF00BFFE48808845F210511A
:100A6000884202D14FF4585700E03627F948808871
:100A700045F21031884207D0F648808845F210517F
:100A8000884201D044F00804F248808846F6040108
:100A9000884201D144F0020421463846FFF7D1FDD7
:100AA00004F0200018B9EB48807901280DD1E948FD
:100AB0000088E8494988884214DAE6480688408870
:100AC000E4490880084646800CE0E2480088E14995
:100AD0004988884206DDDF4806884088DD4908806D
:100AE00008464680DB48808845F21051884254D140
:100AF000D8494889FFF78AFD0020FFF790FDD549C6
:100B00004989491C88B2FFF781FD00E074E00020AC
:100B1000FFF785FDCF494989891C88B2FFF776FD2B
:100B2000CC490988491EC1F30F20FFF778FDC94958
:100B30004989C91C88B2FFF769FDC6490978491E71
:100B4000C8B2FFF76CFDC3498889FFF75FFD00203D
:100B5000FFF765FDBF498989491C88B2FFF756FD3B
:100B60000020FFF75CFDBB498989891C88B2FFF72B
:100B70004DFDB8494988491EC1F30F20FFF74FFDCD
:100B8000B4498989C91C88B2FFF740FDB149897809
:100B9000491EC8B2FFF743FD55E0AE494889FFF74B
:100BA00035FD0020FFF73BFD0020FFF738FDA94988
:100BB0000988491EC1F30F20FFF731FDA5490978C7
:100BC000491EC8B2FFF72BFDA2498889FFF71EFD19
:100BD0000020FFF724FD0020FFF721FD9D494988F3
:100BE000491EC1F30F20FFF71AFD9A498978491E63
:100BF000C8B2FFF714FD26E0082D1CD2DFE805F08F
:100C000004070A0D0F12151844F0300413E044F0E5
:100C1000100410E044F020040DE000BF0BE044F0AD
:100C2000380408E044F0280405E044F0180402E029
:100C300044F0080400BF00BF032744F48054214659
:100C40003846FFF7FEFCF0BD30B504460D46294698
:100C50002046FFF722FDFFF707FD7F4800887F4908
:100C6000088030BD70B504460D4616467948808828
:100C700049F24131884205D07648808845F21031EA
:100C8000884214D173494889FFF7C0FC2012FFF74E
:100C9000C6FCE0B2FFF7C3FC6E498889FFF7B6FCDB
:100CA0002812FFF7BCFCE8B2FFF7B9FC5DE0694829
:100CB000808845F21051884220D166494889FFF763
:100CC000A5FC2012FFF7ABFC62494989491C88B298
:100CD000FFF79CFCE0B2FFF7A2FC5E498889FFF7B2
:100CE00095FC2812FFF79BFC5A498989491C88B258
:100CF000FFF78CFCE8B2FFF792FC36E0554880889D
:100D000046F6040188421DD152488079012804D159
:100D100050480088401E001B84B24E494889FFF7A6
:100D200075FC2012FFF77BFCE0B2FFF778FC494925
:100D30008889FFF76BFC2812FFF771FCE8B2FFF718
:100D40006EFC12E043488079012804D141480088B4
:100D5000401E001B84B23F4948892146FFF771FCC1
:100D60003C4988892946FFF76CFC3A4800893B4991
:100D7000891E0880881C068070BD10B50446002CB2
:100D800052D134498871F02008804FF4A070488017
:100D90000846808849F2413188420BD02D4880882E
:100DA00046F60401884205D02A48808845F2103171
:100DB00088421AD12C20274908812A2048812B20DB
:100DC00088810846808846F60401884205D021487B
:100DD000808845F21031884206D14FF4A0701D4939
:100DE00008804FF4F070488080E01A48808845F20F
:100DF0001051884210D14FF43050164908814FF4F9
:100E0000285048814FF42C5088814FF4F0700880AE
:100E10004FF44870488069E022200E490881202064
:100E200048812120888161E001200A4988714FF4BE
:100E3000A0700880F02048800846808849F241313F
:100E4000884205D00348808845F2103188420ED18F
:100E50002C2005E05433002014000020000008601E
:100E6000FE4908812A2048812B2088812BE0FB48FD
:100E7000808846F60401884207D12C20F749088172
:100E80002B2048812A2088811DE0F448808845F283
:100E90001051884210D14FF43050F04908814FF47E
:100EA000285048814FF42C5088814FF448700880B6
:100EB0004FF4F070488006E02220E84908812120A4
:100EC000488120208881E548808846F604018842D0
:100ED00005D0E248808845F21031884206D14FF4AF
:100EE000F070DE4908804FF4A07048800020FFF7C2
:100EF0004FFD10BD2DE9FF4F04460D4616461F4617
:100F0000A019401E86B2E819401E87B2D3488088D7
:100F100049F2413188420BD0D048808845F21031E7
:100F2000884205D0CD48808846F60401884220D109
:100F3000CA494889FFF76AFB2012FFF770FBE0B24D
:100F4000FFF76DFB3012FFF76AFBF0B2FFF767FBAC
:100F5000C2498889FFF75AFB2812FFF760FBE8B205
:100F6000FFF75DFB3812FFF75AFBF8B2FFF757FBAC
:100F70007DE0BA48808845F21051884244D1B74993
:100F80004889FFF743FB2012FFF749FBB349498922
:100F9000491C88B2FFF73AFBE0B2FFF740FBAF49CC
:100FA0004989891C88B2FFF731FB3012FFF737FB04
:100FB000AA494989C91C88B2FFF728FBF0B2FFF79C
:100FC0002EFBA6498889FFF721FB2812FFF727FB94
:100FD000A2498989491C88B2FFF718FBE8B2FFF7DC
:100FE0001EFB9E498989891C88B2FFF70FFB3812C6
:100FF000FFF715FB99498989C91C88B2FFF706FBE1
:10100000F8B2FFF70CFB32E09448807901280ED14A
:10101000A846B94691480088801B401E1FFA80FAF6
:101020008E480088001B401E1FFA80FB03E0A0468C
:10103000B146AA46BB465020039051200290522050
:1010400001905320009041460398FFF7FAFA494671
:101050000298FFF7F6FA51460198FFF7F2FA59465F
:101060000098FFF7EEFA29462046FFF716FBBDE889
:10107000FF8F70B5044600267848058840884543B0
:101080007648808846F60401884216D173488079F4
:10109000012812D10020714988712A2048812B2013
:1010A000888100210846FFF7F8FA01206B49887112
:1010B0002B2048812A20888103E000210846FFF781
:1010C000ECFAFFF7D1FA002602E065480480761CAE
:1010D000AE42FAD370BD00B5A1B00020209001212E
:1010E0007A2006F0D7F90121084606F00BFA022013
:1010F0001E9001208DF87C0000208DF87E000220DB
:101100008DF87D0001208DF87F001EA9554805F05F
:1011100023FF4EF2B3701E9002208DF87C00002059
:101120008DF87E0003208DF87D0001208DF87F0072
:101130001EA94D4805F010FF4FF680701E9002204A
:101140008DF87C0000208DF87E0003208DF87D0056
:1011500001208DF87F001EA9444805F0FDFE0C22F9
:101160000021414805F083FF0C2201213E4805F093
:101170007EFF0C2204213C4805F079FF0C2205215A
:10118000394805F074FF0C220721374805F06FFF3E
:101190000C220821344805F06AFF0C22092132484C
:1011A00005F065FF0C220A212F4805F060FF0C2294
:1011B0000D212D4805F05BFF0C220E212A4805F079
:1011C00056FF0C220F21284805F051FF0C22072161
:1011D000264805F04CFF0C220821244805F047FF63
:1011E0000C220921214805F042FF0C220A211F4848
:1011F00005F03DFF0C220B211C4805F038FF0C22A6
:1012000011461A4805F033FF0C220D21174805F04E
:101210002EFF0C220E21154805F029FF0C220F216C
:10122000124805F024FF0F20089000200990182094
:101230000A9000200B900C900D900E9008200190C9
:101240000020029008200390002004900590069052
:1012500007900F9010901190102009E05433002057
:101260000000086000040240000C02400010024030
:1012700012900020139014901590169017904FF430
:1012800080501890002019904FF480401A90002050
:101290001B9008A81C9001A81D900FA805F00DFB3D
:1012A0000121002005F094FB322006F0CAFC012148
:1012B0000020FFF7C6F9322006F0C3FC0020FFF73C
:1012C000C8F9FE49888008468088FF280ADB08465E
:1012D00080884FF6FF71884204D0F8488088B0F5C6
:1012E000134F7CD1D320FFF791F9FFF7A2F9F3490F
:1012F0008880FFF79EF9F1498880FFF79AF9EF4956
:101300008880084680884FF6FF7101EA0020EB498B
:101310008880FFF78EF9E94989880843E749888082
:101320000846808849F24131884278D0BF20FFF7D3
:101330006DF9FFF77EF9E1498880FFF77AF9DF4917
:101340008880FFF776F9DD498880FFF772F9DB497D
:101350008880084680884FF6FF7101EA0020D7494F
:101360008880FFF766F9D54989880843D349888082
:101370000846808846F60401884250D0D420FFF702
:1013800045F9FFF756F9CD498880FFF752F9CB4967
:101390008880FFF74EF9C9498880084680884FF653
:1013A000FF7101EA0020C5498880FFF742F9C3496F
:1013B00089880843C14988800846808845F21031F1
:1013C00088422CD04FF45A40FFF720F9FFF731F94B
:1013D000BA4988804FF45B40FFF718F900E01EE03F
:1013E000FFF727F9B5498880084680884FF6FF71D6
:1013F00001EA0020B14988804FF45C40FFF706F90C
:10140000FFF717F9AD4989880843AC498880084639
:101410008088B0F5004F02D145F210508880A7486F
:10142000808849F2413188420BD0A448808845F237
:101430001031884205D0A148808845F21051884279
:1014400008D103200190022003900121062005F01D
:10145000BFFA13E09948808846F60401884205D017
:10146000964880884CF20551884207D10A200190A5
:101470000C2003900121062005F0AAFA8F488188EC
:101480008FA00DF03BFF8D48808849F241318842A2
:101490007ED1CF20FFF7BAF80020FFF7C0F82098E0
:1014A000401C2090C120FFF7BAF83020FFF7B7F8B2
:1014B000ED20FFF7ABF86420FFF7B1F80320FFF74A
:1014C000AEF81220FFF7ABF88120FFF7A8F8E8206C
:1014D000FFF79CF88520FFF7A2F81020FFF79FF890
:1014E0007A20FFF79CF8CB20FFF790F83920FFF720
:1014F00096F82C20FFF793F80020FFF790F834209F
:10150000FFF78DF80220FFF78AF8F720FFF77EF843
:101510002020FFF784F8EA20FFF778F80020FFF793
:101520007EF80020FFF77BF8C020FFF76FF81B2044
:10153000FFF775F8C120FFF769F80120FFF76FF892
:10154000C520FFF763F83020FFF769F83020FFF778
:1015500066F8C720FFF75AF8B720FFF760F8362083
:10156000FFF754F84820FFF75AF83A20FFF74EF8F3
:101570005520FFF754F8B120FFF748F80020FFF797
:101580004EF81A20FFF74BF8B620FFF73FF800E0BF
:10159000A3E00A20FFF743F8A220FFF740F8F2206B
:1015A000FFF734F80020FFF73AF82620FFF72EF86F
:1015B0000120FFF734F8E020FFF728F80F20FFF7AD
:1015C0002EF82A20FFF72BF82820FFF728F808200C
:1015D000FFF725F80E20FFF722F80820FFF71FF885
:1015E0005420FFF71CF8A920FFF719F84320FFF754
:1015F00016F80A20FFF713F80F20FFF710F8002065
:10160000FFF70DF80020FFF70AF80020FFF707F8B2
:101610000020FFF704F8E120FEF7F8FF0020FEF7B6
:10162000FEFF1520FEF7FBFF1720FEF7F8FF07204F
:10163000FEF7F5FF1120FEF7F2FF0620FEF7EFFFA1
:101640002B20FEF7ECFF5620FEF7E9FF3C20FEF7CB
:10165000E6FF0520FEF7E3FF1020FEF7E0FF0F2076
:10166000FEF7DDFF3F20FEF7DAFF3F20FEF7D7FF52
:101670000F20FEF7D4FF2B20FEF7C8FF0020FEF757
:10168000CEFF0020FEF7CBFF0120FEF7C8FF3F2072
:10169000FEF7C5FF2A20FEF7B9FF0020FEF7BFFFC7
:1016A0000020FEF7BCFF0020FEF7B9FFEF20FEF799
:1016B000B6FF1120FEF7AAFF782007E05433002080
:1016C0004C43442049443A25780D0A0006F0B9FA03
:1016D0002920FEF79BFF03F05CB8FE48808846F6A1
:1016E000040188427ED11120FEF790FF142006F0FD
:1016F000A8FAD020FEF78AFF0720FEF790FF4220CD
:10170000FEF78DFF1D20FEF78AFFD120FEF77EFF3A
:101710000020FEF784FF1A20FEF781FF0920FEF764
:101720007EFFD220FEF772FF0120FEF778FF222015
:10173000FEF775FFC020FEF769FF1020FEF76FFF70
:101740003B20FEF76CFF0020FEF769FF0220FEF74A
:1017500066FF1120FEF763FFC520FEF757FF032049
:10176000FEF75DFFC820FEF751FF0020FEF757FF90
:101770002520FEF754FF2120FEF751FF0520FEF73C
:101780004EFF0020FEF74BFF0A20FEF748FF6520C2
:10179000FEF745FF2520FEF742FF7720FEF73FFFCB
:1017A0005020FEF73CFF0F20FEF739FF0020FEF728
:1017B00036FFF820FEF72AFF0120FEF730FFFE205B
:1017C000FEF724FF0020FEF72AFF0220FEF727FF86
:1017D0002020FEF71BFF3620FEF718FF0820FEF73B
:1017E0001EFF00E02AE03A20FEF710FF5520FEF72A
:1017F00016FF2B20FEF70AFF0020FEF710FF002047
:10180000FEF70DFF0120FEF70AFF3F20FEF707FF5E
:101810002A20FEF7FBFE0020FEF701FF0020FEF766
:10182000FEFE0120FEF7FBFEDF20FEF7F8FE78202B
:1018300006F007FA2920FEF7E9FE4CE7A548808864
:1018400045F21031884240F07C87ED20FEF7DEFE45
:101850000120FEF7E4FEFE20FEF7E1FEEE20FEF79B
:10186000D5FEDE20FEF7DBFE2120FEF7D8FEF120BC
:10187000FEF7CCFE0120FEF7D2FEDF20FEF7C6FE0B
:101880001020FEF7CCFEC420FEF7C0FE8F20FEF72E
:10189000C6FEC620FEF7BAFE0020FEF7C0FEE2201C
:1018A000FEF7BDFEE220FEF7BAFEE220FEF7B7FE2D
:1018B000BF20FEF7ABFEAA20FEF7B1FEB020FEF778
:1018C000A5FE0D20FEF7ABFE0020FEF7A8FE0D20C2
:1018D000FEF7A5FE0020FEF7A2FE1120FEF79FFEF8
:1018E0000020FEF79CFE1920FEF799FE0020FEF76F
:1018F00096FE2120FEF793FE0020FEF790FE2D209D
:10190000FEF78DFE0020FEF78AFE3D20FEF787FEE3
:101910000020FEF784FE5D20FEF781FE0020FEF72A
:101920007EFE5D20FEF77BFE0020FEF778FEB120F4
:10193000FEF76CFE8020FEF772FE0020FEF76FFEC1
:101940008B20FEF76CFE0020FEF769FE9620FEF766
:1019500066FE0020FEF763FEB220FEF757FE002071
:10196000FEF75DFE0020FEF75AFE0220FEF757FE4E
:101970000020FEF754FE0320FEF751FE0020FEF784
:101980004EFEB320FEF742FE0020FEF748FE002088
:10199000FEF745FE0020FEF742FE0020FEF73FFE68
:1019A0000020FEF73CFE0020FEF739FE0020FEF787
:1019B00036FE0020FEF733FE0020FEF730FE00204A
:1019C000FEF72DFE0020FEF72AFE0020FEF727FE80
:1019D0000020FEF724FE0020FEF721FE0020FEF787
:1019E0001EFE0020FEF71BFE0020FEF718FE002062
:1019F000FEF715FE0020FEF712FE0020FEF70FFE98
:101A00000020FEF70CFE0020FEF709FE0020FEF786
:101A100006FE0020FEF703FEB420FEF7F7FD8B2044
:101A2000FEF7FDFD0020FEF7FAFD9620FEF7F7FD1C
:101A30000020FEF7F4FDA120FEF7F1FD0020FEF7E7
:101A4000EEFDB520FEF7E2FD0220FEF7E8FD0020E6
:101A5000FEF7E5FD0320FEF7E2FD0020FEF7DFFDC7
:101A60000420FEF7DCFD0020FEF7D9FDB620FEF7CE
:101A7000CDFD0020FEF7D3FD0020FEF7D0FDB720FE
:101A8000FEF7C4FD0020FEF7CAFD0020FEF7C7FDEB
:101A90003F20FEF7C4FD0020FEF7C1FD5E20FEF7EB
:101AA000BEFD0020FEF7BBFD6420FEF7B8FD002060
:101AB000FEF7B5FD8C20FEF7B2FD0020FEF7AFFD6E
:101AC000AC20FEF7ACFD0020FEF7A9FDDC20FEF700
:101AD000A6FD01E0543300200020FEF7A0FD702099
:101AE000FEF79DFD0020FEF79AFD9020FEF797FD82
:101AF0000020FEF794FDEB20FEF791FD0020FEF79D
:101B00008EFDDC20FEF78BFD0020FEF788FDB8205F
:101B1000FEF77CFD0020FEF782FD0020FEF77FFD32
:101B20000020FEF77CFD0020FEF779FD0020FEF787
:101B300076FD0020FEF773FD0020FEF770FD00200B
:101B4000FEF76DFDBA20FEF761FD2420FEF767FD6C
:101B50000020FEF764FD0020FEF761FD0020FEF787
:101B60005EFDC120FEF752FD2020FEF758FD00204B
:101B7000FEF755FD5420FEF752FD0020FEF74FFD05
:101B8000FF20FEF74CFD0020FEF749FDC220FEF7C6
:101B90003DFD0A20FEF743FD0020FEF740FD042036
:101BA000FEF73DFD0020FEF73AFDC320FEF72EFDB7
:101BB0003C20FEF734FD0020FEF731FD3A20FEF711
:101BC0002EFD0020FEF72BFD3920FEF728FD00201A
:101BD000FEF725FD3720FEF722FD0020FEF71FFD52
:101BE0003C20FEF71CFD0020FEF719FD3620FEF715
:101BF00016FD0020FEF713FD3220FEF710FD002039
:101C0000FEF70DFD2F20FEF70AFD0020FEF707FD71
:101C10002C20FEF704FD0020FEF701FD2920FEF731
:101C2000FEFC0020FEF7FBFC2620FEF7F8FC00205F
:101C3000FEF7F5FC2420FEF7F2FC0020FEF7EFFC97
:101C40002420FEF7ECFC0020FEF7E9FC2320FEF741
:101C5000E6FC0020FEF7E3FC3C20FEF7E0FC002061
:101C6000FEF7DDFC3620FEF7DAFC0020FEF7D7FC9D
:101C70003220FEF7D4FC0020FEF7D1FC2F20FEF727
:101C8000CEFC0020FEF7CBFC2C20FEF7C8FC002089
:101C9000FEF7C5FC2920FEF7C2FC0020FEF7BFFCC2
:101CA0002620FEF7BCFC0020FEF7B9FC2420FEF73E
:101CB000B6FC0020FEF7B3FC2420FEF7B0FC0020A9
:101CC000FEF7ADFC2320FEF7AAFC0020FEF7A7FCE0
:101CD000C420FEF79BFC6220FEF7A1FC0020FEF76B
:101CE0009EFC0520FEF79BFC0020FEF798FC84205C
:101CF000FEF795FC0020FEF792FCF020FEF78FFC2B
:101D00000020FEF78CFC1820FEF789FC0020FEF76F
:101D100086FCA420FEF783FC0020FEF780FC182040
:101D2000FEF77DFC0020FEF77AFC5020FEF777FCE2
:101D30000020FEF774FC0C20FEF771FC0020FEF77B
:101D40006EFC1720FEF76BFC0020FEF768FC952068
:101D5000FEF765FC0020FEF762FCF320FEF75FFC57
:101D60000020FEF75CFCE620FEF759FC0020FEF7A1
:101D700056FCC520FEF74AFC3220FEF750FC00203E
:101D8000FEF74DFC4420FEF74AFC0020FEF747FC1E
:101D90006520FEF744FC0020FEF741FC7620FEF7AC
:101DA0003EFC0020FEF73BFC8820FEF738FC0020BC
:101DB000FEF735FCC620FEF729FC2020FEF72FFC9D
:101DC0000020FEF72CFC1720FEF729FC0020FEF770
:101DD00026FC0120FEF723FC0020FEF720FCC72094
:101DE000FEF714FC0020FEF71AFC0020FEF717FC9B
:101DF0000020FEF714FC0020FEF711FCC820FEF7BF
:101E000005FC0020FEF70BFC0020FEF708FC00207C
:101E1000FEF705FC0020FEF702FCC920FEF7F6FBEA
:101E20000020FEF7FCFB0020FEF7F9FB0020FEF788
:101E3000F6FB0020FEF7F3FB0020FEF7F0FB00208E
:101E4000FEF7EDFB0020FEF7EAFB0020FEF7E7FBC4
:101E50000020FEF7E4FB0020FEF7E1FB0020FEF788
:101E6000DEFB0020FEF7DBFB0020FEF7D8FB0020A6
:101E7000FEF7D5FB0020FEF7D2FB0020FEF7CFFBDC
:101E8000E020FEF7C3FB1620FEF7C9FB0020FEF79B
:101E9000C6FB1C20FEF7C3FB0020FEF7C0FB212081
:101EA000FEF7BDFB0020FEF7BAFB3620FEF7B7FBBE
:101EB0000020FEF7B4FB4620FEF7B1FB0020FEF742
:101EC000AEFB5220FEF7ABFB0020FEF7A8FB642020
:101ED000FEF7A5FB0020FEF7A2FB7A20FEF79FFB92
:101EE0000020FEF79CFB8B20FEF799FB0020FEF7FD
:101EF00096FB9920FEF793FB0020FEF790FBA820AD
:101F0000FEF78DFB0020FEF78AFBB920FEF787FB6A
:101F10000020FEF784FBC420FEF781FB0020FEF7C3
:101F20007EFBCA20FEF77BFB0020FEF778FBD22069
:101F3000FEF775FB0020FEF772FBD920FEF76FFB62
:101F40000020FEF76CFBE020FEF769FB0020FEF7A7
:101F500066FBF320FEF763FB0020FEF760FBE12049
:101F6000FEF754FB1620FEF75AFB0020FEF757FB46
:101F70001C20FEF754FB0020FEF751FB2220FEF749
:101F80004EFB0020FEF74BFB3620FEF748FB0020FF
:101F9000FEF745FB4520FEF742FB0020FEF73FFB26
:101FA0005220FEF73CFB0020FEF739FB6420FEF7D1
:101FB00036FB0020FEF733FB7A20FEF730FB0020D3
:101FC000FEF72DFB8B20FEF72AFB0020FEF727FBF8
:101FD0009920FEF724FB0020FEF721FBA820FEF746
:101FE0001EFB0020FEF71BFBB920FEF718FB0020AC
:101FF000FEF715FBC420FEF712FB0020FEF70FFBD7
:10200000CA20FEF70CFB0020FEF709FBD220FEF7EA
:1020100006FB0020FEF703FBD820FEF700FB0020A4
:10202000FEF7FDFAE020FEF7FAFA0020FEF7F7FAD5
:10203000F320FEF7F4FA0020FEF7F1FAE220FEF7B3
:10204000E5FA0520FEF7EBFA0020FEF7E8FA0B2090
:10205000FEF7E5FA0020FEF7E2FA1B20FEF7DFFAB2
:102060000020FEF7DCFA3420FEF7D9FA0020FEF754
:10207000D6FA4420FEF7D3FA0020FEF7D0FA4F201C
:10208000FEF7CDFA0020FEF7CAFA6120FEF7C7FA84
:102090000020FEF7C4FA7920FEF7C1FA0020FEF70F
:1020A000BEFA8820FEF7BBFA0020FEF7B8FA9720A8
:1020B000FEF7B5FA0020FEF7B2FAA620FEF7AFFA57
:1020C0000020FEF7ACFAB720FEF7A9FA0020FEF7D1
:1020D000A6FAC220FEF7A3FA0020FEF7A0FAC72056
:1020E000FEF79DFA0020FEF79AFAD120FEF797FA44
:1020F0000020FEF794FAD620FEF791FA0020FEF7B2
:102100008EFADD20FEF78BFA0020FEF788FAF32026
:10211000FEF785FA0020FEF782FAE320FEF776FA52
:102120000520FEF77CFA0020FEF779FA0A20FEF778
:1021300076FA0020FEF773FA1C20FEF770FA0020F2
:10214000FEF76DFA3320FEF76AFA0020FEF767FA11
:102150004420FEF764FA0020FEF761FA5020FEF7F3
:102160005EFA0020FEF75BFA6220FEF758FA0020C4
:10217000FEF755FA7820FEF752FA0020FEF74FFAE4
:102180008820FEF74CFA0020FEF749FA9720FEF768
:1021900046FA0020FEF743FAA620FEF740FA002098
:1021A000FEF73DFAB720FEF73AFA0020FEF737FABD
:1021B000C220FEF734FA0020FEF731FAC720FEF7FE
:1021C0002EFA0020FEF72BFAD120FEF728FA002085
:1021D000FEF725FAD520FEF722FA0020FEF71FFAB7
:1021E000DD20FEF71CFA0020FEF719FAF320FEF7B7
:1021F00016FA0020FEF713FAE420FEF707FA012092
:10220000FEF70DFA0020FEF70AFA0120FEF707FAA2
:102210000020FEF704FA0220FEF701FA0020FEF784
:10222000FEF92A20FEF7FBF90020FEF7F8F93C2022
:10223000FEF7F5F90020FEF7F2F94B20FEF7EFF973
:102240000020FEF7ECF95D20FEF7E9F90020FEF72B
:10225000E6F97420FEF7E3F90020FEF7E0F98420A8
:10226000FEF7DDF90020FEF7DAF99320FEF7D7F943
:102270000020FEF7D4F9A220FEF7D1F90020FEF7E6
:10228000CEF9B320FEF7CBF90020FEF7C8F9BE2047
:10229000FEF7C5F90020FEF7C2F9C420FEF7BFF92A
:1022A0000020FEF7BCF9CD20FEF7B9F90020FEF7BB
:1022B000B6F9D320FEF7B3F90020FEF7B0F9DD2020
:1022C000FEF7ADF90020FEF7AAF9F320FEF7A7F913
:1022D0000020FEF7A4F9E520FEF798F90020FEF7AC
:1022E0009EF90020FEF79BF90020FEF798F90020E8
:1022F000FEF795F90220FEF792F90020FEF78FF91C
:102300002920FEF78CF90020FEF789F93C20FEF722
:1023100086F90020FEF783F94B20FEF780F90020B4
:10232000FEF77DF95D20FEF77AF90020FEF777F9D8
:102330007420FEF774F90020FEF771F98420FEF78F
:102340006EF90020FEF76BF99320FEF768F9002084
:10235000FEF765F9A220FEF762F90020FEF75FF9AB
:10236000B320FEF75CF90020FEF759F9BE20FEF716
:1023700056F90020FEF753F9C420FEF750F900206B
:10238000FEF74DF9CD20FEF74AF90020FEF747F998
:10239000D320FEF744F90020FEF741F9DC20FEF7D8
:1023A0003EF90020FEF73BF9F320FEF738F9002054
:1023B000FEF735F9E620FEF729F91120FEF72FF98F
:1023C0000020FEF72CF93420FEF729F90020FEF753
:1023D00026F95620FEF723F90020FEF720F9762093
:1023E000FEF71DF90020FEF71AF97720FEF717F91E
:1023F0000020FEF714F96620FEF711F90020FEF721
:102400000EF98820FEF70BF90020FEF708F9992055
:10241000FEF705F90020FEF702F9BB20FEF7FFF8F2
:102420000020FEF7FCF89920FEF7F9F80020FEF7EF
:10243000F6F86620FEF7F3F80020FEF7F0F85520D6
:10244000FEF7EDF80020FEF7EAF85520FEF7E7F872
:102450000020FEF7E4F84520FEF7E1F80020FEF743
:10246000DEF84320FEF7DBF80020FEF7D8F8442022
:10247000FEF7D5F80020FEF7D2F8E720FEF7C6F801
:102480003220FEF7CCF80020FEF7C9F85520FEF701
:10249000C6F80020FEF7C3F87620FEF7C0F800204B
:1024A000FEF7BDF86620FEF7BAF80020FEF7B7F891
:1024B0006720FEF7B4F80020FEF7B1F86720FEF7BA
:1024C000AEF80020FEF7ABF88720FEF7A8F8002052
:1024D000FEF7A5F89920FEF7A2F80020FEF79FF876
:1024E000BB20FEF79CF80020FEF799F89920FEF734
:1024F00096F80020FEF793F87720FEF790F800207A
:10250000FEF78DF84420FEF78AF80020FEF787F8E2
:102510005620FEF784F80020FEF781F82320FEF70E
:102520007EF80020FEF77BF83320FEF778F80020D5
:10253000FEF775F84520FEF772F80020FEF76FF8F9
:10254000E820FEF763F80020FEF769F80020FEF7A8
:1025500066F89920FEF763F80020FEF760F8872000
:10256000FEF75DF80020FEF75AF88820FEF757F8CE
:102570000020FEF754F87720FEF751F80020FEF710
:102580004EF86620FEF74BF80020FEF748F888204A
:10259000FEF745F80020FEF742F8AA20FEF73FF8C4
:1025A0000020FEF73CF8BB20FEF739F80020FEF7CC
:1025B00036F89920FEF733F80020FEF730F8662051
:1025C000FEF72DF80020FEF72AF85520FEF727F831
:1025D0000020FEF724F85520FEF721F80020FEF732
:1025E0001EF84420FEF71BF80020FEF718F84420E0
:1025F000FEF715F80020FEF712F85520FEF70FF849
:102600000020FEF70CF8E920FEF700F8AA20FEF7FC
:1026100006F80020FEF703F80020FEF700F800207F
:10262000FDF7FDFF0020FDF7F1FFAA20FDF7F7FF02
:10263000CF20FDF7EBFF0020FDF7F1FF0020FDF7B5
:10264000EEFF0020FDF7EBFF0020FDF7E8FF002084
:10265000FDF7E5FF0020FDF7E2FF0020FDF7DFFFBB
:102660000020FDF7DCFF0020FDF7D9FF0020FDF77B
:10267000D6FF0020FDF7D3FF0020FDF7D0FF00209C
:10268000FDF7CDFF0020FDF7CAFF0020FDF7C7FFD3
:102690000020FDF7C4FF0020FDF7C1FFF020FDF78B
:1026A000B5FF0020FDF7BBFF5020FDF7B8FF00206D
:1026B000FDF7B5FF0020FDF7B2FF0020FDF7AFFFEB
:1026C000F320FDF7A3FF0020FDF7A9FFF920FDF798
:1026D0009DFF0620FDF7A3FF1020FDF7A0FF292096
:1026E000FDF79DFF0020FDF79AFF3A20FDF78EFFD2
:1026F0005520FDF794FF1120FDF788FF642005F0B9
:10270000A0FA2920FDF782FF3520FDF77FFF00208A
:10271000FDF785FF5120FDF779FFFF20FDF77FFFD3
:102720005320FDF773FF2C20FDF779FF5520FDF7AF
:102730006DFF8220FDF773FF2C20FDF767FF02F08D
:1027400028B8FE48808845F2105188427ED1552134
:102750004FF47040FDF775FFAA214FF20100FDF71D
:1027600070FF52214FF20200FDF76BFF08214FF27C
:102770000300FDF766FF01214FF20400FDF761FF42
:102780000D214FF43040FDF75CFF0D214BF20100AD
:10279000FDF757FF0D214BF20200FDF752FF3421E8
:1027A0004FF43640FDF74DFF34214BF20160FDF749
:1027B00048FF34214BF20260FDF743FF0D214FF437
:1027C0003140FDF73EFF0D214BF20110FDF739FFBF
:1027D0000D214BF20210FDF734FF34214FF4374046
:1027E000FDF72FFF34214BF20170FDF72AFF342152
:1027F0004BF20270FDF725FF00214FF43240FDF748
:1028000020FF00214BF20120FDF71BFF00214BF2BE
:102810000220FDF716FF24214FF43840FDF711FF89
:1028200024214BF60100FDF70CFF24214BF602009A
:10283000FDF707FF01214FF43F40FDF702FF0F2195
:102840004FF43340FDF7FDFE0F2100E0FEE34BF2B5
:102850000130FDF7F6FE0F214BF20230FDF7F1FEDD
:1028600034214FF43940FDF7ECFE34214BF60110D2
:10287000FDF7E7FE34214BF60210FDF7E2FE0821DA
:102880004FF43540FDF7DDFE08214BF20150FDF716
:10289000D8FE08214BF20250FDF7D3FE03214FF47E
:1028A0004240FDF7CEFE24214FF43A40FDF7C9FE29
:1028B00024214BF60120FDF7C4FE24214BF6022013
:1028C000FDF7BFFE00214FF43C40FDF7BAFE782132
:1028D0004BF60140FDF7B5FE00214BF60240FDF737
:1028E000B0FE00214FF43D40FDF7ABFE78214BF6E2
:1028F0000150FDF7A6FE00214BF60250FDF7A1FEA8
:1029000000214FF43E40FDF79CFE64214BF6016030
:10291000FDF797FE00214FF45140FDF792FE332161
:102920004DF20110FDF78DFE00214DF20210FDF772
:1029300088FE34214DF20310FDF783FE00214DF295
:102940000410FDF77EFE3A214DF20510FDF779FEE9
:1029500000214DF20610FDF774FE4A214DF20710DA
:10296000FDF76FFE00214DF20810FDF76AFE5C21B5
:102970004DF20910FDF765FE00214DF20A10FDF73A
:1029800060FE81214DF20B10FDF75BFE00214DF240
:102990000C10FDF756FEA6214DF20D10FDF751FE6D
:1029A00000214DF20E10FDF74CFEE5214DF20F1007
:1029B000FDF747FE01214DF21010FDF742FE1321F5
:1029C0004DF21110FDF73DFE01214DF21210FDF701
:1029D00038FE54214DF21310FDF733FE01214DF264
:1029E0001410FDF72EFE82214DF21510FDF729FE81
:1029F00001214DF21610FDF724FECA214DF21710E9
:102A0000FDF71FFE02214DF21810FDF71AFE0021FE
:102A10004DF21910FDF715FE02214DF21A10FDF7C7
:102A200010FE01214DF21B10FDF70BFE02214DF2AD
:102A30001C10FDF706FE34214DF21D10FDF701FEBE
:102A400002214DF21E10FDF7FCFD67214DF21F1013
:102A5000FDF7F7FD02214DF22010FDF7F2FD842174
:102A60004DF22110FDF7EDFD02214DF22210FDF790
:102A7000E8FDA4214DF22310FDF7E3FD02214DF204
:102A80002410FDF7DEFDB7214DF22510FDF7D9FD2D
:102A900002214DF22610FDF7D4FDCF214DF2271073
:102AA000FDF7CFFD02214DF22810FDF7CAFDDE2112
:102AB0004DF22910FDF7C5FD02214DF22A10FDF758
:102AC000C0FDF2214DF22B10FDF7BBFD02214DF2AE
:102AD0002C10FDF7B6FDFE214DF22D10FDF7B1FDD6
:102AE00003214DF22E10FDF7ACFD10214DF22F10F9
:102AF000FDF7A7FD03214DF23010FDF7A2FD3321B4
:102B00004DF23110FDF79DFD03214DF23210FDF71E
:102B100098FD6D214DF23310FDF793FD00214FF428
:102B20005240FDF78EFD33214DF20120FDF789FD66
:102B300000214DF20220FDF784FD01E05433002016
:102B400034214DF20320FDF77CFD00214DF20420DD
:102B5000FDF777FD3A214DF20520FDF772FD0021CA
:102B60004DF20620FDF76DFD4A214DF20720FDF7DD
:102B700068FD00214DF20820FDF763FD5C214DF258
:102B80000920FDF75EFD00214DF20A20FDF759FDF9
:102B900081214DF20B20FDF754FD00214DF20C2058
:102BA000FDF74FFDA6214DF20D20FDF74AFD002156
:102BB0004DF20E20FDF745FDE5214DF20F20FDF70A
:102BC00040FD01214DF21020FDF73BFD13214DF298
:102BD0001120FDF736FD01214DF21220FDF731FDE8
:102BE00054214DF21320FDF72CFD01214DF214204C
:102BF000FDF727FD82214DF21520FDF722FD012171
:102C00004DF21620FDF71DFDCA214DF21720FDF7EC
:102C100018FD02214DF21820FDF713FD00214DF2A1
:102C20001920FDF70EFD02214DF21A20FDF709FDD6
:102C300001214DF21B20FDF704FD02214DF21C2065
:102C4000FDF7FFFC34214DF21D20FDF7FAFC0221B7
:102C50004DF21E20FDF7F5FC67214DF21F20FDF718
:102C6000F0FC02214DF22020FDF7EBFC84214DF217
:102C70002120FDF7E6FC02214DF22220FDF7E1FCC8
:102C8000A4214DF22320FDF7DCFC02214DF224208B
:102C9000FDF7D7FCB7214DF22520FDF7D2FC02212C
:102CA0004DF22620FDF7CDFCCF214DF22720FDF778
:102CB000C8FC02214DF22820FDF7C3FCDE214DF2B5
:102CC0002920FDF7BEFC02214DF22A20FDF7B9FCB8
:102CD000F2214DF22B20FDF7B4FC02214DF22C2005
:102CE000FDF7AFFCFE214DF22D20FDF7AAFC0321DC
:102CF0004DF22E20FDF7A5FC10214DF22F20FDF7FF
:102D0000A0FC03214DF23020FDF79BFC33214DF256
:102D10003120FDF796FC03214DF23220FDF791FCA6
:102D20006D214DF23320FDF78CFC00214FF4534010
:102D3000FDF787FC33214DF20130FDF782FC0021C5
:102D40004DF20230FDF77DFC34214DF20330FDF7EA
:102D500078FC00214DF20430FDF773FC3A214DF26E
:102D60000530FDF76EFC00214DF20630FDF769FCE1
:102D70004A214DF20730FDF764FC00214DF2083086
:102D8000FDF75FFC5C214DF20930FDF75AFC002194
:102D90004DF20A30FDF755FC81214DF20B30FDF765
:102DA00050FC00214DF20C30FDF74BFCA6214DF2FA
:102DB0000D30FDF746FC00214DF20E30FDF741FCD1
:102DC000E5214DF20F30FDF73CFC01214DF21030B2
:102DD000FDF737FC13214DF21130FDF732FC0121D4
:102DE0004DF21230FDF72DFC54214DF21330FDF75A
:102DF00028FC01214DF21430FDF723FC82214DF215
:102E00001530FDF71EFC01214DF21630FDF719FCBF
:102E1000CA214DF21730FDF714FC02214DF2183093
:102E2000FDF70FFC00214DF21930FDF70AFC0221DD
:102E30004DF21A30FDF705FC01214DF21B30FDF774
:102E400000FC02214DF21C30FDF7FBFB34214DF25A
:102E50001D30FDF7F6FB02214DF21E30FDF7F1FBB0
:102E600067214DF21F30FDF7ECFB02214DF22030BF
:102E7000FDF7E7FB84214DF22130FDF7E2FB022153
:102E80004DF22230FDF7DDFBA4214DF22330FDF79A
:102E9000D8FB02214DF22430FDF7D3FBB7214DF2D0
:102EA0002530FDF7CEFB02214DF22630FDF7C9FBA0
:102EB000CF214DF22730FDF7C4FB02214DF228301F
:102EC000FDF7BFFBDE214DF22930FDF7BAFB0221F1
:102ED0004DF22A30FDF7B5FBF2214DF22B30FDF714
:102EE000B0FB02214DF22C30FDF7ABFBFE214DF281
:102EF0002D30FDF7A6FB03214DF22E30FDF7A1FB8F
:102F000010214DF22F30FDF79CFB03214DF23030A4
:102F1000FDF797FB33214DF23130FDF792FB032192
:102F20004DF23230FDF78DFB6D214DF23330FDF760
:102F300088FB00214FF45440FDF783FB33214DF211
:102F40000140FDF77EFB00214DF20240FDF779FBC9
:102F500034214DF20340FDF774FB00214DF2044093
:102F6000FDF76FFB3A214DF20540FDF76AFB0021AA
:102F70004DF20640FDF765FB4A214DF20740FDF793
:102F800060FB00214DF20840FDF75BFB5C214DF238
:102F90000940FDF756FB00214DF20A40FDF751FBB9
:102FA00081214DF20B40FDF74CFB00214DF20C400E
:102FB000FDF747FBA6214DF20D40FDF742FB002136
:102FC0004DF20E40FDF73DFBE5214DF20F40FDF7C0
:102FD00038FB01214DF21040FDF733FB13214DF278
:102FE0001140FDF72EFB01214DF21240FDF729FBA8
:102FF00054214DF21340FDF724FB01214DF2144002
:10300000FDF71FFB82214DF21540FDF71AFB012150
:103010004DF21640FDF715FBCA214DF21740FDF7A2
:1030200010FB02214DF21840FDF70BFB00214DF281
:103030001940FDF706FB02214DF21A40FDF701FB96
:1030400001214DF21B40FDF7FCFA00E004E30221F0
:103050004DF21C40FDF7F5FA34214DF21D40FDF70D
:10306000F0FA02214DF21E40FDF7EBFA67214DF216
:103070001F40FDF7E6FA02214DF22040FDF7E1FA8C
:1030800084214DF22140FDF7DCFA02214DF222406D
:10309000FDF7D7FAA4214DF22340FDF7D2FA022121
:1030A0004DF22440FDF7CDFAB7214DF22540FDF752
:1030B000C8FA02214DF22640FDF7C3FACF214DF2A6
:1030C0002740FDF7BEFA02214DF22840FDF7B9FA7C
:1030D000DE214DF22940FDF7B4FA02214DF22A40DB
:1030E000FDF7AFFAF2214DF22B40FDF7AAFA0221CB
:1030F0004DF22C40FDF7A5FAFE214DF22D40FDF7D3
:10310000A0FA03214DF22E40FDF79BFA10214DF25B
:103110002F40FDF796FA03214DF23040FDF791FA6A
:1031200033214DF23140FDF78CFA03214DF232404C
:10313000FDF787FA6D214DF23340FDF782FA002149
:103140004FF45540FDF77DFA33214DF20150FDF764
:1031500078FA00214DF20250FDF773FA34214DF256
:103160000350FDF76EFA00214DF20450FDF769FAA5
:103170003A214DF20550FDF764FA00214DF2065058
:10318000FDF75FFA4A214DF20750FDF75AFA002188
:103190004DF20850FDF755FA5C214DF20950FDF74C
:1031A00050FA00214DF20A50FDF74BFA81214DF201
:1031B0000B50FDF746FA00214DF20C50FDF741FA95
:1031C000A6214DF20D50FDF73CFA00214DF20E50B4
:1031D000FDF737FAE5214DF20F50FDF732FA0121E4
:1031E0004DF21050FDF72DFA13214DF21150FDF75D
:1031F00028FA01214DF21250FDF723FA54214DF225
:103200001350FDF71EFA01214DF21450FDF719FA83
:1032100082214DF21550FDF714FA01214DF216509E
:10322000FDF70FFACA214DF21750FDF70AFA0221F5
:103230004DF21850FDF705FA00214DF21950FDF737
:1032400000FA02214DF21A50FDF7FBF901214DF26F
:103250001B50FDF7F6F902214DF21C50FDF7F1F974
:1032600034214DF21D50FDF7ECF902214DF21E50B4
:10327000FDF7E7F967214DF21F50FDF7E2F9022152
:103280004DF22050FDF7DDF984214DF22150FDF77C
:10329000D8F902214DF22250FDF7D3F9A4214DF2C5
:1032A0002350FDF7CEF902214DF22450FDF7C9F964
:1032B000B7214DF22550FDF7C4F902214DF22650F9
:1032C000FDF7BFF9CF214DF22750FDF7BAF90221E2
:1032D0004DF22850FDF7B5F9DE214DF22950FDF7EA
:1032E000B0F902214DF22A50FDF7ABF9F2214DF26F
:1032F0002B50FDF7A6F902214DF22C50FDF7A1F954
:10330000FE214DF22D50FDF79CF903214DF22E5078
:10331000FDF797F910214DF22F50FDF792F9032197
:103320004DF23050FDF78DF933214DF23150FDF75C
:1033300088F903214DF23250FDF783F96D214DF2EA
:103340003350FDF77EF900214FF45640FDF779F92F
:1033500033214DF20160FDF774F900214DF2026056
:10336000FDF76FF934214DF20360FDF76AF9002192
:103370004DF20460FDF765F93A214DF20560FDF765
:1033800060F900214DF20660FDF75BF94A214DF22C
:103390000760FDF756F900214DF20860FDF751F97D
:1033A0005C214DF20960FDF74CF900214DF20A60F5
:1033B000FDF747F981214DF20B60FDF742F900213D
:1033C0004DF20C60FDF73DF9A6214DF20D60FDF7C1
:1033D00038F900214DF20E60FDF733F9E5214DF289
:1033E0000F60FDF72EF901214DF21060FDF729F96C
:1033F00013214DF21160FDF724F901214DF2126005
:10340000FDF71FF954214DF21360FDF71AF9012160
:103410004DF21460FDF715F982214DF21560FDF7AC
:1034200010F901214DF21660FDF70BF9CA214DF29A
:103430001760FDF706F902214DF21860FDF701F95A
:1034400000214DF21960FDF7FCF802214DF21A60DF
:10345000FDF7F7F801214DF21B60FDF7F2F80221AC
:103460004DF21C60FDF7EDF834214DF21D60FDF7C3
:10347000E8F802214DF21E60FDF7E3F867214DF2F6
:103480001F60FDF7DEF802214DF22060FDF7D9F84C
:1034900084214DF22160FDF7D4F802214DF2226023
:1034A000FDF7CFF8A4214DF22360FDF7CAF8022101
:1034B0004DF22460FDF7C5F8B7214DF22560FDF708
:1034C000C0F802214DF22660FDF7BBF8CF214DF286
:1034D0002760FDF7B6F802214DF22860FDF7B1F83C
:1034E000DE214DF22960FDF7ACF802214DF22A6091
:1034F000FDF7A7F8F2214DF22B60FDF7A2F80221AB
:103500004DF22C60FDF79DF8FE214DF22D60FDF788
:1035100098F803214DF22E60FDF793F810214DF23B
:103520002F60FDF78EF803214DF23060FDF789F82A
:1035300033214DF23160FDF784F803214DF2326002
:10354000FDF77FF86D214DF23360FDF77AF85521D4
:103550004FF47040FDF775F8AA214FF20100FDF716
:1035600070F852214FF20200FDF76BF808214FF27C
:103570000300FDF766F800214FF20400FDF761F843
:10358000CC214FF43140FDF75CF800214BF20110E3
:10359000FDF757F805214FF43640FDF752F870213A
:1035A0004FF43740FDF74DF870214BF20170FDF7F5
:1035B00048F801214FF43840FDF743F803214BF65A
:1035C0000100FDF73EF803214BF60200FDF739F844
:1035D00003214BF60300FDF734F802214FF43C4081
:1035E000FDF72FF800214BF60140FDF72AF80021E6
:1035F0004BF60240FDF725F8D0214FF44940FDF786
:1036000020F802214CF60110FDF71BF850214CF672
:103610000210FDF716F850214CF60310FDF711F8D3
:1036200050214CF60410FDF70CF800214FF45450D3
:10363000FDF707F855214FF46850FDF702F84FF4F5
:103640008850FCF7E3FF782004F0D0FA4FF42450C0
:10365000FCF7DCFF01F09DB8FE48808849F2253177
:1036600088427DD147F6F001E520FCF7EAFF4FF4F0
:1036700080710120FCF7E5FF4FF4E0610220FCF7C8
:10368000E0FF41F230010320FCF7DBFF00210420C2
:10369000FCF7D7FF40F202210820FCF7D2FF0021FF
:1036A0000920FCF7CEFF00210A20FCF7CAFF002109
:1036B0000C20FCF7C6FF00210D20FCF7C2FF002103
:1036C0000F20FCF7BEFF00211020FCF7BAFF0721F6
:1036D0001120FCF7B6FF00211220FCF7B2FF0021F9
:1036E0001320FCF7AEFF00210720FCF7AAFF41F2F0
:1036F00090611020FCF7A5FF40F227211120FCF774
:10370000A0FF9D211220FCF79CFF4FF4C85113200D
:10371000FCF797FF25212920FCF793FF0D212B2093
:10372000FCF78FFF07213020FCF78BFF40F20331BD
:103730003120FCF786FF03213220FCF782FF40F2A4
:1037400006213520FCF77DFF08213620FCF779FFA4
:1037500040F206413720FCF774FF4FF4417100E05E
:1037600058E03820FCF76DFF07213920FCF769FF8E
:1037700040F202613C20FCF764FF08213D20FCF789
:1037800060FF00215020FCF75CFFEF215120FCF787
:1037900058FF00215220FCF754FF40F23F11532004
:1037A000FCF74FFF4FF427416020FCF74AFF01214F
:1037B0006120FCF746FF00216A20FCF742FF002150
:1037C0008020FCF73EFF00218120FCF73AFF00211A
:1037D0008220FCF736FF00218320FCF732FF002116
:1037E0008420FCF72EFF00218520FCF72AFF102102
:1037F0009020FCF726FF4FF4C0619220FCF721FFD8
:1038000040F233110720FCF71CFF22210020FCF7B7
:1038100018FF1FE78F48808849F2283188427DD100
:1038200041F28F01EC20FCF70CFF41F23421EF2034
:10383000FCF707FF4FF480710120FCF702FF4FF403
:10384000E0610220FCF7FDFE41F230010320FCF7AD
:10385000F8FE00210420FCF7F4FE40F202210820CB
:10386000FCF7EFFE00210920FCF7EBFE00210A2007
:10387000FCF7E7FE01210C20FCF7E3FE00210D2000
:10388000FCF7DFFE00210F20FCF7DBFE00211020FB
:10389000FCF7D7FE07211120FCF7D3FE00211220F0
:1038A000FCF7CFFE00211320FCF7CBFE01210720FF
:1038B000FCF7C7FE322004F0C4F941F29041102019
:1038C000FCF7BFFE40F227211120FCF7BAFE3220A0
:1038D00004F0B7F98A211220FCF7B3FE322004F07D
:1038E000B0F94FF4D0511320FCF7ABFE062129208C
:1038F000FCF7A7FE0D212B20FCF7A3FE322004F0DD
:10390000A0F900212020FCF79CFE00212120FCF7DB
:1039100098FE322004F095F9002100E075E0302097
:10392000FCF78FFE40F204613120FCF78AFE40F282
:1039300005313220FCF785FE00213520FCF781FEA1
:1039400040F609413620FCF77CFE4FF40171372028
:10395000FCF777FE40F201313820FCF772FE40F2AE
:1039600007713920FCF76DFE00213C20FCF769FE51
:1039700040F60A213D20FCF764FE322004F061F994
:1039800000215020FCF75DFEEF215120FCF759FE8D
:1039900000215220FCF755FE40F23F115320FCF766
:1039A00050FE4FF427416020FCF74BFE01216120BF
:1039B000FCF747FE00216A20FCF743FE002180202F
:1039C000FCF73FFE00218120FCF73BFE0021822016
:1039D000FCF737FE00218320FCF733FE0021842012
:1039E000FCF72FFE00218520FCF72BFE10219020F4
:1039F000FCF727FE4FF4C0619220FCF722FE40F254
:103A000033110720FCF71DFE24E61248808849F296
:103A1000203188427ED100210846FCF712FE4FF487
:103A200080710120FCF70DFE4FF4E0610220FCF7ED
:103A300008FE41F230010320FCF703FE00210420C0
:103A4000FCF7FFFD40F202210820FCF7FAFD0021FF
:103A5000092001E054330020FCF7F3FD00210A2087
:103A6000FCF7EFFD01210C20FCF7EBFD00210D2000
:103A7000FCF7E7FD00210F20FCF7E3FD322004F006
:103A8000E0F840F201110720FCF7DBFD322004F0E2
:103A9000D8F84FF486511020FCF7D3FD07211120F0
:103AA000FCF7CFFD4FF488711220FCF7CAFD4FF4EC
:103AB00030611320FCF7C5FD00212920FCF7C1FD72
:103AC00044F210012B20FCF7BCFD00215020FCF734
:103AD000B8FDEF215120FCF7B4FD00215220FCF786
:103AE000B0FD40F23F115320FCF7ABFD4FF41C51E9
:103AF0006020FCF7A6FD01216120FCF7A2FD00215A
:103B00006A20FCF79EFD00218020FCF79AFD002131
:103B1000812000E030E0FCF794FD00218220FCF7DA
:103B200090FD00218320FCF78CFD00218420FCF710
:103B300088FD00218520FCF784FD10219020FCF7F2
:103B400080FD00219220FCF77CFD01219320FCF7F1
:103B500078FD4FF488719520FCF773FD00219720C4
:103B6000FCF76FFD00219820FCF76BFD40F273110C
:103B70000720FCF766FD6DE5FE48808849F231318B
:103B800088427DD141F21401E720FCF75AFD4FF441
:103B900080710120FCF755FD4FF400710220FCF705
:103BA00050FD41F238010320FCF74BFD40F20221A9
:103BB0000820FCF746FD00210920FCF742FD00210A
:103BC0000A20FCF73EFD00210C20FCF73AFD002105
:103BD0000D20FCF736FD00210F20FCF732FD0021FF
:103BE0001020FCF72EFD07211120FCF72AFD0021F3
:103BF0001220FCF726FD00211320FCF722FDC8202F
:103C000004F01FF841F290611020FCF71AFD40F219
:103C100027211120FCF715FD322004F012F80C21A9
:103C20001220FCF70EFD322004F00BF84FF4006177
:103C30001320FCF706FD11212920FCF702FD0B21C2
:103C40002B20FCF7FEFC322003F0FBFF002120209C
:103C5000FCF7F7FC40F23F112120FCF7F2FC0021B9
:103C60003020FCF7EEFC4FF483713120FCF7E9FCC7
:103C700000213220FCF7E5FC4FF40171352000E013
:103C800064E0FCF7DEFC41F20A613620FCF7D9FC67
:103C900040F207713720FCF7D4FC4FF483713820D1
:103CA000FCF7CFFC40F207713920FCF7CAFC40F268
:103CB00002413C20FCF7C5FC40F60F413D20FCF7DB
:103CC000C0FC00215020FCF7BCFCEF215120FCF788
:103CD000B8FC00215220FCF7B4FC40F23F11532005
:103CE000FCF7AFFC4FF41C516020FCF7AAFC01214B
:103CF0006120FCF7A6FC00216A20FCF7A2FC002151
:103D00008020FCF79EFC00218120FCF79AFC00211A
:103D10008220FCF796FC00218320FCF792FC002116
:103D20008420FCF78EFC00218520FCF78AFC102102
:103D30009020FCF786FC4FF4C0619220FCF781FCD8
:103D400040F233110720FCF77CFC83E4894880882B
:103D500045F2084188427DD14FF480710120FCF783
:103D600070FC4FF4E0610220FCF76BFC41F2300183
:103D70000320FCF766FC00210420FCF762FC40F203
:103D800007210820FCF75DFC00210920FCF759FC05
:103D900000210A20FCF755FC00210C20FCF751FC07
:103DA00000210D20FCF74DFC00210F20FCF749FC01
:103DB000142003F046FF41F2B0611020FCF741FCF3
:103DC00001211120FCF73DFC01211720FCF739FCF3
:103DD0004FF49C711220FCF734FC4FF40061132067
:103DE000FCF72FFC09212920FCF72BFC09212A20B4
:103DF000FCF727FC0021A420FCF723FC0021502025
:103E0000FCF71FFCEF215120FCF71BFC0021522086
:103E1000FCF717FC40F23F115320FCF712FC4FF463
:103E20001C516020FCF70DFC01216120FCF709FC0E
:103E300000216A20FCF705FC00218020FCF701FC32
:103E400000218120FCF7FDFB00218220FCF7F9FB1B
:103E5000002100E024E08320FCF7F3FB0021842014
:103E6000FCF7EFFB00218520FCF7EBFB13219020F2
:103E7000FCF7E7FB00219220FCF7E3FB03219320F2
:103E8000FCF7DFFB4FF488719520FCF7DAFB40F27A
:103E900073110720FCF7D5FB322003F0D2FEB8E403
:103EA0003448808841F2055188427DD100210720A5
:103EB000FCF7C7FB322003F0C4FE4FF48E711220D2
:103EC000FCF7BFFB0121A420FCF7BBFB0F2108205E
:103ED000FCF7B7FB08210A20FCF7B3FB08210D20F3
:103EE000FCF7AFFB40F207713020FCF7AAFB07217B
:103EF0003120FCF7A6FB40F203613220FCF7A1FB66
:103F00004FF4E0613320FCF79CFB40F202213420A7
:103F1000FCF797FB02213520FCF793FB41F60F716C
:103F20003620FCF78EFB40F207713720FCF789FB47
:103F300000213820FCF785FB00213920FCF781FBAC
:103F400040F207713A20FCF77CFB00213B20FCF794
:103F500078FB07213C20FCF774FB00213D20FCF797
:103F600070FB322003F06DFE01210720FCF769FB96
:103F7000012101E0543300201720FCF762FB3220BE
:103F800003F05FFE4FF4BD511020FCF75AFB40F2E6
:103F900017211120FCF755FB4FF48F711220FCF70D
:103FA00050FB4FF4706100E098E01320FCF749FBF0
:103FB00000212A20FCF745FB0A212920FCF741FBC0
:103FC0004FF49F711220FCF73CFB00215020FCF7BE
:103FD00038FBEF215120FCF734FB00215220FCF785
:103FE00030FB40F23F115320FCF72BFB4FF41C51E8
:103FF0006020FCF726FB01216120FCF722FB002159
:104000006A20FCF71EFB00218020FCF71AFB002130
:104010008120FCF716FB00218220FCF712FB002117
:104020008320FCF70EFB00218420FCF70AFB002113
:104030008520FCF706FB13219020FCF702FB4FF4D0
:1040400040719220FCF7FDFA05219320FCF7F9FA64
:1040500000219520FCF7F5FA00219720FCF7F1FAF2
:1040600000219820FCF7EDFA4FF480710120FCF755
:10407000E8FA4FF4E0610220FCF7E3FA41F238017C
:104080000320FCF7DEFA00210420FCF7DAFA002115
:104090000C20FCF7D6FA00210F20FCF7D2FA002101
:1040A0002020FCF7CEFA00212120FCF7CAFA2121BA
:1040B0000720FCF7C6FA142003F0C3FD6121072096
:1040C000FCF7BFFA142003F0BCFD40F27311072087
:1040D000FCF7B7FA142003F0B4FD5AE3FE488088D9
:1040E0004BF2055188427CD100210846FCF7A9FA21
:1040F00000210846FCF7A5FA00210846FCF7A1FAC2
:1041000000210846FCF79DFA0121A420FCF799FA4A
:10411000142003F096FD4FF41C516020FCF791FA37
:1041200040F202210820FCF78CFA4FF40571302090
:10413000FCF787FA43F215713120FCF782FA40F25E
:1041400004613220FCF77DFA40F616613320FCF75B
:1041500078FA42F211213420FCF773FA4FF4A85197
:104160003520FCF76EFA48F207513620FCF769FA61
:1041700041F207413720FCF764FA41F2034138204D
:10418000FCF75FFA20213920FCF75BFA1A21902016
:10419000FCF757FA00211020FCF753FA07211120F1
:1041A000FCF74FFA00211220FCF74BFA00211320F4
:1041B000FCF747FA142003F044FD4FF4E6611020A9
:1041C000FCF73FFA40F237111120FCF73AFA1420BD
:1041D00003F037FD4FF4DC711220FCF732FA1420A3
:1041E00000E085E003F02DFD4FF470611320FCF733
:1041F00028FA80212A20FCF724FA48212920FCF7FC
:1042000020FA142003F01DFD4FF480710120FCF70B
:1042100018FA4FF4E0610220FCF713FA41F238017A
:104220000320FCF70EFA40F202210820FCF709FAFD
:1042300000210A20FCF705FA00210C20FCF701FA06
:1042400000210D20FCF7FDF930210E20FCF7F9F9D3
:1042500000215020FCF7F5F9EF215120FCF7F1F98E
:1042600000215220FCF7EDF940F23F115320FCF7FA
:10427000E8F94FF41C516020FCF7E3F901216120BB
:10428000FCF7DFF900216A20FCF7DBF9112190200F
:10429000FCF7D7F94FF4C0619220FCF7D2F940F255
:1042A00002419320FCF7CDF902219420FCF7C9F9D3
:1042B000142003F0C6FC01210720FCF7C2F91420EA
:1042C00003F0BFFC61210720FCF7BBF940F273113A
:1042D0000720FCF7B6F900212020FCF7B2F90021F5
:1042E0002120FCF7AEF922210020FCF7AAF950E2C8
:1042F000794880884CF2055188427CD100210846DB
:10430000FCF79FF900210846FCF79BF9142003F005
:1043100098FC00210846FCF794F900210846FCF7B8
:1043200090F900210846FCF78CF900210846FCF7BB
:1043300088F90121A420FCF784F9142003F081FC02
:104340004FF41C516020FCF77CF940F60601082070
:10435000FCF777F940F203713020FCF772F9012184
:104360003120FCF76EF904213220FCF76AF94FF492
:1043700081713320FCF765F94FF440713420FCF76C
:1043800060F940F203113520FCF75BF91F2136205C
:10439000FCF757F940F203713720FCF752F901217D
:1043A0003820FCF74EF904213920FCF74AF9152191
:1043B0009020FCF746F94FF482611020FCF741F998
:1043C00040F247211120FCF73CF94FF4DE71122036
:1043D000FCF737F94FF460611320FCF732F97820CD
:1043E00003F02FFC4FF480710120FCF72AF94FF401
:1043F0000071022000E052E0FCF723F941F23001A5
:104400000320FCF71EF908210A20FCF71AF9002105
:104410000C20FCF716F920210E20FCF712F90021E0
:104420000F20FCF70EF900212020FCF70AF90021EB
:104430002120FCF706F93D212A20FCF702F914207F
:1044400003F0FFFB2D212920FCF7FBF80021502071
:10445000FCF7F7F84DF2EF015120FCF7F2F80021DC
:104460005220FCF7EEF840F23F115320FCF7E9F838
:1044700000216120FCF7E5F800216A20FCF7E1F853
:104480004FF440719220FCF7DCF805219320FCF7F3
:10449000D8F84FF480710720FCF7D3F879E10E4883
:1044A000808844F2315188427ED101210020FCF7FE
:1044B000C8F80A2003F0C5FB41F228611020FCF780
:1044C000C0F80E211220FCF7BCF840F63921132069
:1044D000FCF7B7F80A2001E05433002003F0B1FBE9
:1044E00040211120FCF7ADF850211520FCF7A9F868
:1044F0000A2003F0A6FB1E211220FCF7A2F80A20D6
:1045000003F09FFB4FF4B1511020FCF79AF842F6EC
:1045100039211320FCF795F80A2003F092FB4FF4A1
:1045200080710120FCF78DF84FF440710220FCF7F8
:1045300088F841F238010320FCF783F840F20221A9
:104540000820FCF77EF808210A20FCF77AF8002101
:104550003020FCF776F840F202413120FCF771F888
:104560004FF483713220FCF76CF840F20351332092
:10457000FCF767F84FF482713420FCF762F840F2E0
:1045800001313520FCF75DF840F207713620FCF769
:1045900058F840F205313720FCF753F84FF4027118
:1045A0003820FCF74EF800E03EE040F60B71392071
:1045B000FCF747F802214120FCF743F84FF41C5167
:1045C0006020FCF73EF801216120FCF73AF84FF437
:1045D00004719020FCF735F84FF485719220FCF7B8
:1045E00030F804219320FCF72CF84FF48071A020C0
:1045F000FCF727F801210720FCF723F821210720E9
:10460000FCF71FF823210720FCF71BF833210720B4
:10461000FCF717F840F233110720FCF712F80021DD
:10462000A020FCF70EF8B4E0FE48808844F2355133
:104630008842F8D130211520FCF703F810219A2088
:10464000FBF7FFFF20211120FBF7FBFF43F228417E
:104650001020FBF7F6FF02211220FBF7F2FF41F2D8
:1046600038011320FBF7EDFF282003F0EAFA1221AE
:104670000846FBF7E6FF282003F0E3FA43F2204167
:104680001020FBF7DEFF43F238011320FBF7D9FFC0
:10469000462003F0D6FA00213020FBF7D2FF40F28B
:1046A00002413120FBF7CDFF40F207313220FBF70A
:1046B000C8FF4FF441713320FBF7C3FF04213420BE
:1046C000FBF7BFFF40F201413520FBF7BAFF40F294
:1046D00007713620FBF7B5FF40F205313720FBF7B5
:1046E000B0FF4FF4C2613820FBF7ABFF4FF4C2615B
:1046F0003920FBF7A6FF4FF480710120FBF7A1FFE3
:104700004FF440710220FBF79CFF41F2300103207F
:10471000FBF797FF40F608010820FBF792FF0821FE
:104720000A20FBF78EFF4FF41C516020FBF789FF36
:1047300001216120FBF785FF4FF49F719020FBF76B
:1047400080FF4FF480719220FBF77BFF4FF4807164
:104750009320FBF776FF4FF44051A020FBF771FF49
:104760001021A320FBF76DFF01210720FBF769FF54
:1047700021210720FBF765FF23210720FBF761FFBD
:1047800033210720FBF75DFF40F233110720FBF7D1
:1047900058FF0120FCF7F1FA0120A34908604FF609
:1047A000FF70FCF766FC21B000BD2DE9FC4F05460B
:1047B0000E4617469846DDF82C9000200190994847
:1047C000808846F60401884229D1964880790128DC
:1047D00025D1AB46354693480088C01B401E86B2A3
:1047E000474690480088A0EB0B00401E1FFA80F857
:1047F00000208C4988712A2048812B2088814346DB
:104800003A4631462846CDF80090FFF7CEFF01200A
:10481000844988712B2048812A2088811CE0781BDC
:10482000401C80B20190344614E021462846FBF734
:1048300034FFFBF719FF4FF0000A06E07B48A0F8B1
:1048400000900AF101001FFA80FA01988245F5DB19
:10485000601C84B24445E8DDBDE8FC8F2DE9F84FCB
:1048600007460D4690469946DDF828B0A8EB0700AC
:10487000401C1FFA80FAA9EB0500401C80B2009092
:10488000002414E0281981B23846FBF706FFFBF735
:10489000EBFE002607E004FB0A603BF810006349CA
:1048A0000880701C86B25645F5DB601C84B2009807
:1048B0008442E7DBBDE8F88F2DE9FF4F84B08146E5
:1048C0008A460020039002900698A0EB09050798FD
:1048D000A0EB0A06CDF80490CDF800A0002D01DD74
:1048E000012705E00DB9002702E04FF0FF376D42C8
:1048F000002E02DD4FF0010806E016B94FF0000867
:1049000002E04FF0FF387642B54201DD2C4600E070
:1049100034464FF0000B21E0009A91B2019A90B218
:10492000FCF792F9039828440390029830440290CF
:104930000398A04205DD0398001B039001983844BA
:1049400001900298A04205DD0298001B0290009899
:10495000404400900BF101001FFA80FB601C83456E
:10496000DADD08B0BDE8F08FF0B504460D46164616
:104970001F462B46324629462046FFF79DFF3B4601
:10498000224629462046FFF797FF3B4632463946E6
:104990002046FFF791FF3B46324629463046FFF757
:1049A0008BFFF0BD2DE9F04306460F4690460024EC
:1049B00045460320A0EB480943E07A1B91B2321927
:1049C00090B2FCF741F93A1B91B2721990B2FCF720
:1049D0003BF93A1991B2721990B2FCF735F97A198C
:1049E00091B2321990B2FCF72FF97A1991B2321BB9
:1049F00090B2FCF729F93A1991B2721B90B2FCF708
:104A000023F97A1B91B2321B90B2FCF71DF93A1BC5
:104A100091B2721B90B2FCF717F9641CB9F1000F48
:104A20000ADA05E054330020848240420000086026
:104A3000A000801D814404E0601B80000A30814496
:104A40006D1EAC42B9DDBDE8F0832DE9F84F074695
:104A5000884616461C46C3462046E31704EB5373AC
:104A6000DB1021464FEAE47C04EB5C7C4FEAEC0C63
:104A7000A4EBCC0CBCF1000F02D04FF0010C01E014
:104A80004FF0000C6344224604EBD27C4FEA6C0CDE
:104A900003FB0CF3DBB20093A6F12000C6B20025A5
:104AA00056E00C2C07D106EB46009F4901EB800035
:104AB00010F8059013E0102C05D19C4800EB06106F
:104AC00010F805900BE0182C07D106EBC6009849AA
:104AD00001EB800010F8059001E0BDE8F88F4FF081
:104AE000000A2FE009F0800030B192480288414668
:104AF0003846FCF7B7F807E00A9828B98E480288CC
:104B000041463846FCF7AEF84FEA49604FEA106973
:104B100008F101001FFA80F888480088B84200DCDC
:104B2000DBE7A8EB0B00A04208D1D846781C87B27F
:104B300082480088B84200DCCFE706E00AF10100B5
:104B400000F0FF0ABAF1080FCCDB00BF681CC5B249
:104B500000988542A5DB00BFBFE710B502460120E3
:104B600000E050430B1EA1F10104E1B2F9D110BDE8
:104B70002DE9FF4F81B0074691461E460E9D4FF02E
:104B8000000A002439E0301B401EC1B20A20FFF7A2
:104B9000E4FFB9FBF0F00A21B0FBF1F201FB1208CF
:104BA000BAF1000F16D1701EA04213DDB8F1000F4C
:104BB0000ED10020AB4605EBDB71491001FB0471FF
:104BC000009088B22B4620220299FFF73EFF12E0A8
:104BD0004FF0010A0020AB4605EBDB71491001FBE9
:104BE0000471009088B208F13001CAB22B460299D4
:104BF000FFF72BFF00BF601CC4B2B442C3DB05B09B
:104C0000BDE8F08F2DE9FF4F82B0064692461F4661
:104C1000DDE90F480020019000254DE0781B401E83
:104C2000C1B20A20FFF799FFBAFBF0F00A21B0FBEE
:104C3000F1F201FB1209019850BB781EA84227DD52
:104C4000B9F1000F22D108F0800078B108F001001E
:104C5000A34604EBDB71491001FB0561009088B2AB
:104C6000234630220399FFF7F0FE0EE008F0010022
:104C7000A34604EBDB71491001FB0561009088B28B
:104C8000234620220399FFF7E0FE13E00120019064
:104C900008F00100A34604EBDB71491001FB05613C
:104CA000009088B209F13001CAB223460399FFF798
:104CB000CCFE00BF681CC5B2BD42AFDB06B0BDE88C
:104CC000F08F2DE9F84704460D4690469946DDE9F8
:104CD000096704F0FF0A08EB04001FFA80F809EBEB
:104CE00005001FFA80F916E0444502DB5446A81976
:104CF00085B24D4500DB14E0002000903A78334641
:104D000029462046FFF7A1FE304606EBD07104EBA2
:104D100061018CB27F1C38787E2802DC387820282C
:104D2000E2DA00BFBDE8F887EE9402086299020853
:104D3000529F020814000020160000205433002067
:104D400010B500F0BBF810BD70B50446002600F0A9
:104D5000D4F82546E11704EB11610912A02202EBF9
:104D60004101C8B200F075F900F008F9E11704EB51
:104D700011610912A4EB0121C8B200F06AF900F038
:104D8000FDF800F0BAF8A12000F063F900F0F6F8A1
:104D9000002000F08BF9064600F0D1F8304670BDD7
:104DA00070B504460E4600F0A8F82546E11704EB5E
:104DB00011610912A02202EB4101C8B200F049F9C9
:104DC00000F0DCF8E11704EB11610912A4EB0121FA
:104DD000C8B200F03EF900F0D1F8304600F039F9E1
:104DE00000F0CCF800F0ABF80A2002F02AFF70BD0A
:104DF0002DE9F04105460E461746002409E0E20081
:104E000026FA02F2D1B22A1990B2FFF7C9FF601C4C
:104E1000C4B2BC42F3DBBDE8F0812DE9F0410746A6
:104E20000C460026002509E036023919491B491EA7
:104E300088B2FFF789FF0644681CC5B2A542F3DBC0
:104E40003046BDE8F08110B5FF20FFF77DFF044636
:104E5000552C01D1002010BD5521FF20FFF7A0FFE8
:104E6000FF20FFF771FF0446552C01D10020F2E727
:104E70000120F0E770B506460C46154608E03046BE
:104E8000721C96B2FFF760FF04F8010B681E85B232
:104E9000002DF4D170BD70B505460C46164606E0EF
:104EA00021782846FFF77CFF681C85B2641C301E01
:104EB000A6F101018EB2F3D170BD00001CB5012135
:104EC000022002F0E7FA4FF44070009001208DF8C4
:104ED000040003208DF8050000208DF80600012055
:104EE0008DF807006946894802F036F801208849A4
:104EF00008608849C1F8A4021CBD10B58348006849
:104F000020F44020814908600846006840F4802071
:104F1000086001207E49091D08607E49C1F8A00291
:104F2000042002F063FE00207949091D0860042076
:104F300002F05CFE00207749C1F8A00210BD10B558
:104F40007248006820F440207049086008460068F4
:104F500040F48020086000206D4908606D49C1F868
:104F6000A402042002F042FE012069490860694958
:104F7000C1F8A402042002F039FE10BD10B50024CF
:104F80006248006820F440206049086008460068D4
:104F9000086001205E49091D086002F027FE01201B
:104FA0005C49C1F8A00202F021FE07E0601CC4B217
:104FB000FA2C03DDFFF7C3FF012010BD54487C38F5
:104FC00000680028F2D15249086000BFF5E710B52B
:104FD00000204F4908604D48006820F440204B49AC
:104FE00008600846006840F48020086000204949B5
:104FF000C1F8A402022002F0F9FD01204449086032
:10500000022002F0F3FD00204249C1F8A00210BDC9
:1050100010B500203E4908603C48006820F440205C
:105020003A4908600846006840F480200860012082
:105030003849C1F8A402022002F0D8FD0120344909
:105040000860022002F0D2FD00203249C1F8A0021F
:1050500010BD70B504462D48006820F440202B494F
:1050600008600846006840F4802008600020284955
:105070000860002517E0E0092549091D0860600661
:10508000040E022002F0B2FD01202249C1F8A00264
:10509000022002F0ABFD00201D490860022002F052
:1050A000A5FD681CC5B2082DE5DB70BD70B50546D1
:1050B00000241648006820F440201449086008467F
:1050C00000680860002616E00020114908600220F0
:1050D00002F08CFD01200F49C1F8A0026006040E09
:1050E0000B487C38006808B1601CC4B2012002F093
:1050F0007DFD701CC6B2082EE6DB15B9FFF788FFF0
:1051000001E0FFF764FF204670BD0000000402408C
:10511000A08240420080404210B5052002F066FDAA
:1051200010BD1CB50121222002F0B4F9012000902D
:105130008DF8040003208DF8050000208DF806008E
:1051400001208DF807006946844801F005FF4FF4FF
:10515000006000906946824801F0FEFE012081490E
:1051600008608149C1F8AC021CBD10B57C480068DC
:1051700020F440007A4908600846006840F4800046
:1051800008600120794908607949C1F8800214203B
:1051900002F02CFD002075490860FFF7BDFF0020DC
:1051A0007349C1F8800210BD10B56D48006820F445
:1051B00040006B4908600846006840F480000860C1
:1051C000012068490860142002F010FD00206649A3
:1051D000C1F8AC02FFF7A0FF01206449086010BDD0
:1051E00010B500245E48006820F440005C49086067
:1051F00008460068086001205C4908605C49C1F805
:1052000080020AE0601CC4B2FA2C03DDFFF7CCFF79
:10521000012010BD012002F0E9FC544880380068EC
:105220000028EFD14F49086000BFF2E710B5002019
:105230004C4908604A48006820F44000484908602A
:105240000846006840F480000860FFF765FF002012
:105250004549C1F8AC02FFF75FFF012041490860F2
:10526000FFF75AFF00204249C1F8800210BD10B577
:1052700000203C4908603A48006820F44000384962
:1052800008600846006840F480000860FFF744FFAB
:1052900001203549C1F8AC02FFF73EFF012031493A
:1052A0000860FFF739FF00203149C1F8800210BDC6
:1052B00070B504462A48006820F440002849086078
:1052C0000846006840F48000086000202549086016
:1052D000FFF722FF002511E0E0092449086060067D
:1052E000040E01202249C1F88002FFF715FF0020BB
:1052F0001C490860FFF710FF681CC5B2082DEBDBE6
:1053000070BD70B5054600241548006820F44000C3
:1053100013490860084600680860002613E0002072
:10532000104908601E2002F061FC01201049C1F8FC
:1053300080026006040E0D488038006808B1601CC9
:10534000C4B2701CC6B2082EE9DB15B9FFF78FFF97
:1053500001E0FFF76BFF204670BD00000004024033
:10536000001402408082404200804242AC824242AD
:10537000008040422DE9F04104460E4617464FF0AA
:105380000008FFF7F2FEB220FFF792FFFFF728FFB9
:105390002012FFF78DFFFFF723FFE0B2FFF788FF32
:1053A000FFF71EFF00250BE0705DFFF781FFFFF7A1
:1053B00017FF8046B8F1000F00D003E0681CC5B2AB
:1053C000BD42F1DB00BFFFF7EFFE4046BDE8F081D4
:1053D0002DE9F04105460F461646FFF7C6FEB220FE
:1053E000FFF766FFFFF7FCFE2812FFF761FFFFF7EC
:1053F000F7FEE8B2FFF75CFFFFF7F2FEFFF7B5FE3E
:10540000B320FFF755FFFFF7EBFE00240BE0711E02
:10541000A14201D0012100E000210846FFF771FF01
:105420003855601CC4B2B442F1DBFFF7BDFEBDE8E5
:10543000F08138B50446002000900CB18020009027
:10544000012269464FF45060FFF794FF38BD0EB556
:10545000002002900121062002F01CF8022000909A
:1054600000208DF8040001208DF80700694693485C
:1054700001F072FD4FF40050009001208DF80400FF
:1054800003208DF8050000208DF8060069468C4841
:1054900001F062FDFFF745FE00208A4908606420A4
:1054A00002F0CFFB01208849C1F8B402642002F069
:1054B000C8FB0120FFF7BDFF012202A94FF4506095
:1054C000FFF786FF9DF8081080A009F017FF9DF8F0
:1054D0000800802801D100200EBD0120FCE731B575
:1054E0002DED068B82B0002400257B480078401CFF
:1054F00079490870084600780A2190FBF1F201FB17
:10550000120018B1744800780A287DDA012208A92F
:105510000020FFF75DFF9DF8200000F01F0000282D
:1055200072D09DF8200000F01F0040F0C0006B49D1
:1055300081F82000002486E0684890F820000121CE
:10554000A140084000287CD0654931F814000422AD
:1055500001A9FFF73DFF614890F8340000F0010019
:10556000D0B39DF807109DF8062001EB022023F030
:10557000E6FB41EC190B9FED5B0B53EC102B23F07A
:1055800045FC41EC180B23F0ADFB81B253481630BB
:1055900020F814109DF805109DF8042001EB02205E
:1055A00023F0CDFB41EC1A0B9FED500B53EC102B6D
:1055B00023F02CFC41EC190B9FED4E0B53EC102B00
:1055C00023F058FD41EC180B23F08CFB81B24348CB
:1055D0000C3020F8141034E0FFE79DF807109DF818
:1055E000062001EB022023F0AAFB41EC190B9FEDF2
:1055F0003D0B53EC102B23F009FC41EC180B23F06E
:1056000071FB81B2354800E02CE00C3020F814101A
:105610009DF805109DF8042001EB022023F08FFB7C
:1056200041EC190B9FED310B53EC102B23F0EEFBEB
:1056300041EC180B23F056FB81B22848163020F8B5
:105640001410601CC4B2052CFFF676AF0125234868
:10565000808920B92148C08A08B90020089000201C
:105660001D4908709DF8200000F01F00D0B91B48AC
:1056700090F8200000F0800040B1184890F8200019
:1056800020F08000154981F820000BE04FF6FF70F4
:1056900012498881C882084690F8200000F0E00096
:1056A00081F820000C480078F02802DD0A200A4921
:1056B0000870284602B0BDEC068B38BD00040240DD
:1056C00000080240B40241420000414243545020CD
:1056D00049443A25780D0A00180000201C000020DB
:1056E000AEAC02087B14AE47E17AD43FD881734652
:1056F00094F6D23F0000000000008940002100BF66
:1057000015E000F080021AB10122FE4B1A6002E09F
:105710000022FC4B1A604206100E0022F94B083B97
:105720001A600122F84BC3F8B4224A1CD1B20829EE
:10573000E7DB704770B50646002500240020F149DC
:1057400008390860F049C1F8BC02EE490C3908601C
:105750003046FFF7D3FF062002F048FA0020EA495E
:10576000C1F8B402012002F041FA0120E5490839EC
:10577000086002F03BFA0020E349C1F8B40200BF20
:1057800016E04FF6FF7000EA44040020DD490839B6
:105790000860012002F02AFA0120DB49C1F8B402B6
:1057A000D8488438006808B1601C84B2681CC5B24F
:1057B000102DE6DB24110120D2490C390860204667
:1057C00070BD2DE9FE4380460027002406E04046D8
:1057D000FFF7B0FF2DF81400601C84B2052CF6DB37
:1057E000002416E0601C85B20FE03DF814003DF87F
:1057F0001510884207DD3DF814603DF815002DF8BE
:1058000014002DF81560681C85B2052DEDDB601CB9
:1058100084B2042CE6DB0027012405E03DF81400E7
:10582000384487B2601C84B2042CF7DB032097FB5A
:10583000F0F086B23046BDE8FE832DE9F041044623
:105840000D46B2480078FFF7BCFF0646B048007826
:10585000FFF7B7FF074626802F800120BDE8F081C3
:105860007FB504460D4602A903A8FFF7E6FF0646EA
:1058700016B9002004B070BD694601A8FFF7DDFF2E
:1058800006460EB90020F5E7BDF80400BDF80C107F
:10589000884206DCBDF80C10BDF8040032308142AD
:1058A0000CDBBDF80C00BDF80410884236DCBDF8F6
:1058B0000410BDF80C00323081422FDABDF8000030
:1058C000BDF80810884206DCBDF80810BDF80000DD
:1058D000323081420CDBBDF80800BDF80010884270
:1058E0001CDCBDF80010BDF808003230814215DA2A
:1058F000BDF80C10BDF80420881800EBD071C1F37E
:105900004F012180BDF80810BDF80020881800EB79
:10591000D071C1F34F0129800120ABE70020A9E736
:1059200070B504460D4616467A48068004F10D010E
:105930008AB2193988B22B462946FEF7BDFF05F118
:105940000D0083B2193881B222462046FEF7B4FF1B
:105950006A1C91B2621C90B2FBF776F96A1C91B294
:10596000621E90B2FBF770F96A1E91B2621C90B28F
:10597000FBF76AF96A1E91B2621E90B2FBF764F9F6
:10598000062229462046FFF70DF870BD70B5044683
:105990000D4616465F48068029462046FBF754F917
:1059A000611C88B22946FBF74FF9681C81B220467A
:1059B000FBF74AF96A1C91B2621C90B2FBF744F9FA
:1059C00070BD10B5044654480068002843D12CB17E
:1059D0005249A1F10A00FFF743FF2AE04F49A1F124
:1059E0000A00FFF73DFF20B34C48163890ED0B0A34
:1059F00090ED091A808900EE900AF8EE600A01EE37
:105A0000200ABCEEC00A10EE100A444916398881FB
:105A1000084690ED0C0A90ED0A1AC08A00EE900A32
:105A2000F8EE600A01EE200ABCEEC00A10EE100A81
:105A3000C8823A48163890F8200000F0800038BB41
:105A4000C0203649163981F82000084681898182B4
:105A5000C18AC1831CE03148163890F8200000F05C
:105A6000800050B12D48163890F8200020F08000BA
:105A70002A49163981F820000AE000212748163803
:105A80008182C1834FF6FF70244916398881C8820C
:105A90002248163890F8200000F0800010BD10B5A4
:105AA0001E48163890ED090ADFED1D0A20EE200A87
:105AB000BDEEC00A10EE104A042221462820FFF74E
:105AC00097F91648163890ED0A0ADFED150A20EE10
:105AD000200ABDEEC00A10EE104A042221462C20F6
