:020000040800F2
:1000000080A40120E58A0008AD030008AF030008C2
:10001000B3030008B7030008BB030008000000009A
:10002000000000000000000000000000BF03000806
:10003000C10300080000000049F50008D1B5000820
:10004000FF8A0008FF8A0008FF8A0008FF8A00086C
:10005000FF8A0008FF8A0008FF8A0008FF8A00085C
:10006000FF8A0008FF8A0008FF8A0008FF8A00084C
:10007000FF8A0008FF8A0008FF8A0008FF8A00083C
:10008000FF8A0008FF8A0008FF8A0008FF8A00082C
:10009000FF8A0008FF8A0008FF8A0008FF8A00081C
:1000A000FF8A0008FF8A0008FF8A0008FF8A00080C
:1000B000FF8A0008994D0008054E0008FF8A0008D5
:1000C000FF8A0008FF8A0008FF8A0008FF8A0008EC
:1000D000FF8A00089FB70008FF8A0008FF8A00080F
:1000E000FF8A0008FF8A0008FF8A0008FF8A0008CC
:1000F000FF8A0008FF8A0008FF8A0008FF8A0008BC
:10010000FF8A0008C5840008FF8A0008FF8A0008EB
:10011000FF8A0008FF8A0008FF8A0008FF8A00089B
:10012000FF8A0008FF8A0008FF8A0008FF8A00088B
:10013000FF8A0008FF8A0008FF8A0008FF8A00087B
:10014000FF8A0008FF8A0008FF8A0008FF8A00086B
:10015000FF8A0008FF8A0008FF8A0008FF8A00085B
:10016000FF8A0008FF8A0008FF8A0008FF8A00084B
:10017000FF8A0008FF8A0008FF8A0008FF8A00083B
:10018000FF8A0008FF8A000800F002F800F061F81A
:100190000AA090E8000C82448344AAF10107DA45E2
:1001A00001D100F056F8AFF2090EBAE80F0013F0D3
:1001B000010F18BFFB1A43F001031847840D02001A
:1001C000A40D02000A444FF0000C10F8013B13F09C
:1001D000070408BF10F8014B1D1108BF10F8015BA0
:1001E000641E05D010F8016B641E01F8016BF9D193
:1001F00013F0080F1EBF10F8014BAD1C0C1B09D1EA
:100200006D1E58BF01F801CBFAD505E014F8016B5B
:1002100001F8016B6D1EF9D59142D6D370470000ED
:100220000023002400250026103A28BF78C1FBD8FF
:10023000520728BF30C148BF0B607047782912F0C1
:100240006F86002070471FB51BF06FFD1FBD10B5F6
:1002500010BD13F083F91146FFF7F5FF00F061F8C8
:1002600013F0A1F903B4FFF7F2FF03BC0BF034FA6B
:1002700040BA7047C0BA704730BF72B6704762B6B6
:10028000704780F30888704770470FE03F48006868
:1002900008B9012000E000203C4908604FF4FA73DF
:1002A0004FF00002114610460EF09AFFEEE707E00D
:1002B00014F0F6FE05230022114610460EF090FFC2
:1002C000F6E701E012F055FDFCE770B505460121A7
:1002D000080309F0ABFA14F029F8042017F032FAF9
:1002E0000CF0CAFE0FF008F904460423284A002146
:1002F000AFF231000EF0F7FB0223264A0021AFF2E5
:1003000051000EF0F0FB0323234A0021AFF28500D9
:100310000EF0E9FBFF200EF06AFE20460FF0F0F829
:1003200070BD10B5A8200BF05BF94FF4A06008F089
:10033000F9FB4FF4E1300BF0DCF900F0CFFE06F0F2
:1003400052FA08F026FA00F043F900200BF087FA81
:1003500002200BF084FA0FF033F9104901220868EB
:100360000FA110F035FE0D49012248680DA110F0D3
:100370002FFE0CF044FD00230B4A1946AFF2B500E6
:100380000EF0B1FB0CF060FE002010BD9802404260
:1003900028290020280800202809002050020020D9
:1003A000303A0000313A000028060020704700BFB4
:1003B000FEE700BFFEE700BFFEE700BFFEE77047B5
:1003C000704700000CB5002001900090754800684F
:1003D00040F480307349086000BF7248006800F440
:1003E000003000900198401C0190009818B90198C5
:1003F000B0F5A04FF1D16B48006810F4003F02D077
:100400000120009001E0002000900098012845D1D3
:1004100064484030006840F08050624940310860D4
:100420006148006840F440405F4908605D4808301A
:1004300000685C49083108600846006840F40040E4
:1004400008600846006840F4A05008605748091F3B
:100450000860081F006840F08070091F086000BF36
:100460005048006810F0007FFAD040F20570504903
:1004700008604C480830006820F003004949083102
:1004800008600846006840F00200086000BF454868
:100490000830006800F00C000828F8D10CBD10B539
:1004A0004448006840F47000424908603D480068D4
:1004B00040F001003B49086000203A4908310860DB
:1004C000384800683C490840364908603B48091DE7
:1004D0000860081F006820F48020091F08600020C1
:1004E00030490C310860FFF76DFF4FF00060314973
:1004F0008039086010BD70B500200022022300245E
:100500000221284D08352D6805F00C0020B1042883
:1005100006D0082834D107E0294D2A4E356033E053
:10052000294D284E35602FE01E4D2D1D2D68C5F339
:1005300080541C4D2D1D2D6805F03F0154B1224DF6
:10054000B5FBF1F5174E361D3668C6F3881605FB68
:1005500006F209E01A4DB5FBF1F5124E361D36686C
:10056000C6F3881605FB06F20E4D2D1D2D68C5F34A
:1005700001456D1C6B00B2FBF3F5124E356003E0D4
:100580000F4D104E356000BF00BF064D08352D6879
:10059000C5F303150D4E705D0A4D2D68C540094E1B
:1005A000356070BD003802400070004008544007BC
:1005B000003C024088ED00E0FFFFF6FE1030002412
:1005C0000024F4000000002000127A000400002043
:1005D0001CB50121084609F029F9C020009001202E
:1005E0008DF8040000208DF806008DF80700032028
:1005F0008DF805006946044808F07AFEC0210348DA
:1006000008F0F2FE1CBD0000000002400014024091
:1006100001B5BDF800000090BDF80000FE4908805B
:1006200008BD01B5BDF800000090BDF80000FA4912
:10063000891C088008BD08B5F748801C0088009018
:10064000BDF8000008BD03B5BDF80000F24A1080F7
:10065000901C01800CBD01B5BDF80000FFF7D8FF6C
:1006600005200AF0E3FFFFF7E6FF08BDEB4800892D
:10067000E9490880704730B5014601F01F04C1F315
:100680004513CA0AE50205EB43151544A8B230BD6F
:1006900000BF0100A0F10102D0B2FAD1704730B51D
:1006A00004460D46DD488088A0F51341413905D048
:1006B000DA488088A0F5A641103914D1D749488975
:1006C000FFF7A6FF2012FFF7ACFFE0B2FFF7A9FF8C
:1006D000D2498889FFF79CFF2812FFF7A2FFE8B2F2
:1006E000FFF79FFF5DE0CD488088A0F5D041043939
:1006F0001DD1CA488079012804D1C8480088401E0D
:10070000001B84B2C5494889FFF782FF2012FFF71A
:1007100088FFE0B2FFF785FFC0498889FFF778FFBF
:100720002812FFF77EFFE8B2FFF77BFF39E0BB48F6
:100730008088A0F5AA41103920D1B8494889FFF72F
:1007400067FF2012FFF76DFFB4494989491C88B241
:10075000FFF75EFFE0B2FFF764FFB0498889FFF75B
:1007600057FF2812FFF75DFFAC498989491C88B201
:10077000FFF74EFFE8B2FFF754FF12E0A748807979
:10078000012804D1A5480088401E001B84B2A3495B
:1007900048892146FFF757FFA04988892946FFF776
:1007A00052FF30BD2DE9F04105460E4600240027DA
:1007B000A0469A480088A84203DD98484088B04285
:1007C00002DC0020BDE8F08131462846FFF767FFD4
:1007D00092488088A0F5134141390BD08F4880881A
:1007E000A0F5D041043905D08C488088A0F5A641F9
:1007F000103903D12E20FFF70BFF0DE087488088CA
:10080000A0F5AA41103904D14FF43850FFF700FF8A
:1008100002E02220FFF7FCFE80488088A0F513410B
:10082000203902D10220FFF733FF7B48801C00886B
:1008300000B100240220FFF72BFF7748801C0488BA
:1008400076488088A0F5134141390BD073488088E1
:10085000A0F5A641103905D070488088A0F5AA41BE
:1008600010390BD10220FFF713FF6B48801CB0F842
:100870000080E7B24FF6FF7000EA072767488088DC
:10088000A0F51341253917D064488088A0F58A4126
:10089000353911D061488088A0F58A4131390BD0B3
:1008A0005E488088A0F53541053905D05B488088D1
:1008B000A0F54541053901D1204683E75748808896
:1008C000A0F5134141390BD054488088A0F5A641CA
:1008D000103905D051488088A0F5AA41103907D1B8
:1008E000E012C002B91240EA411040EAE82069E78C
:1008F0002046FFF7C0FE65E700B548488088A0F5B0
:10090000134141390BD045488088A0F5D0410439C6
:1009100005D042488088A0F5A641103903D129208E
:10092000FFF776FE0FE03D488088A0F5AA41103918
:1009300004D14FF42450FFF76BFE04E040F2731132
:100940000720FFF780FE00BD00B534488088A0F581
:10095000134141390BD031488088A0F5D04104398A
:1009600005D02E488088A0F5A641103903D1282053
:10097000FFF74EFE0EE029488088A0F5AA41103905
:1009800004D14FF42050FFF743FE03E0002107207D
:10099000FFF759FE00BDF0B50546002400271F48AB
:1009A000807901281ED11D488088A0F5D0410439E6
:1009B00018D0082D15D2DFE805F00406080A0C0E41
:1009C000101206250DE007250BE0042509E005259A
:1009D00007E0012505E0002503E0032501E00225ED
:1009E00000BF00BF0D488088A0F51341413911D0E8
:1009F0000A488088A0F5D04104390BD00748808888
:100A0000A0F5A641103905D004488088A0F5AA4178
:100A100010397CD1082D03E0FEFF07602C2900204F
:100A20001CD2DFE805F00406090C0F12151800BFF0
:100A300014E044F0800411E044F040040EE044F07F
:100A4000C0040BE044F0200408E044F0600405E03A
:100A500044F0A00402E044F0E00400BF00BFFE4800
:100A60008088A0F5AA41103902D14FF4585700E010
:100A70003627F9488088A0F5A641103907D0F648F6
:100A80008088A0F5AA41103901D044F00804F2484A
:100A90008088A0F5D041043901D144F002042146F8
:100AA0003846FFF7D0FD14F0200F03D1EA488079D3
:100AB00001280DD1E8480088E7494988884214DABE
:100AC000E54806884088E4490880084646800CE0EE
:100AD000E1480088E0494988884206DDDE4806880A
:100AE0004088DD49088008464680DB488088A0F5BC
:100AF000AA41103954D1D8494889FFF789FD00200F
:100B0000FFF78FFDD4494989491C88B200E076E09F
:100B1000FFF77EFD0020FFF784FDCF494989891C3E
:100B200088B2FFF775FDCC490988491EC1F30F2033
:100B3000FFF777FDC8494989C91C88B2FFF768FDEE
:100B4000C5490978491EC8B2FFF76BFDC2498889BB
:100B5000FFF75EFD0020FFF764FDBF498989491C4E
:100B600088B2FFF755FD0020FFF75BFDBA49898980
:100B7000891C88B2FFF74CFDB7494988491EC1F36B
:100B80000F20FFF74EFDB4498989C91C88B2FFF7D1
:100B90003FFDB1498978491EC8B2FFF742FD55E0D3
:100BA000AD494889FFF734FD0020FFF73AFD0020EA
:100BB000FFF737FDA8490988491EC1F30F20FFF749
:100BC00030FDA5490978491EC8B2FFF72AFDA249A0
:100BD0008889FFF71DFD0020FFF723FD0020FFF7A8
:100BE00020FD9D494988491EC1F30F20FFF719FDDB
:100BF00099498978491EC8B2FFF713FD26E0082DF0
:100C00001CD2DFE805F004070A0D0F12151844F096
:100C1000300413E044F0100410E044F020040DE030
:100C200000BF0BE044F0380408E044F0280405E07D
:100C300044F0180402E044F0080400BF00BF03279A
:100C400044F4805421463846FFF7FDFCF0BD30B532
:100C500004460D4629462046FFF721FDFFF706FD15
:100C60007E4800887E49088030BD70B504460D4638
:100C7000164679488088A0F51341413905D0764859
:100C80008088A0F5A641103914D173494889FFF72F
:100C9000BFFC2012FFF7C5FCE0B2FFF7C2FC6E49B3
:100CA0008889FFF7B5FC2812FFF7BBFCE8B2FFF715
:100CB000B8FC5DE068488088A0F5AA41103920D1D1
:100CC00065494889FFF7A4FC2012FFF7AAFC624996
:100CD0004989491C88B2FFF79BFCE0B2FFF7A1FCF1
:100CE0005D498889FFF794FC2812FFF79AFC5A495E
:100CF0008989491C88B2FFF78BFCE8B2FFF791FCA9
:100D000036E055488088A0F5D04104391DD15248BD
:100D10008079012804D150480088401E001B84B20D
:100D20004D494889FFF774FC2012FFF77AFCE0B2C6
:100D3000FFF777FC48498889FFF76AFC2812FFF71C
:100D400070FCE8B2FFF76DFC12E04348807901289F
:100D500004D141480088401E001B84B23E494889A6
:100D60002146FFF770FC3C4988892946FFF76BFC58
:100D7000394800893A49891E0880881C068070BD60
:100D800010B50446002C52D133498871F0200880F8
:100D90004FF4A070488008468088A0F5134141397F
:100DA0000BD02D488088A0F5D041043905D02A48C1
:100DB0008088A0F5A64110391AD12C202649088137
:100DC0002A2048812B20888108468088A0F5D041C0
:100DD000043905D020488088A0F5A641103906D1F5
:100DE0004FF4A0701C4908804FF4F070488080E0F8
:100DF00019488088A0F5AA41103910D14FF430501D
:100E0000154908814FF4285048814FF42C508881AF
:100E10004FF4F07008804FF44870488069E0222059
:100E20000D490881202048812120888161E001202E
:100E3000094988714FF4A0700880F0204880084666
:100E40008088A0F51341413905D003488088A0F57A
:100E5000A64110390ED105E02C29002014000020F5
:100E6000000008602C20FE4908812A2048812B20A0
:100E700088812BE0FA488088A0F5D041043907D159
:100E80002C20F74908812B2048812A2088811DE0E9
:100E9000F3488088A0F5AA41103910D14FF43050A2
:100EA000EF4908814FF4285048814FF42C50888135
:100EB0004FF4487008804FF4F070488006E022201C
:100EC000E74908812120488120208881E4488088E2
:100ED000A0F5D041043905D0E1488088A0F5A641AD
:100EE000103906D14FF4F070DD4908804FF4A0703E
:100EF00048800020FFF74FFD10BD2DE9FF4F04464D
:100F00000D4616461F46A019401E86B2E819401E1F
:100F100087B2D3488088A0F5134141390BD0D0481F
:100F20008088A0F5A641103905D0CD488088A0F56D
:100F3000D041043920D1CA494889FFF769FB201202
:100F4000FFF76FFBE0B2FFF76CFB3012FFF769FBB6
:100F5000F0B2FFF766FBC2498889FFF759FB2812F8
:100F6000FFF75FFBE8B2FFF75CFB3812FFF759FBB6
:100F7000F8B2FFF756FB7DE0B9488088A0F5AA419A
:100F8000103944D1B6494889FFF742FB2012FFF7D8
:100F900048FBB3494989491C88B2FFF739FBE0B2E5
:100FA000FFF73FFBAE494989891C88B2FFF730FB48
:100FB0003012FFF736FBAA494989C91C88B2FFF7EE
:100FC00027FBF0B2FFF72DFBA5498889FFF720FB2F
:100FD0002812FFF726FBA2498989491C88B2FFF72E
:100FE00017FBE8B2FFF71DFB9D498989891C88B270
:100FF000FFF70EFB3812FFF714FB99498989C91CCA
:1010000088B2FFF705FBF8B2FFF70BFB32E094481C
:10101000807901280ED1A846B94691480088801BE6
:10102000401E1FFA80FA8E480088001B401E1FFADF
:1010300080FB03E0A046B146AA46BB465020039081
:101040005120029052200190532000904146039875
:10105000FFF7F9FA49460298FFF7F5FA5146019869
:10106000FFF7F1FA59460098FFF7EDFA29462046B6
:10107000FFF715FBBDE8FF8F70B5044600267848E2
:1010800005884088454376488088A0F5D0410439DA
:1010900016D173488079012812D1002070498871D7
:1010A0002A2048812B20888100210846FFF7F7FA83
:1010B00001206B4988712B2048812A20888103E018
:1010C00000210846FFF7EBFAFFF7D0FA002602E00E
:1010D00064480480761CAE42FAD370BD00B5A1B05E
:1010E0000020209001217A2008F0A0FB0121084671
:1010F00008F0D4FB02201E9001208DF87C00002017
:101100008DF87E0002208DF87D0001208DF87F0093
:101110001EA9554808F0ECF84EF2B3701E9002205C
:101120008DF87C0000208DF87E0003208DF87D0076
:1011300001208DF87F001EA94C4808F0D9F84FF621
:1011400080701E9002208DF87C0000208DF87E00BB
:1011500003208DF87D0001208DF87F001EA94448F2
:1011600008F0C6F80C220021404808F04CF90C2287
:1011700001213E4808F047F90C2204213B4808F0C1
:1011800042F90C220521394808F03DF90C220721CB
:10119000364808F038F90C220821344808F033F9B1
:1011A0000C220921314808F02EF90C220A212F487F
:1011B00008F029F90C220D212C4808F024F90C2202
:1011C0000E212A4808F01FF90C220F21274808F0A9
:1011D0001AF90C220721264808F015F90C220821DB
:1011E000234808F010F90C220921214808F00BF9D6
:1011F0000C220A211E4808F006F90C220B211C487B
:1012000008F001F90C221146194808F0FCF80C22EC
:101210000D21174808F0F7F80C220E21144808F0A9
:10122000F2F80C220F21124808F0EDF80F20089078
:101230000020099018200A9000200B900C900D902F
:101240000E900820019000200290082003900020BA
:10125000049005900690079006200F90002009E06A
:101260002C2900200000086000040240000C02400D
:101270000010024010901190102012900020139046
:1012800014901590169017904FF4805018900020ED
:1012900019904FF480401A9000201B9008A81C90D1
:1012A00001A81D900FA807F0CBFC0121062007F034
:1012B0004FFD32200AF0E5F901210020FFF7C3F9C4
:1012C00032200AF0DEF90020FFF7C5F9FE498880D8
:1012D00008468088FF280ADB08468088A0F57F4101
:1012E000FF3904D0F8488088B0F5134F7ED1D32061
:1012F000FFF78EF9FFF79FF9F3498880FFF79BF915
:10130000F1498880FFF797F9EF498880084680887F
:101310004FF6FF7101EA0020EB498880FFF78BF957
:10132000E94989880843E849888008468088A0F50B
:101330001341413978D0BF20FFF76AF9FFF77BF9F5
:10134000E1498880FFF777F9DF498880FFF773F973
:10135000DD498880FFF76FF9DB498880084680887F
:101360004FF6FF7101EA0020D7498880FFF763F943
:10137000D54989880843D449888008468088A0F5E3
:10138000D041043950D0D420FFF742F9FFF753F988
:10139000CD498880FFF74FF9CB498880FFF74BF99B
:1013A000C9498880084680884FF6FF7101EA00200D
:1013B000C5498880FFF73FF9C34989880843C24976
:1013C000888008468088A0F5A64110392CD04FF4BB
:1013D0005A40FFF71DF9FFF72EF9BB4988804FF4FB
:1013E0005B40FFF715F9FFF726F900E01CE0B6496E
:1013F0008880084680884FF6FF7101EA0020B249D4
:1014000088804FF45C40FFF703F9FFF714F9AE4909
:1014100089880843AC49888008468088B0F5004F29
:1014200002D145F210508880A7488088A0F513416A
:1014300041390BD0A4488088A0F5A641103905D0C9
:10144000A1488088A0F5AA41103908D10320019055
:10145000022003900121062007F07AFC13E09A484D
:101460008088A0F5D041043905D097488088A0F540
:101470004541053907D10A2001900C200390012134
:10148000062007F065FC9048818890A011F008FDC7
:101490008D488088A0F5134141397CD1CF20FFF7DA
:1014A000B7F80020FFF7BDF82098401C2090C1201D
:1014B000FFF7B7F83020FFF7B4F8ED20FFF7A8F8F2
:1014C0006420FFF7AEF80320FFF7ABF81220FFF718
:1014D000A8F88120FFF7A5F8E820FFF799F8852004
:1014E000FFF79FF81020FFF79CF87A20FFF799F894
:1014F000CB20FFF78DF83920FFF793F82C20FFF76A
:1015000090F80020FFF78DF83420FFF78AF80220CA
:10151000FFF787F8F720FFF77BF82020FFF781F827
:10152000EA20FFF775F80020FFF77BF80020FFF7AF
:1015300078F8C020FFF76CF81B20FFF772F8C12085
:10154000FFF766F80120FFF76CF8C520FFF760F899
:101550003020FFF766F83020FFF763F8C720FFF769
:1015600057F8B720FFF75DF83620FFF751F848200D
:10157000FFF757F83A20FFF74BF85520FFF751F8DF
:10158000B120FFF745F80020FFF74BF81A20FFF7CE
:1015900048F8B62000E0A6E0FFF73AF80A20FFF787
:1015A00040F8A220FFF73DF8F220FFF731F80020C5
:1015B000FFF737F82620FFF72BF80120FFF731F867
:1015C000E020FFF725F80F20FFF72BF82A20FFF780
:1015D00028F82820FFF725F80820FFF722F80E202A
:1015E000FFF71FF80820FFF71CF85420FFF719F841
:1015F000A920FFF716F84320FFF713F80A20FFF79A
:1016000010F80F20FFF70DF80020FFF70AF8002070
:10161000FFF707F80020FFF704F80020FFF701F8B4
:10162000E120FEF7F5FF0020FEF7FBFF1520FEF797
:10163000F8FF1720FEF7F5FF0720FEF7F2FF112055
:10164000FEF7EFFF0620FEF7ECFF2B20FEF7E9FF89
:101650005620FEF7E6FF3C20FEF7E3FF0520FEF7ED
:10166000E0FF1020FEF7DDFF0F20FEF7DAFF3F203E
:10167000FEF7D7FF3F20FEF7D4FF0F20FEF7D1FF84
:101680002B20FEF7C5FF0020FEF7CBFF0020FEF762
:10169000C8FF0120FEF7C5FF3F20FEF7C2FF2A204A
:1016A000FEF7B6FF0020FEF7BCFF0020FEF7B9FFF3
:1016B0000020FEF7B6FFEF20FEF7B3FF1120FEF784
:1016C000A7FF782008E000002C2900204C4344208C
:1016D00049443A25780D0A0009F0D3FF2920FEF786
:1016E00097FF03F058B8FE488088A0F5D041043930
:1016F0007ED11120FEF78CFF142009F0C2FFD0200C
:10170000FEF786FF0720FEF78CFF4220FEF789FFD9
:101710001D20FEF786FFD120FEF77AFF0020FEF79E
:1017200080FF1A20FEF77DFF0920FEF77AFFD22006
:10173000FEF76EFF0120FEF774FF2220FEF771FF17
:10174000C020FEF765FF1020FEF76BFF3B20FEF781
:1017500068FF0020FEF765FF0220FEF762FF112000
:10176000FEF75FFFC520FEF753FF0320FEF759FF8A
:10177000C820FEF74DFF0020FEF753FF2520FEF79F
:1017800050FF2120FEF74DFF0520FEF74AFF002005
:10179000FEF747FF0A20FEF744FF6520FEF741FFF2
:1017A0002520FEF73EFF7720FEF73BFF5020FEF797
:1017B00038FF0F20FEF735FF0020FEF732FFF8203C
:1017C000FEF726FF0120FEF72CFFFE20FEF720FF8C
:1017D0000020FEF726FF0220FEF723FF2020FEF761
:1017E00017FF3620FEF714FF0820FEF71AFF00E06F
:1017F0002AE03A20FEF70CFF5520FEF712FF2B20BF
:10180000FEF706FF0020FEF70CFF0020FEF709FFA1
:101810000120FEF706FF3F20FEF703FF2A20FEF718
:10182000F7FE0020FEF7FDFE0020FEF7FAFE012085
:10183000FEF7F7FEDF20FEF7F4FE782009F021FF27
:101840002920FEF7E5FE4CE7A5488088A0F5A641D3
:10185000103940F07C87ED20FEF7DAFE0120FEF71C
:10186000E0FEFE20FEF7DDFEEE20FEF7D1FEDE20DC
:10187000FEF7D7FE2120FEF7D4FEF120FEF7C8FECA
:101880000120FEF7CEFEDF20FEF7C2FE1020FEF79D
:10189000C8FEC420FEF7BCFE8F20FEF7C2FEC620A5
:1018A000FEF7B6FE0020FEF7BCFEE220FEF7B9FE12
:1018B000E220FEF7B6FEE220FEF7B3FEBF20FEF701
:1018C000A7FEAA20FEF7ADFEB020FEF7A1FE0D2078
:1018D000FEF7A7FE0020FEF7A4FE0D20FEF7A1FEF6
:1018E0000020FEF79EFE1120FEF79BFE0020FEF773
:1018F00098FE1920FEF795FE0020FEF792FE2120AB
:10190000FEF78FFE0020FEF78CFE2D20FEF789FEED
:101910000020FEF786FE3D20FEF783FE0020FEF746
:1019200080FE5D20FEF77DFE0020FEF77AFE5D2042
:10193000FEF777FE0020FEF774FEB120FEF768FE8A
:101940008020FEF76EFE0020FEF76BFE8B20FEF778
:1019500068FE0020FEF765FE9620FEF762FE00207E
:10196000FEF75FFEB220FEF753FE0020FEF759FEA1
:101970000020FEF756FE0220FEF753FE0020FEF781
:1019800050FE0320FEF74DFE0020FEF74AFEB32076
:10199000FEF73EFE0020FEF744FE0020FEF741FE6B
:1019A0000020FEF73EFE0020FEF73BFE0020FEF783
:1019B00038FE0020FEF735FE0020FEF732FE002044
:1019C000FEF72FFE0020FEF72CFE0020FEF729FE7A
:1019D0000020FEF726FE0020FEF723FE0020FEF783
:1019E00020FE0020FEF71DFE0020FEF71AFE00205C
:1019F000FEF717FE0020FEF714FE0020FEF711FE92
:101A00000020FEF70EFE0020FEF70BFE0020FEF782
:101A100008FE0020FEF705FE0020FEF702FE002073
:101A2000FEF7FFFDB420FEF7F3FD8B20FEF7F9FD76
:101A30000020FEF7F6FD9620FEF7F3FD0020FEF7EE
:101A4000F0FDA120FEF7EDFD0020FEF7EAFDB52038
:101A5000FEF7DEFD0220FEF7E4FD0020FEF7E1FDCB
:101A60000320FEF7DEFD0020FEF7DBFD0420FEF77D
:101A7000D8FD0020FEF7D5FDB620FEF7C9FD0020F9
:101A8000FEF7CFFD0020FEF7CCFDB720FEF7C0FD2E
:101A90000020FEF7C6FD0020FEF7C3FD3F20FEF745
:101AA000C0FD0020FEF7BDFD5E20FEF7BAFD002060
:101AB000FEF7B7FD6420FEF7B4FD0020FEF7B1FD90
:101AC0008C20FEF7AEFD0020FEF7ABFDAC20FEF74C
:101AD000A8FD0020FEF7A5FDDC20FEF7A2FD01E039
:101AE0002C2900200020FEF79CFD7020FEF799FDB8
:101AF0000020FEF796FD9020FEF793FD0020FEF7F4
:101B000090FDEB20FEF78DFD0020FEF78AFDDC2026
:101B1000FEF787FD0020FEF784FDB820FEF778FD74
:101B20000020FEF77EFD0020FEF77BFD0020FEF783
:101B300078FD0020FEF775FD0020FEF772FD002005
:101B4000FEF76FFD0020FEF76CFD0020FEF769FD3B
:101B5000BA20FEF75DFD2420FEF763FD0020FEF7AE
:101B600060FD0020FEF75DFD0020FEF75AFDC1205C
:101B7000FEF74EFD2020FEF754FD0020FEF751FD3C
:101B80005420FEF74EFD0020FEF74BFDFF20FEF730
:101B900048FD0020FEF745FDC220FEF739FD0A2072
:101BA000FEF73FFD0020FEF73CFD0420FEF739FD67
:101BB0000020FEF736FDC320FEF72AFD3C20FEF78D
:101BC00030FD0020FEF72DFD3A20FEF72AFD002013
:101BD000FEF727FD3920FEF724FD0020FEF721FD4A
:101BE0003720FEF71EFD0020FEF71BFD3C20FEF710
:101BF00018FD0020FEF715FD3620FEF712FD00202F
:101C0000FEF70FFD3220FEF70CFD0020FEF709FD68
:101C10002F20FEF706FD0020FEF703FD2C20FEF727
:101C200000FD0020FEF7FDFC2920FEF7FAFC002055
:101C3000FEF7F7FC2620FEF7F4FC0020FEF7F1FC8F
:101C40002420FEF7EEFC0020FEF7EBFC2420FEF73C
:101C5000E8FC0020FEF7E5FC2320FEF7E2FC002074
:101C6000FEF7DFFC3C20FEF7DCFC0020FEF7D9FC91
:101C70003620FEF7D6FC0020FEF7D3FC3220FEF71C
:101C8000D0FC0020FEF7CDFC2F20FEF7CAFC002080
:101C9000FEF7C7FC2C20FEF7C4FC0020FEF7C1FCB9
:101CA0002920FEF7BEFC0020FEF7BBFC2620FEF735
:101CB000B8FC0020FEF7B5FC2420FEF7B2FC0020A3
:101CC000FEF7AFFC2420FEF7ACFC0020FEF7A9FCD9
:101CD0002320FEF7A6FC0020FEF7A3FCC420FEF79D
:101CE00097FC6220FEF79DFC0020FEF79AFC052081
:101CF000FEF797FC0020FEF794FC8420FEF791FC91
:101D00000020FEF78EFCF020FEF78BFC0020FEF793
:101D100088FC1820FEF785FC0020FEF782FCA4203A
:101D2000FEF77FFC0020FEF77CFC1820FEF779FC14
:101D30000020FEF776FC5020FEF773FC0020FEF733
:101D400070FC0C20FEF76DFC0020FEF76AFC1720EB
:101D5000FEF767FC0020FEF764FC9520FEF761FCAF
:101D60000020FEF75EFCF320FEF75BFC0020FEF790
:101D700058FCE620FEF755FC0020FEF752FCC5207B
:101D8000FEF746FC3220FEF74CFC0020FEF749FC33
:101D90004420FEF746FC0020FEF743FC6520FEF7DA
:101DA00040FC0020FEF73DFC7620FEF73AFC0020C8
:101DB000FEF737FC8820FEF734FC0020FEF731FCEC
:101DC000C620FEF725FC2020FEF72BFC0020FEF7A6
:101DD00028FC1720FEF725FC0020FEF722FC01203E
:101DE000FEF71FFC0020FEF71CFCC720FEF710FCCE
:101DF0000020FEF716FC0020FEF713FC0020FEF783
:101E000010FC0020FEF70DFCC820FEF701FC0020AE
:101E1000FEF707FC0020FEF704FC0020FEF701FCA3
:101E20000020FEF7FEFBC920FEF7F2FB0020FEF7C4
:101E3000F8FB0020FEF7F5FB0020FEF7F2FB002088
:101E4000FEF7EFFB0020FEF7ECFB0020FEF7E9FBBE
:101E50000020FEF7E6FB0020FEF7E3FB0020FEF784
:101E6000E0FB0020FEF7DDFB0020FEF7DAFB0020A0
:101E7000FEF7D7FB0020FEF7D4FB0020FEF7D1FBD6
:101E80000020FEF7CEFB0020FEF7CBFBE020FEF7A4
:101E9000BFFB1620FEF7C5FB0020FEF7C2FB1C208F
:101EA000FEF7BFFB0020FEF7BCFB2120FEF7B9FBCD
:101EB0000020FEF7B6FB3620FEF7B3FB0020FEF74E
:101EC000B0FB4620FEF7ADFB0020FEF7AAFB522038
:101ED000FEF7A7FB0020FEF7A4FB6420FEF7A1FBA2
:101EE0000020FEF79EFB7A20FEF79BFB0020FEF70A
:101EF00098FB8B20FEF795FB0020FEF792FB9920C4
:101F0000FEF78FFB0020FEF78CFBA820FEF789FB75
:101F10000020FEF786FBB920FEF783FB0020FEF7CA
:101F200080FBC420FEF77DFB0020FEF77AFBCA2071
:101F3000FEF777FB0020FEF774FBD220FEF771FB63
:101F40000020FEF76EFBD920FEF76BFB0020FEF7AA
:101F500068FBE020FEF765FB0020FEF762FBF32044
:101F6000FEF75FFB0020FEF75CFBE120FEF750FB75
:101F70001620FEF756FB0020FEF753FB1C20FEF751
:101F800050FB0020FEF74DFB2220FEF74AFB00200D
:101F9000FEF747FB3620FEF744FB0020FEF741FB2F
:101FA0004520FEF73EFB0020FEF73BFB5220FEF7EC
:101FB00038FB0020FEF735FB6420FEF732FB0020E3
:101FC000FEF72FFB7A20FEF72CFB0020FEF729FB03
:101FD0008B20FEF726FB0020FEF723FB9920FEF75F
:101FE00020FB0020FEF71DFBA820FEF71AFB0020B7
:101FF000FEF717FBB920FEF714FB0020FEF711FBDC
:10200000C420FEF70EFB0020FEF70BFBCA20FEF7F4
:1020100008FB0020FEF705FBD220FEF702FB0020A4
:10202000FEF7FFFAD820FEF7FCFA0020FEF7F9FAD7
:10203000E020FEF7F6FA0020FEF7F3FAF320FEF7B1
:10204000F0FA0020FEF7EDFAE220FEF7E1FA0520B3
:10205000FEF7E7FA0020FEF7E4FA0B20FEF7E1FABC
:102060000020FEF7DEFA1B20FEF7DBFA0020FEF769
:10207000D8FA3420FEF7D5FA0020FEF7D2FA442031
:10208000FEF7CFFA0020FEF7CCFA4F20FEF7C9FA90
:102090000020FEF7C6FA6120FEF7C3FA0020FEF723
:1020A000C0FA7920FEF7BDFA0020FEF7BAFA8820C0
:1020B000FEF7B7FA0020FEF7B4FA9720FEF7B1FA60
:1020C0000020FEF7AEFAA620FEF7ABFA0020FEF7DE
:1020D000A8FAB720FEF7A5FA0020FEF7A2FAC22060
:1020E000FEF79FFA0020FEF79CFAC720FEF799FA48
:1020F0000020FEF796FAD120FEF793FA0020FEF7B3
:1021000090FAD620FEF78DFA0020FEF78AFADD203D
:10211000FEF787FA0020FEF784FAF320FEF781FA33
:102120000020FEF77EFAE320FEF772FA0520FEF7A4
:1021300078FA0020FEF775FA0A20FEF772FA0020FE
:10214000FEF76FFA1C20FEF76CFA0020FEF769FA22
:102150003320FEF766FA0020FEF763FA4420FEF70C
:1021600060FA0020FEF75DFA5020FEF75AFA0020D0
:10217000FEF757FA6220FEF754FA0020FEF751FAF4
:102180007820FEF74EFA0020FEF74BFA8820FEF783
:1021900048FA0020FEF745FA9720FEF742FA0020A1
:1021A000FEF73FFAA620FEF73CFA0020FEF739FAC8
:1021B000B720FEF736FA0020FEF733FAC220FEF70A
:1021C00030FA0020FEF72DFAC720FEF72AFA002089
:1021D000FEF727FAD120FEF724FA0020FEF721FAB5
:1021E000D520FEF71EFA0020FEF71BFADD20FEF7D1
:1021F00018FA0020FEF715FAF320FEF712FA002075
:10220000FEF70FFAE420FEF703FA0120FEF709FAC1
:102210000020FEF706FA0120FEF703FA0020FEF781
:1022200000FA0220FEF7FDF90020FEF7FAF92A2055
:10223000FEF7F7F90020FEF7F4F93C20FEF7F1F97C
:102240000020FEF7EEF94B20FEF7EBF90020FEF739
:10225000E8F95D20FEF7E5F90020FEF7E2F97420C9
:10226000FEF7DFF90020FEF7DCF98420FEF7D9F94C
:102270000020FEF7D6F99320FEF7D3F90020FEF7F1
:10228000D0F9A220FEF7CDF90020FEF7CAF9B3205D
:10229000FEF7C7F90020FEF7C4F9BE20FEF7C1F92A
:1022A0000020FEF7BEF9C420FEF7BBF90020FEF7C0
:1022B000B8F9CD20FEF7B5F90020FEF7B2F9D3202A
:1022C000FEF7AFF90020FEF7ACF9DD20FEF7A9F923
:1022D0000020FEF7A6F9F320FEF7A3F90020FEF791
:1022E000A0F9E520FEF794F90020FEF79AF9002006
:1022F000FEF797F90020FEF794F90020FEF791F918
:102300000220FEF78EF90020FEF78BF92920FEF758
:1023100088F90020FEF785F93C20FEF782F90020BD
:10232000FEF77FF94B20FEF77CF90020FEF779F9E4
:102330005D20FEF776F90020FEF773F97420FEF7B2
:1023400070F90020FEF76DF98420FEF76AF900208D
:10235000FEF767F99320FEF764F90020FEF761F9B4
:10236000A220FEF75EF90020FEF75BF9B320FEF72E
:1023700058F90020FEF755F9BE20FEF752F900206B
:10238000FEF74FF9C420FEF74CF90020FEF749F99B
:10239000CD20FEF746F90020FEF743F9D320FEF7E3
:1023A00040F90020FEF73DF9DC20FEF73AF9002065
:1023B000FEF737F9F320FEF734F90020FEF731F984
:1023C000E620FEF725F91120FEF72BF90020FEF795
:1023D00028F93420FEF725F90020FEF722F95620CF
:1023E000FEF71FF90020FEF71CF97620FEF719F919
:1023F0000020FEF716F97720FEF713F90020FEF70C
:1024000010F96620FEF70DF90020FEF70AF9882082
:10241000FEF707F90020FEF704F99920FEF701F90D
:102420000020FEF7FEF8BB20FEF7FBF80020FEF7C9
:10243000F8F89920FEF7F5F80020FEF7F2F866208C
:10244000FEF7EFF80020FEF7ECF85520FEF7E9F86C
:102450000020FEF7E6F85520FEF7E3F80020FEF72F
:10246000E0F84520FEF7DDF80020FEF7DAF843201B
:10247000FEF7D7F80020FEF7D4F84420FEF7D1F895
:102480000020FEF7CEF8E720FEF7C2F83220FEF774
:10249000C8F80020FEF7C5F85520FEF7C2F8002066
:1024A000FEF7BFF87620FEF7BCF80020FEF7B9F87B
:1024B0006620FEF7B6F80020FEF7B3F86720FEF7B7
:1024C000B0F80020FEF7ADF86720FEF7AAF800206C
:1024D000FEF7A7F88720FEF7A4F80020FEF7A1F882
:1024E0009920FEF79EF80020FEF79BF8BB20FEF730
:1024F00098F80020FEF795F89920FEF792F8002052
:10250000FEF78FF87720FEF78CF80020FEF789F8A9
:102510004420FEF786F80020FEF783F85620FEF7E9
:1025200080F80020FEF77DF82320FEF77AF80020DF
:10253000FEF777F83320FEF774F80020FEF771F805
:102540004520FEF76EF80020FEF76BF8E820FEF756
:102550005FF80020FEF765F80020FEF762F899208A
:10256000FEF75FF80020FEF75CF88720FEF759F8C9
:102570000020FEF756F88820FEF753F80020FEF7FB
:1025800050F87720FEF74DF80020FEF74AF8662055
:10259000FEF747F80020FEF744F88820FEF741F8E0
:1025A0000020FEF73EF8AA20FEF73BF80020FEF7D9
:1025B00038F8BB20FEF735F80020FEF732F89920F6
:1025C000FEF72FF80020FEF72CF86620FEF729F81A
:1025D0000020FEF726F85520FEF723F80020FEF72E
:1025E00020F85520FEF71DF80020FEF71AF84420C9
:1025F000FEF717F80020FEF714F84420FEF711F854
:102600000020FEF70EF85520FEF70BF80020FEF72D
:1026100008F8E920FDF7FCFFAA20FEF702F80020E9
:10262000FDF7FFFF0020FDF7FCFF0020FDF7F9FF9D
:102630000020FDF7EDFFAA20FDF7F3FFCF20FDF707
:10264000E7FF0020FDF7EDFF0020FDF7EAFF002087
:10265000FDF7E7FF0020FDF7E4FF0020FDF7E1FFB5
:102660000020FDF7DEFF0020FDF7DBFF0020FDF777
:10267000D8FF0020FDF7D5FF0020FDF7D2FF002096
:10268000FDF7CFFF0020FDF7CCFF0020FDF7C9FFCD
:102690000020FDF7C6FF0020FDF7C3FF0020FDF777
:1026A000C0FF0020FDF7BDFFF020FDF7B1FF0020C7
:1026B000FDF7B7FF5020FDF7B4FF0020FDF7B1FF95
:1026C0000020FDF7AEFF0020FDF7ABFFF320FDF784
:1026D0009FFF0020FDF7A5FFF920FDF799FF0620D9
:1026E000FDF79FFF1020FDF79CFF2920FDF799FFC4
:1026F0000020FDF796FF3A20FDF78AFF5520FDF7F1
:1027000090FF1120FDF784FF642008F0BAFF292014
:10271000FDF77EFF3520FDF77BFF0020FDF781FFF1
:102720005120FDF775FFFF20FDF77BFF5320FDF7DC
:102730006FFF2C20FDF775FF5520FDF769FF822004
:10274000FDF76FFF2C20FDF763FF02F024B8FE4871
:102750008088A0F5AA4110397ED155214FF47040F0
:10276000FDF771FFAA214FF20100FDF76CFF522126
:102770004FF20200FDF767FF08214FF20300FDF75B
:1027800062FF01214FF20400FDF75DFF0D214FF4C0
:102790003040FDF758FF0D214BF20100FDF753FFCC
:1027A0000D214BF20200FDF74EFF34214FF436406D
:1027B000FDF749FF34214BF20160FDF744FF34215E
:1027C0004BF20260FDF73FFF0D214FF43140FDF762
:1027D0003AFF0D214BF20110FDF735FF0D214BF2B1
:1027E0000210FDF730FF34214FF43740FDF72BFF87
:1027F00034214BF20170FDF726FF34214BF20270B9
:10280000FDF721FF00214FF43240FDF71CFF0021AE
:102810004BF20120FDF717FF00214BF20220FDF7DC
:1028200012FF24214FF43840FDF70DFF24214BF611
:102830000100FDF708FF24214BF60200FDF703FF1E
:1028400001214FF43F40FDF7FEFE0F214FF43340CE
:10285000FDF7F9FE0F2100E0FEE34BF20130FDF73A
:10286000F2FE0F214BF20230FDF7EDFE34214FF462
:102870003940FDF7E8FE34214BF60110FDF7E3FE89
:1028800034214BF60210FDF7DEFE08214FF43540EF
:10289000FDF7D9FE08214BF20150FDF7D4FE0821C7
:1028A0004BF20250FDF7CFFE03214FF44240FDF7FB
:1028B000CAFE24214FF43A40FDF7C5FE24214BF611
:1028C0000120FDF7C0FE24214BF60220FDF7BBFEE0
:1028D00000214FF43C40FDF7B6FE78214BF6014055
:1028E000FDF7B1FE00214BF60240FDF7ACFE0021E2
:1028F0004FF43D40FDF7A7FE78214BF60150FDF760
:10290000A2FE00214BF60250FDF79DFE00214FF480
:102910003E40FDF798FE64214BF60160FDF793FE03
:1029200000214FF45140FDF78EFE33214DF201108E
:10293000FDF789FE00214DF20210FDF784FE3421DF
:102940004DF20310FDF77FFE00214DF20410FDF75C
:102950007AFE3A214DF20510FDF775FE00214DF289
:102960000610FDF770FE4A214DF20710FDF76BFED1
:1029700000214DF20810FDF766FE5C214DF20910B2
:10298000FDF761FE00214DF20A10FDF75CFE81218A
:102990004DF20B10FDF757FE00214DF20C10FDF724
:1029A00052FEA6214DF20D10FDF74DFE00214DF215
:1029B0000E10FDF748FEE5214DF20F10FDF743FE26
:1029C00001214DF21010FDF73EFE13214DF21110C2
:1029D000FDF739FE01214DF21210FDF734FE5421AE
:1029E0004DF21310FDF72FFE01214DF21410FDF7EB
:1029F0002AFE82214DF21510FDF725FE01214DF230
:102A00001610FDF720FECA214DF21710FDF71BFE30
:102A100002214DF21810FDF716FE00214DF219109B
:102A2000FDF711FE02214DF21A10FDF70CFE0121F7
:102A30004DF21B10FDF707FE02214DF21C10FDF7B1
:102A400002FE34214DF21D10FDF7FDFD02214DF275
:102A50001E10FDF7F8FD67214DF21F10FDF7F3FD85
:102A600002214DF22010FDF7EEFD84214DF22110E0
:102A7000FDF7E9FD02214DF22210FDF7E4FDA4214E
:102A80004DF22310FDF7DFFD02214DF22410FDF77A
:102A9000DAFDB7214DF22510FDF7D5FD02214DF2EB
:102AA0002610FDF7D0FDCF214DF22710FDF7CBFD0D
:102AB00002214DF22810FDF7C6FDDE214DF229104E
:102AC000FDF7C1FD02214DF22A10FDF7BCFDF221F8
:102AD0004DF22B10FDF7B7FD02214DF22C10FDF742
:102AE000B2FDFE214DF22D10FDF7ADFD03214DF29B
:102AF0002E10FDF7A8FD10214DF22F10FDF7A3FDBC
:102B000003214DF23010FDF79EFD33214DF23110BF
:102B1000FDF799FD03214DF23210FDF794FD6D2173
:102B20004DF23310FDF78FFD00214FF45240FDF7B9
:102B30008AFD33214DF20120FDF785FD00214DF284
:102B40000220FDF780FD01E02C29002034214DF208
:102B50000320FDF778FD00214DF20420FDF773FD01
:102B60003A214DF20520FDF76EFD00214DF20620C1
:102B7000FDF769FD4A214DF20720FDF764FD0021B4
:102B80004DF20820FDF75FFD5C214DF20920FDF7B5
:102B90005AFD00214DF20A20FDF755FD81214DF22D
:102BA0000B20FDF750FD00214DF20C20FDF74BFDF1
:102BB000A6214DF20D20FDF746FD00214DF20E201D
:102BC000FDF741FDE5214DF20F20FDF73CFD012110
:102BD0004DF21020FDF737FD13214DF21120FDF7C6
:102BE00032FD01214DF21220FDF72DFD54214DF251
:102BF0001320FDF728FD01214DF21420FDF723FDE0
:102C000082214DF21520FDF71EFD01214DF2162007
:102C1000FDF719FDCA214DF21720FDF714FD022121
:102C20004DF21820FDF70FFD00214DF21920FDF7A0
:102C30000AFD02214DF21A20FDF705FD01214DF29A
:102C40001B20FDF700FD02214DF21C20FDF7FBFCCF
:102C500034214DF21D20FDF7F6FC02214DF21E201D
:102C6000FDF7F1FC67214DF21F20FDF7ECFC02217E
:102C70004DF22020FDF7E7FC84214DF22120FDF7E5
:102C8000E2FC02214DF22220FDF7DDFCA4214DF2F1
:102C90002320FDF7D8FC02214DF22420FDF7D3FCC0
:102CA000B7214DF22520FDF7CEFC02214DF2262062
:102CB000FDF7C9FCCF214DF22720FDF7C4FC02210E
:102CC0004DF22820FDF7BFFCDE214DF22920FDF753
:102CD000BAFC02214DF22A20FDF7B5FCF2214DF29B
:102CE0002B20FDF7B0FC02214DF22C20FDF7ABFCB0
:102CF000FE214DF22D20FDF7A6FC03214DF22E20E2
:102D0000FDF7A1FC10214DF22F20FDF79CFC0321C3
:102D10004DF23020FDF797FC33214DF23120FDF7C5
:102D200092FC03214DF23220FDF78DFC6D214DF216
:102D30003320FDF788FC00214FF45340FDF783FC5E
:102D400033214DF20130FDF77EFC00214DF20230BF
:102D5000FDF779FC34214DF20330FDF774FC0021BE
:102D60004DF20430FDF76FFC3A214DF20530FDF7CE
:102D70006AFC00214DF20630FDF765FC4A214DF258
:102D80000730FDF760FC00214DF20830FDF75BFCD9
:102D90005C214DF20930FDF756FC00214DF20A305E
:102DA000FDF751FC81214DF20B30FDF74CFC002169
:102DB0004DF20C30FDF747FCA6214DF20D30FDF72A
:102DC00042FC00214DF20E30FDF73DFCE5214DF2B5
:102DD0000F30FDF738FC01214DF21030FDF733FCC8
:102DE00013214DF21130FDF72EFC01214DF212306E
:102DF000FDF729FC54214DF21330FDF724FC01218D
:102E00004DF21430FDF71FFC82214DF21530FDF715
:102E10001AFC01214DF21630FDF715FCCA214DF2C6
:102E20001730FDF710FC02214DF21830FDF70BFCB6
:102E300000214DF21930FDF706FC02214DF21A3047
:102E4000FDF701FC01214DF21B30FDF7FCFB0221D7
:102E50004DF21C30FDF7F7FB34214DF21D30FDF72C
:102E6000F2FB02214DF21E30FDF7EDFB67214DF222
:102E70001F30FDF7E8FB02214DF22030FDF7E3FBA8
:102E800084214DF22130FDF7DEFB02214DF222308C
:102E9000FDF7D9FBA4214DF22330FDF7D4FB02212D
:102EA0004DF22430FDF7CFFBB7214DF22530FDF771
:102EB000CAFB02214DF22630FDF7C5FBCF214DF2B2
:102EC0002730FDF7C0FB02214DF22830FDF7BBFB98
:102ED000DE214DF22930FDF7B6FB02214DF22A30FA
:102EE000FDF7B1FBF2214DF22B30FDF7ACFB0221D7
:102EF0004DF22C30FDF7A7FBFE214DF22D30FDF7F2
:102F0000A2FB03214DF22E30FDF79DFB10214DF267
:102F10002F30FDF798FB03214DF23030FDF793FB86
:102F200033214DF23130FDF78EFB03214DF232306B
:102F3000FDF789FB6D214DF23330FDF784FB002155
:102F40004FF45440FDF77FFB33214DF20140FDF774
:102F50007AFB00214DF20240FDF775FB34214DF262
:102F60000340FDF770FB00214DF20440FDF76BFBC1
:102F70003A214DF20540FDF766FB00214DF2064077
:102F8000FDF761FB4A214DF20740FDF75CFB002194
:102F90004DF20840FDF757FB5C214DF20940FDF76B
:102FA00052FB00214DF20A40FDF74DFB81214DF20D
:102FB0000B40FDF748FB00214DF20C40FDF743FBB1
:102FC000A6214DF20D40FDF73EFB00214DF20E40D3
:102FD000FDF739FBE5214DF20F40FDF734FB0121F0
:102FE0004DF21040FDF72FFB13214DF21140FDF77C
:102FF0002AFB01214DF21240FDF725FB54214DF231
:103000001340FDF720FB01214DF21440FDF71BFB9F
:1030100082214DF21540FDF716FB01214DF21640BD
:10302000FDF711FBCA214DF21740FDF70CFB022101
:103030004DF21840FDF707FB00214DF21940FDF756
:1030400002FB02214DF21A40FDF7FDFA01214DF27B
:103050001B40FDF7F8FA00E004E302214DF21C40AA
:10306000FDF7F1FA34214DF21D40FDF7ECFA022193
:103070004DF21E40FDF7E7FA67214DF21F40FDF7C4
:10308000E2FA02214DF22040FDF7DDFA84214DF2F3
:103090002140FDF7D8FA02214DF22240FDF7D3FA84
:1030A000A4214DF22340FDF7CEFA02214DF2244037
:1030B000FDF7C9FAB7214DF22540FDF7C4FA022108
:1030C0004DF22640FDF7BFFACF214DF22740FDF724
:1030D000BAFA02214DF22840FDF7B5FADE214DF291
:1030E0002940FDF7B0FA02214DF22A40FDF7ABFA74
:1030F000F2214DF22B40FDF7A6FA02214DF22C40B1
:10310000FDF7A1FAFE214DF22D40FDF79CFA0321B7
:103110004DF22E40FDF797FA10214DF22F40FDF7AA
:1031200092FA03214DF23040FDF78DFA33214DF232
:103130003140FDF788FA03214DF23240FDF783FA62
:103140006D214DF23340FDF77EFA00214FF45540DA
:10315000FDF779FA33214DF20150FDF774FA0021A1
:103160004DF20250FDF76FFA34214DF20350FDF796
:103170006AFA00214DF20450FDF765FA3A214DF24A
:103180000550FDF760FA00214DF20650FDF75BFA9D
:103190004A214DF20750FDF756FA00214DF2085032
:1031A000FDF751FA5C214DF20950FDF74CFA002170
:1031B0004DF20A50FDF747FA81214DF20B50FDF711
:1031C00042FA00214DF20C50FDF73DFAA6214DF2D6
:1031D0000D50FDF738FA00214DF20E50FDF733FA8D
:1031E000E5214DF20F50FDF72EFA01214DF210505E
:1031F000FDF729FA13214DF21150FDF724FA0121B0
:103200004DF21250FDF71FFA54214DF21350FDF705
:103210001AFA01214DF21450FDF715FA82214DF2F0
:103220001550FDF710FA01214DF21650FDF70BFA7B
:10323000CA214DF21750FDF706FA02214DF218503F
:10324000FDF701FA00214DF21950FDF7FCF90221BA
:103250004DF21A50FDF7F7F901214DF21B50FDF721
:10326000F2F902214DF21C50FDF7EDF934214DF237
:103270001D50FDF7E8F902214DF21E50FDF7E3F96C
:1032800067214DF21F50FDF7DEF902214DF220506B
:10329000FDF7D9F984214DF22150FDF7D4F902212F
:1032A0004DF22250FDF7CFF9A4214DF22350FDF746
:1032B000CAF902214DF22450FDF7C5F9B7214DF2AC
:1032C0002550FDF7C0F902214DF22650FDF7BBF95C
:1032D000CF214DF22750FDF7B6F902214DF22850CB
:1032E000FDF7B1F9DE214DF22950FDF7ACF90221CD
:1032F0004DF22A50FDF7A7F9F2214DF22B50FDF7C0
:10330000A2F902214DF22C50FDF79DF9FE214DF25C
:103310002D50FDF798F903214DF22E50FDF793F94A
:1033200010214DF22F50FDF78EF903214DF2305050
:10333000FDF789F933214DF23150FDF784F903216E
:103340004DF23250FDF77FF96D214DF23350FDF70C
:103350007AF900214FF45640FDF775F933214DF20B
:103360000160FDF770F900214DF20260FDF76BF985
:1033700034214DF20360FDF766F900214DF204603F
:10338000FDF761F93A214DF20560FDF75CF9002186
:103390004DF20660FDF757F94A214DF20760FDF73F
:1033A00052F900214DF20860FDF74DF95C214DF214
:1033B0000960FDF748F900214DF20A60FDF743F975
:1033C00081214DF20B60FDF73EF900214DF20C60BA
:1033D000FDF739F9A6214DF20D60FDF734F9002112
:1033E0004DF20E60FDF72FF9E5214DF20F60FDF76C
:1033F0002AF901214DF21060FDF725F913214DF254
:103400001160FDF720F901214DF21260FDF71BF963
:1034100054214DF21360FDF716F901214DF21460AD
:10342000FDF711F982214DF21560FDF70CF901212C
:103430004DF21660FDF707F9CA214DF21760FDF74E
:1034400002F902214DF21860FDF7FDF800214DF25E
:103450001960FDF7F8F802214DF21A60FDF7F3F854
:1034600001214DF21B60FDF7EEF802214DF21C60C8
:10347000FDF7E9F834214DF21D60FDF7E4F8022173
:103480004DF21E60FDF7DFF867214DF21F60FDF77A
:10349000DAF802214DF22060FDF7D5F884214DF2D3
:1034A0002160FDF7D0F802214DF22260FDF7CBF844
:1034B000A4214DF22360FDF7C6F802214DF22460ED
:1034C000FDF7C1F8B7214DF22560FDF7BCF80221E8
:1034D0004DF22660FDF7B7F8CF214DF22760FDF7DA
:1034E000B2F802214DF22860FDF7ADF8DE214DF271
:1034F0002960FDF7A8F802214DF22A60FDF7A3F834
:10350000F2214DF22B60FDF79EF802214DF22C6066
:10351000FDF799F8FE214DF22D60FDF794F8032197
:103520004DF22E60FDF78FF810214DF22F60FDF760
:103530008AF803214DF23060FDF785F833214DF212
:103540003160FDF780F803214DF23260FDF77BF822
:103550006D214DF23360FDF776F855214FF4704040
:10356000FDF771F8AA214FF20100FDF76CF8522126
:103570004FF20200FDF767F808214FF20300FDF754
:1035800062F800214FF20400FDF75DF8CC214FF402
:103590003140FDF758F800214BF20110FDF753F8C8
:1035A00005214FF43640FDF74EF870214FF43740B7
:1035B000FDF749F870214BF20170FDF744F8012145
:1035C0004FF43840FDF73FF803214BF60100FDF7BB
:1035D0003AF803214BF60200FDF735F803214BF6CC
:1035E0000300FDF730F802214FF43C40FDF72BF8C3
:1035F00000214BF60140FDF726F800214BF6024072
:10360000FDF721F8D0214FF44940FDF71CF80221C5
:103610004CF60110FDF717F850214CF60210FDF79B
:1036200012F850214CF60310FDF70DF850214CF61E
:103630000410FDF708F800214FF45450FDF703F88B
:1036400055214FF46850FCF7FEFF4FF48850FCF70B
:10365000DFFF782007F0EAFF4FF42450FCF7D8FF93
:1036600001F099B8FE488088A0F5134125397DD135
:1036700047F6F001E520FCF7E6FF4FF480710120EA
:10368000FCF7E1FF4FF4E0610220FCF7DCFF41F2C0
:1036900030010320FCF7D7FF00210420FCF7D3FF03
:1036A00040F202210820FCF7CEFF00210920FCF7A0
:1036B000CAFF00210A20FCF7C6FF00210C20FCF7FE
:1036C000C2FF00210D20FCF7BEFF00210F20FCF7F8
:1036D000BAFF00211020FCF7B6FF07211120FCF7EC
:1036E000B2FF00211220FCF7AEFF00211320FCF7EF
:1036F000AAFF00210720FCF7A6FF41F290611020ED
:10370000FCF7A1FF40F227211120FCF79CFF9D212F
:103710001220FCF798FF4FF4C8511320FCF793FFD9
:1037200025212920FCF78FFF0D212B20FCF78BFF93
:1037300007213020FCF787FF40F203313120FCF7EE
:1037400082FF03213220FCF77EFF40F20621352064
:10375000FCF779FF08213620FCF775FF40F206419F
:103760003720FCF770FF4FF4417100E058E038203B
:10377000FCF769FF07213920FCF765FF40F2026181
:103780003C20FCF760FF08213D20FCF75CFF002196
:103790005020FCF758FFEF215120FCF754FF002187
:1037A0005220FCF750FF40F23F115320FCF74BFF33
:1037B0004FF427416020FCF746FF01216120FCF710
:1037C00042FF00216A20FCF73EFF00218020FCF729
:1037D0003AFF00218120FCF736FF00218220FCF710
:1037E00032FF00218320FCF72EFF00218420FCF70C
:1037F0002AFF00218520FCF726FF10219020FCF7EE
:1038000022FF4FF4C0619220FCF71DFF40F23311FC
:103810000720FCF718FF22210020FCF714FF1FE708
:103820008F488088A0F5134128397DD141F28F015E
:10383000EC20FCF708FF41F23421EF20FCF703FFF6
:103840004FF480710120FCF7FEFE4FF4E06102208E
:10385000FCF7F9FE41F230010320FCF7F4FE0021F1
:103860000420FCF7F0FE40F202210820FCF7EBFEFA
:1038700000210920FCF7E7FE00210A20FCF7E3FE07
:1038800001210C20FCF7DFFE00210D20FCF7DBFE00
:1038900000210F20FCF7D7FE00211020FCF7D3FEFB
:1038A00007211120FCF7CFFE00211220FCF7CBFEF0
:1038B00000211320FCF7C7FE01210720FCF7C3FEFF
:1038C000322007F0DEFE41F290411020FCF7BBFEF3
:1038D00040F227211120FCF7B6FE322007F0D1FE7E
:1038E0008A211220FCF7AFFE322007F0CAFE4FF407
:1038F000D0511320FCF7A7FE06212920FCF7A3FED8
:103900000D212B20FCF79FFE322007F0BAFE00218C
:103910002020FCF798FE00212120FCF794FE3220A5
:1039200007F0AFFE002100E075E03020FCF78BFED1
:1039300040F204613120FCF786FE40F2053132206E
:10394000FCF781FE00213520FCF77DFE40F60941A1
:103950003620FCF778FE4FF401713720FCF773FE38
:1039600040F201313820FCF76EFE40F20771392039
:10397000FCF769FE00213C20FCF765FE40F60A21B9
:103980003D20FCF760FE322007F07BFE0021502036
:10399000FCF759FEEF215120FCF755FE0021522083
:1039A000FCF751FE40F23F115320FCF74CFE4FF460
:1039B00027416020FCF747FE01216120FCF743FE10
:1039C00000216A20FCF73FFE00218020FCF73BFE2F
:1039D00000218120FCF737FE00218220FCF733FE16
:1039E00000218320FCF72FFE00218420FCF72BFE12
:1039F00000218520FCF727FE10219020FCF723FEF4
:103A00004FF4C0619220FCF71EFE40F233110720F4
:103A1000FCF719FE24E612488088A0F513412039EE
:103A20007ED10846FCF70FFE4FF480710120FCF7B1
:103A30000AFE4FF4E0610220FCF705FE41F230017E
:103A40000320FCF700FE00210420FCF7FCFD40F2FF
:103A500002210820FCF7F7FD0021092002E0000008
:103A60002C290020FCF7EFFD00210A20FCF7EBFDDC
:103A700001210C20FCF7E7FD00210D20FCF7E3FD00
:103A800000210F20FCF7DFFD322007F0FAFD40F2A5
:103A900001110720FCF7D7FD322007F0F2FD4FF4AB
:103AA00086511020FCF7CFFD07211120FCF7CBFD3C
:103AB0004FF488711220FCF7C6FD4FF430611320DB
:103AC000FCF7C1FD00212920FCF7BDFD44F21001E7
:103AD0002B20FCF7B8FD00215020FCF7B4FDEF21AE
:103AE0005120FCF7B0FD00215220FCF7ACFD40F264
:103AF0003F115320FCF7A7FD4FF41C516020FCF749
:103B0000A2FD01216120FCF79EFD00216A20FCF747
:103B10009AFD00218020FCF796FD0021812000E025
:103B200030E0FCF790FD00218220FCF78CFD0021A5
:103B30008320FCF788FD00218420FCF784FD002110
:103B40008520FCF780FD10219020FCF77CFD0021F2
:103B50009220FCF778FD01219320FCF774FD4FF4CF
:103B600088719520FCF76FFD00219720FCF76BFD15
:103B700000219820FCF767FD40F273110720FCF745
:103B800062FD6DE5FE488088A0F5134131397DD195
:103B900041F21401E720FCF756FD4FF4807101203B
:103BA000FCF751FD4FF400710220FCF74CFD41F28F
:103BB00038010320FCF747FD40F202210820FCF702
:103BC00042FD00210920FCF73EFD00210A20FCF700
:103BD0003AFD00210C20FCF736FD00210D20FCF7FA
:103BE00032FD00210F20FCF72EFD00211020FCF7F4
:103BF0002AFD07211120FCF726FD00211220FCF7E9
:103C000022FD00211320FCF71EFDC82007F039FD1E
:103C100041F290611020FCF716FD40F2272111209F
:103C2000FCF711FD322007F02CFD0C211220FCF7CF
:103C30000AFD322007F025FD4FF400611320FCF748
:103C400002FD11212920FCF7FEFC0B212B20FCF7A3
:103C5000FAFC322007F015FD00212020FCF7F3FCD0
:103C600040F23F112120FCF7EEFC00213020FCF750
:103C7000EAFC4FF483713120FCF7E5FC002132208F
:103C8000FCF7E1FC4FF40171352000E064E0FCF743
:103C9000DAFC41F20A613620FCF7D5FC40F20771EC
:103CA0003720FCF7D0FC4FF483713820FCF7CBFCB5
:103CB00040F207713920FCF7C6FC40F202413C207B
:103CC000FCF7C1FC40F60F413D20FCF7BCFC002195
:103CD0005020FCF7B8FCEF215120FCF7B4FC002188
:103CE0005220FCF7B0FC40F23F115320FCF7ABFC34
:103CF0004FF41C516020FCF7A6FC01216120FCF769
:103D0000A2FC00216A20FCF79EFC00218020FCF729
:103D10009AFC00218120FCF796FC00218220FCF710
:103D200092FC00218320FCF78EFC00218420FCF70C
:103D30008AFC00218520FCF786FC10219020FCF7EE
:103D400082FC4FF4C0619220FCF77DFC40F23311FD
:103D50000720FCF778FC83E489488088A0F5A84117
:103D600008397DD14FF480710120FCF76CFC4FF4D1
:103D7000E0610220FCF767FC41F230010320FCF710
:103D800062FC00210420FCF75EFC40F207210820C1
:103D9000FCF759FC00210920FCF755FC00210A2002
:103DA000FCF751FC00210C20FCF74DFC00210D20FC
:103DB000FCF749FC00210F20FCF745FC142007F01C
:103DC00060FC41F2B0611020FCF73DFC01211120A4
:103DD000FCF739FC01211720FCF735FC4FF49C71EE
:103DE0001220FCF730FC4FF400611320FCF72BFC91
:103DF00009212920FCF727FC09212A20FCF723FCB4
:103E00000021A420FCF71FFC00215020FCF71BFC24
:103E1000EF215120FCF717FC00215220FCF713FC86
:103E200040F23F115320FCF70EFC4FF41C51602070
:103E3000FCF709FC01216120FCF705FC00216A2048
:103E4000FCF701FC00218020FCF7FDFB0021812014
:103E5000FCF7F9FB00218220FCF7F5FB002100E0D4
:103E600024E08320FCF7EFFB00218420FCF7EBFB30
:103E700000218520FCF7E7FB13219020FCF7E3FBF2
:103E800000219220FCF7DFFB03219320FCF7DBFBF2
:103E90004FF488719520FCF7D6FB40F27311072090
:103EA000FCF7D1FB322007F0ECFBB8E43448808803
:103EB000A0F5A851053965D10720FCF7C4FB3220D5
:103EC00007F0DFFB4FF48E711220FCF7BCFB0121E1
:103ED000A420FCF7B8FB0F210820FCF7B4FB082155
:103EE0000A20FCF7B0FB08210D20FCF7ACFB40F2E8
:103EF00007713020FCF7A7FB07213120FCF7A3FB5B
:103F000040F203613220FCF79EFB4FF4E061332066
:103F1000FCF799FB40F202213420FCF794FB0221CC
:103F20003520FCF790FB41F60F713620FCF78BFB38
:103F300040F207713720FCF786FB00213820FCF7A0
:103F400082FB00213920FCF77EFB40F207713A200A
:103F5000FCF779FB00213B20FCF775FB07213C2097
:103F6000FCF771FB00213D20FCF76DFB322007F0D0
:103F700088FB01210720FCF766FB0121172002E0E6
:103F80002C290020AEE0FCF75EFB322007F079FB25
:103F90004FF4BD511020FCF756FB40F217211120C1
:103FA000FCF751FB4FF48F711220FCF74CFB4FF4E0
:103FB00070611320FCF747FB00212A20FCF743FB2C
:103FC0000A212920FCF73FFB4FF49F711220FCF7D8
:103FD0003AFB00215020FCF736FBEF215120FCF783
:103FE00032FB00215220FCF72EFB40F23F11532000
:103FF000FCF729FB4FF41C516020FCF724FB012146
:104000006120FCF720FB00216A20FCF71CFB00214B
:104010008020FCF718FB00218120FCF714FB002115
:104020008220FCF710FB00218320FCF70CFB002111
:104030008420FCF708FB00218520FCF704FB1321FA
:104040009020FCF700FB4FF440719220FCF7FBFA44
:1040500005219320FCF7F7FA00219520FCF7F3FAED
:1040600000219720FCF7EFFA00219820FCF7EBFAEB
:104070004FF480710120FCF7E6FA4FF4E061022072
:10408000FCF7E1FA41F238010320FCF7DCFA0021E9
:104090000420FCF7D8FA00210C20FCF7D4FA002108
:1040A0000F20FCF7D0FA00212020FCF7CCFA0021E9
:1040B0002120FCF7C8FA21210720FCF7C4FA1420BC
:1040C00007F0DFFA61210720FCF7BDFA142007F0A2
:1040D000D8FA40F273110720FCF7B5FA142007F064
:1040E000D0FA58E3FE488088A0F5354105397DD1E6
:1040F0000846FCF7A8FA00210846FCF7A4FA0021BC
:104100000846FCF7A0FA00210846FCF79CFA0121BA
:10411000A420FCF798FA142007F0B3FA4FF41C51CE
:104120006020FCF790FA40F202210820FCF78BFA9D
:104130004FF405713020FCF786FA43F215713120F7
:10414000FCF781FA40F204613220FCF77CFA40F679
:1041500016613320FCF777FA42F211213420FCF784
:1041600072FA4FF4A8513520FCF76DFA48F2075166
:104170003620FCF768FA41F207413720FCF763FA72
:1041800041F203413820FCF75EFA20213920FCF788
:104190005AFA1A219020FCF756FA00211020FCF759
:1041A00052FA07211120FCF74EFA00211220FCF7E9
:1041B0004AFA00211320FCF746FA142007F061FAAE
:1041C0004FF4E6611020FCF73EFA40F2371111205F
:1041D000FCF739FA142007F054FA4FF4DC7112207E
:1041E000FCF731FA142007F04CFA00E083E04FF4BA
:1041F00070611320FCF727FA80212A20FCF723FAAC
:1042000048212920FCF71FFA142007F03AFA4FF44E
:1042100080710120FCF717FA4FF4E0610220FCF7EF
:1042200012FA41F238010320FCF70DFA40F20221A4
:104230000820FCF708FA00210A20FCF704FA002104
:104240000C20FCF700FA00210D20FCF7FCF93021CE
:104250000E20FCF7F8F900215020FCF7F4F9EF21CB
:104260005120FCF7F0F900215220FCF7ECF940F264
:104270003F115320FCF7E7F94FF41C516020FCF785
:10428000E2F901216120FCF7DEF900216A20FCF748
:10429000DAF911219020FCF7D6F94FF4C061922091
:1042A000FCF7D1F940F202419320FCF7CCF902214E
:1042B0009420FCF7C8F9142007F0E3F90121072046
:1042C000FCF7C1F9142007F0DCF961210720FCF7A5
:1042D000BAF940F273110720FCF7B5F9002120204C
:1042E000FCF7B1F900212120FCF7ADF922210020D3
:1042F000FCF7A9F94FE27A488088A0F545410539D5
:104300007DD10846FCF79FF900210846FCF79BF990
:10431000142007F0B6F900210846FCF794F90021B3
:104320000846FCF790F900210846FCF78CF90021BB
:104330000846FCF788F90121A420FCF784F9142031
:1043400007F09FF94FF41C516020FCF77CF940F610
:1043500006010820FCF777F940F203713020FCF7E2
:1043600072F901213120FCF76EF904213220FCF7AB
:104370006AF94FF481713320FCF765F94FF440710D
:104380003420FCF760F940F203113520FCF75BF9AB
:104390001F213620FCF757F940F203713720FCF754
:1043A00052F901213820FCF74EF904213920FCF79D
:1043B0004AF915219020FCF746F94FF4826110204C
:1043C000FCF741F940F247211120FCF73CF94FF48A
:1043D000DE711220FCF737F94FF460611320FCF70F
:1043E00032F9782007F04DF94FF480710120FCF785
:1043F0002AF94FF400710220FCF725F900E050E0A3
:1044000041F230010320FCF71EF908210A20FCF7D5
:104410001AF900210C20FCF716F920210E20FCF7D8
:1044200012F900210F20FCF70EF900212020FCF7E3
:104430000AF900212120FCF706F93D212A20FCF78A
:1044400002F9142007F01DF92D212920FCF7FBF8B3
:1044500000215020FCF7F7F84DF2EF015120FCF756
:10446000F2F800215220FCF7EEF840F23F11532001
:10447000FCF7E9F800216120FCF7E5F800216A204B
:10448000FCF7E1F84FF440719220FCF7DCF80521CD
:104490009320FCF7D8F84FF480710720FCF7D3F88D
:1044A00079E10F488088A0F58A4131397ED1012118
:1044B0000020FCF7C8F80A2007F0E3F841F2286171
:1044C0001020FCF7C0F80E211220FCF7BCF840F6D3
:1044D00039211320FCF7B7F80A2007F0D2F801E0E1
:1044E0002C29002040211120FCF7ADF85021152087
:1044F000FCF7A9F80A2007F0C4F81E211220FCF7E7
:10450000A2F80A2007F0BDF84FF4B1511020FCF7D3
:104510009AF842F639211320FCF795F80A2007F0A3
:10452000B0F84FF480710120FCF78DF84FF4407122
:104530000220FCF788F841F238010320FCF783F8E9
:1045400040F202210820FCF77EF808210A20FCF73F
:104550007AF800213020FCF776F840F20241312051
:10456000FCF771F84FF483713220FCF76CF840F2DD
:1045700003513320FCF767F84FF482713420FCF7C5
:1045800062F840F201313520FCF75DF840F2077126
:104590003620FCF758F840F205313720FCF753F885
:1045A0004FF402713820FCF74EF800E03EE040F690
:1045B0000B713920FCF747F802214120FCF743F842
:1045C0004FF41C516020FCF73EF801216120FCF7FC
:1045D0003AF84FF404719020FCF735F84FF48571E8
:1045E0009220FCF730F804219320FCF72CF84FF4CC
:1045F0008071A020FCF727F801210720FCF723F8A1
:1046000021210720FCF71FF823210720FCF71BF8C6
:1046100033210720FCF717F840F233110720FCF78D
:1046200012F80021A020FCF70EF8B4E0FE488088C4
:10463000A0F58A413539F8D130211520FCF703F86F
:1046400010219A20FBF7FFFF20211120FBF7FBFF31
:1046500043F228411020FBF7F6FF02211220FBF75E
:10466000F2FF41F238011320FBF7EDFF282007F09D
:1046700008F812210846FBF7E6FF282007F001F8AA
:1046800043F220411020FBF7DEFF43F238011320F4
:10469000FBF7D9FF462006F0F4FF00213020FBF79E
:1046A000D2FF40F202413120FBF7CDFF40F207314B
:1046B0003220FBF7C8FF4FF441713320FBF7C3FFF3
:1046C00004213420FBF7BFFF40F201413520FBF706
:1046D000BAFF40F207713620FBF7B5FF40F2053113
:1046E0003720FBF7B0FF4FF4C2613820FBF7ABFF78
:1046F0004FF4C2613920FBF7A6FF4FF4807101200F
:10470000FBF7A1FF4FF440710220FBF79CFF41F241
:1047100030010320FBF797FF40F608010820FBF764
:1047200092FF08210A20FBF78EFF4FF41C516020F6
:10473000FBF789FF01216120FBF785FF4FF49F7193
:104740009020FBF780FF4FF480719220FBF77BFFF6
:104750004FF480719320FBF776FF4FF44051A02077
:10476000FBF771FF1021A320FBF76DFF012107204C
:10477000FBF769FF21210720FBF765FF23210720B5
:10478000FBF761FF33210720FBF75DFF40F2331198
:104790000720FBF758FF0120FCF7F2FA0120A3499C
:1047A00008604FF6FF70FCF767FC21B000BD2DE9F3
:1047B000FC4F05460E4617469846DDF82C90002023
:1047C000019099488088A0F5D041043929D19648B4
:1047D0008079012825D1AB46354693480088C01B17
:1047E000401E86B2474690480088A0EB0B00401E52
:1047F0001FFA80F800208C4988712A2048812B20DC
:10480000888143463A4631462846CDF80090FFF766
:10481000CEFF0120844988712B2048812A2088817D
:104820001CE0781B401C80B20190344614E0214605
:104830002846FBF734FFFBF719FF4FF0000A06E0AC
:104840007B48A0F800900AF101001FFA80FA019855
:104850008245F5DB601C84B24445E8DDBDE8FC8F91
:104860002DE9F84F07460D4690469946DDF828B0E9
:10487000A8EB0700401C1FFA80FAA9EB0500401CBA
:1048800080B20090002414E0281981B23846FBF76A
:1048900006FFFBF7EBFE002607E004FB0A603BF88F
:1048A000100063490880701C86B25645F5DB601C19
:1048B00084B200988442E7DBBDE8F88F2DE9FF4F12
:1048C00084B081468A460020039002900698A0EBAF
:1048D00009050798A0EB0A06CDF80490CDF800A0D2
:1048E000002D01DD012705E00DB9002702E04FF0A2
:1048F000FF376D42002E02DD4FF0010806E016B9C9
:104900004FF0000802E04FF0FF387642B54201DD7B
:104910002C4600E034464FF0000B21E0009A91B2A3
:10492000019A90B2FCF793F90398284403900298F7
:10493000304402900398A04205DD0398001B0390C9
:104940000198384401900298A04205DD0298001BAE
:1049500002900098404400900BF101001FFA80FB88
:10496000601C8345DADD08B0BDE8F08FF0B5044681
:104970000D4616461F462B46324629462046FFF76F
:104980009DFF3B46224629462046FFF797FF3B46C0
:10499000324639462046FFF791FF3B4632462946CC
:1049A0003046FFF78BFFF0BD2DE9F04306460F467A
:1049B0009046002445460320A0EB480943E07A1BBB
:1049C00091B2321990B2FCF742F93A1B91B27219C6
:1049D00090B2FCF73CF93A1991B2721990B2FCF717
:1049E00036F97A1991B2321990B2FCF730F97A1986
:1049F00091B2321B90B2FCF72AF93A1991B2721BAC
:104A000090B2FCF724F97A1B91B2321B90B2FCF7FA
:104A10001EF93A1B91B2721B90B2FCF718F9641C94
:104A2000B9F1000F0ADA05E02C2900208482404207
:104A300000000860A000801D814404E0601B80002D
:104A40000A3081446D1EAC42B9DDBDE8F0832DE92A
:104A5000F84F0746884616461C46C3462046E317CD
:104A600004EB5373DB1021464FEAE47C04EB5C7CDF
:104A70004FEAEC0CB4EBCC0C02D04FF0010C01E08F
:104A80004FF0000C6344224604EBD27C4FEA6C0CDE
:104A900003FB0CF3DBB20093A6F12000C6B20025A5
:104AA00056E00C2C07D106EB46009F4901EB800035
:104AB00010F8059013E0102C05D19C4800EB06106F
:104AC00010F805900BE0182C07D106EBC6009849AA
:104AD00001EB800010F8059001E0BDE8F88F4FF081
:104AE000000A2FE019F0800F06D092480288414654
:104AF0003846FCF7BAF807E00A9828B98E480288C9
:104B000041463846FCF7B1F84FEA49604FEA106970
:104B100008F101001FFA80F888480088B84200DCDC
:104B2000DBE7A8EB0B00A04208D1D846781C87B27F
:104B300082480088B84200DCCFE706E00AF10100B5
:104B400000F0FF0ABAF1080FCCDB00BF681CC5B249
:104B500000988542A5DB00BFBFE710B502460120E3
:104B600000E050430B00A1F10104E1B2F9D110BD06
:104B70002DE9FF4F81B0074691461E460E9D4FF02E
:104B8000000A002439E0301B401EC1B20A20FFF7A2
:104B9000E4FFB9FBF0F00A21B0FBF1F201FB1208CF
:104BA000BAF1000F16D1701EA04213DDB8F1000F4C
:104BB0000ED10020AB4605EBDB71491001FB0471FF
:104BC000009088B22B4620220299FFF740FF12E0A6
:104BD0004FF0010A0020AB4605EBDB71491001FBE9
:104BE0000471009088B208F13001CAB22B460299D4
:104BF000FFF72DFF00BF601CC4B2B442C3DB05B099
:104C0000BDE8F08F2DE9FF4F82B0064692461F4661
:104C1000DDE90F480020019000254DE0781B401E83
:104C2000C1B20A20FFF799FFBAFBF0F00A21B0FBEE
:104C3000F1F201FB1209019850BB781EA84227DD52
:104C4000B9F1000F22D118F0800F0FD008F0010049
:104C5000A34604EBDB71491001FB0561009088B2AB
:104C6000234630220399FFF7F2FE0EE008F0010020
:104C7000A34604EBDB71491001FB0561009088B28B
:104C8000234620220399FFF7E2FE13E00120019062
:104C900008F00100A34604EBDB71491001FB05613C
:104CA000009088B209F13001CAB223460399FFF798
:104CB000CEFE00BF681CC5B2BD42AFDB06B0BDE88A
:104CC000F08F2DE9F84704460D4690469946DDE9F8
:104CD000096704F0FF0A08EB04001FFA80F809EBEB
:104CE00005001FFA80F916E0444502DB5446A81976
:104CF00085B24D4500DB14E0002000903A78334641
:104D000029462046FFF7A3FE304606EBD07104EBA0
:104D100061018CB27F1C38787E2802DC387820282C
:104D2000E2DA00BFBDE8F88734BD0108A8C1010878
:104D300098C7010814000020160000202C2900202C
:104D40007FB504460D460121022004F0B8FDADF800
:104D500004500020ADF806000294ADF80C0001A943
:104D60002F4804F064FF012211462D4805F000FC95
:104D700001212B4804F0E4FF1D208DF800000120E4
:104D80008DF8010003208DF8020001208DF803004A
:104D9000684603F0CCFE7FBD10B50121204805F028
:104DA000FEFB01211E4805F00BFC10BD7FB504463B
:104DB0000D460121042004F082FDADF804500020CE
:104DC000ADF806000294ADF80C0001A9154804F0F6
:104DD0002EFF01221146134805F0CAFB012111489C
:104DE00004F0AEFF1E208DF8000002208DF80100B7
:104DF00003208DF8020001208DF80300684603F0BF
:104E000096FE7FBD10B50121064805F0C8FB0128BC
:104E100005D10121034805F0D3FB10F041F910BD85
:104E2000000400400008004010B500F0BBF810BDC1
:104E300070B50446002600F0D4F82546E11704EBCF
:104E400011610912A02202EB4101C8B200F07BF906
:104E500000F00AF9E11704EB11610912A4EB01213A
:104E6000C8B200F070F900F0FFF800F0BAF8A12025
:104E700000F069F900F0F8F8002000F094F9064617
:104E800000F0D1F8304670BD70B504460E4600F013
:104E9000A8F82546E11704EB11610912A02202EBE4
:104EA0004101C8B200F04FF900F0DEF8E11704EB61
:104EB00011610912A4EB0121C8B200F044F900F01D
:104EC000D3F8304600F03FF900F0CEF800F0ABF830
:104ED0000A2006F0D6FB70BD2DE9F04105460E46CE
:104EE0001746002409E0E20026FA02F2D1B22A199C
:104EF00090B2FFF7C9FF601CC4B2BC42F3DBBDE84F
:104F0000F0812DE9F04107460C460026002509E016
:104F100036023919491B491E88B2FFF789FF06443A
:104F2000681CC5B2A542F3DB3046BDE8F08110B580
:104F3000FF20FFF77DFF0446552C01D1002010BD56
:104F40005521FF20FFF7A0FFFF20FFF771FF044668
:104F5000552C01D10020F2E70120F0E770B506469C
:104F60000C46154608E03046721C96B2FFF760FF0B
:104F700004F8010B681E85B2002DF4D170BD70B528
:104F800005460C46164606E021782846FFF77CFFCA
:104F9000681C85B2641C3000A6F101018EB2F3D109
:104FA00070BD00001CB50121022004F03FFC4FF44D
:104FB0004070009001208DF8040003208DF805005A
:104FC00000208DF8060001208DF8070069468D4805
:104FD00004F08EF901208C4908608C49C1F8A402C4
:104FE0001CBD10B58748006820F440208549086042
:104FF0000846006840F48020086001208449086069
:105000008249C1F8A0024FF0040006F00FFB002017
:105010007F4908604FF0040006F008FB00207B4940
:10502000C1F8A00210BD10B57648006820F44020F9
:10503000744908600846006840F480200860002039
:10504000714908607149C1F8A4024FF0040006F0EC
:10505000EDFA01206C4908606C49C1F8A4024FF0D8
:10506000040006F0E3FA10BD10B50024654800689E
:1050700020F4402063490860084600680860012069
:105080006349086006F0D2FA01206049C1F8A00225
:1050900006F0CCFA07E0601CC4B2FA2C03DDFFF77F
:1050A000C2FF012010BD5B4800680028F3D15649BB
:1050B000086000BFF6E710B500205349086051486A
:1050C000006820F440204F4908600846006840F41A
:1050D000802008604FF000004C49C1F8A4024FF056
:1050E000020006F0A3FA0120474908604FF00200D1
:1050F00006F09CFA00204549C1F8A00210BD10B589
:105100000020414908603F48006820F440203D49A4
:1051100008600846006840F4802008604FF00100F5
:105120003A49C1F8A4024FF0020006F07FFA0120CC
:10513000354908604FF0020006F078FA0020334944
:10514000C1F8A00210BD70B504462E48006820F4D6
:1051500040202C4908600846006840F48020086020
:1051600000202949086005461AE0E009284908603E
:105170004FEA44604FEA10644FF0020006F056FA1E
:1051800001202249C1F8A002022006F04FFA0020B7
:105190001D4908604FF0020006F048FA681CC5B2CD
:1051A000082DE2DB70BD70B5054600241548006887
:1051B00020F4402013490860084600680860002673
:1051C00016E00020104908604FF0020006F02EFAA9
:1051D00001200E49C1F8A0026006040E0D480068C7
:1051E00008B1601CC4B2012006F020FA701CC6B2DF
:1051F000082EE6DB15B9FFF782FF01E0FFF75BFF42
:10520000204670BD00040240A0824042008040421F
:10521000A48240422482404210B5052006F006FADE
:1052200010BD1CB50121222004F000FB01200090DC
:105230008DF8040003208DF8050000208DF806008D
:1052400001208DF807006946864804F051F84FF4B4
:10525000006000906946844804F04AF801208349C0
:1052600008608349C1F8AC021CBD10B57E480068D7
:1052700020F440007C4908600846006840F4800043
:10528000086001207B4908607B49C1F880024FF02B
:10529000140006F0CBF9002076490860FFF7BCFF48
:1052A00000207549C1F8800210BD10B56E48006835
:1052B00020F440006C4908600846006840F4800013
:1052C00008600120694908604FF0140006F0AEF94B
:1052D00000206749C1F8AC02FFF79EFF0120654935
:1052E000086010BD10B500245F48006820F440003D
:1052F0005D49086008460068086001205D49086053
:105300005D49C1F880020AE0601CC4B2FA2C03DDDA
:10531000FFF7CBFF012010BD012006F087F95748A9
:1053200000680028F0D15149086000BFF3E710B5CC
:1053300000204E4908604C48006820F440004A496B
:1053400008600846006840F480000860FFF764FFCA
:1053500000204749C1F8AC02FFF75EFF0120434936
:105360000860FFF759FF00204349C1F8800210BDD3
:1053700010B500203D4908603B48006820F440001B
:10538000394908600846006840F480000860FFF76B
:1053900043FF01203649C1F8AC02FFF73DFF012071
:1053A00032490860FFF738FF00203349C1F8800216
:1053B00010BD70B504462C48006820F440002A490E
:1053C00008600846006840F4800008600020274913
:1053D0000860FFF721FF002514E0E0092549086077
:1053E0004FEA44604FEA10644FF001002249C1F8CF
:1053F0008002FFF711FF00201C490860FFF70CFF37
:10540000681CC5B2082DE8DB70BD70B505460024E8
:105410001548006820F440001349086008460068F9
:105420000860002613E00020104908604FF01E00BD
:1054300006F0FCF801201049C1F880026006040E55
:105440000E48006808B1601CC4B2701CC6B2082EB9
:10545000E9DB15B9FFF78CFF01E0FFF768FF204695
:1054600070BD0000000402400014024080824042EF
:1054700000804242AC824242008040422C82424242
:105480002DE9F04104460E4617464FF00008FFF79D
:10549000ECFEB220FFF78DFFFFF724FF2012FFF78D
:1054A00088FFFFF71FFFE0B2FFF783FFFFF71AFF48
:1054B00000250BE0705DFFF77CFFFFF713FF8046D0
:1054C000B8F1000F00D003E0681CC5B2BD42F1DBAB
:1054D00000BFFFF7EAFE4046BDE8F0812DE9F0414C
:1054E00005460F461646FFF7C0FEB220FFF761FFE4
:1054F000FFF7F8FE2812FFF75CFFFFF7F3FEE8B2B4
:10550000FFF757FFFFF7EEFEFFF7AFFEB320FFF701
:1055100050FFFFF7E7FE00240BE0711EA14201D00F
:10552000012100E000210846FFF76FFF3855601C9D
:10553000C4B2B442F1DBFFF7B8FEBDE8F08138B584
:105540000446002000900CB18020009001226946A2
:105550004FF45060FFF794FF38BD0EB50020029065
:105560000121062004F062F90220009000208DF84D
:10557000040001208DF807006946AD4803F0B8FE2D
:105580004FF40050009001208DF8040003208DF8A6
:10559000050000208DF806006946A64803F0A8FE25
:1055A000FFF73FFE0020A44908604FF0640006F0BA
:1055B00068F80120A149C1F8B402642006F061F83E
:1055C0000120FFF7BCFF012202A94FF45060FFF752
:1055D00085FF9DF808109AA00DF062FC9DF8080068
:1055E000802801D100200EBD0120FCE731B52DED52
:1055F000068B82B00024002594480078401C934913
:105600000870084600780A2190FBF1F201FB1200B5
:1056100018B18E4800780A287EDA012208A90020F5
:10562000FFF75CFF9DF8200010F01F0F74D09DF86D
:10563000200000F01F0040F0C000854981F82000E4
:105640000024BAE0824890F820000121A1400842DD
:1056500066D0804931F81400042201A9FFF73EFF0B
:105660007B4890F8340010F0010F5AD09DF80710D5
:105670009DF8062001EB022015F089FF41EC100B8C
:10568000B0EE409AF0EE609A9FED730B53EC102B46
:1056900051EC190B15F0E2FF41EC100BB0EE408A13
:1056A000F0EE608A51EC180B15F044FF81B26848A7
:1056B000163020F814109DF805109DF8042001EB19
:1056C000022015F064FF41EC100BB0EE40AAF0EEA2
:1056D00060AA9FED630B53EC102B51EC1A0B15F0E5
:1056E000BDFF41EC100BB0EE409AF0EE609A9FEDDA
:1056F0005E0B53EC102B51EC190B16F0E3F841EC58
:10570000100BB0EE408AF0EE608A51EC180B15F0E9
:1057100011FF81B24E4800E05EE00C3020F814101A
:1057200049E09DF807109DF8062001EB022015F0D6
:105730002EFF41EC100BB0EE409AF0EE609A9FED18
:10574000460B53EC102B51EC190B15F087FF41EC75
:10575000100BB0EE408AF0EE608A51EC180B15F099
:10576000E9FE81B23A480C3020F814109DF805107B
:105770009DF8042001EB022015F009FF41EC100B0D
:10578000B0EE409AF0EE609A9FED350B53EC102B83
:1057900051EC190B15F062FF41EC100BB0EE408A92
:1057A000F0EE608A51EC180B15F0C4FE81B2284867
:1057B000163020F81410601CC4B2052CFFF642AF5E
:1057C00001252348808920B92148C08A08B90020D2
:1057D000089000201D4908709DF8200010F01F0F50
:1057E0001AD11B4890F8200010F0800F08D01848FC
:1057F00090F8200020F08000154981F820000BE08F
:105800004FF6FF7012498881C882084690F8200040
:1058100000F0E00081F820000C480078F02802DD5C
:105820000A200A490870284602B0BDEC068B38BD34
:105830000004024000080240B4024142000041421C
:105840004354502049443A25780D0A00180000209E
:105850001C000020F4D401087B14AE47E17AD43F49
:10586000D881734694F6D23F0000000000008940C2
:10587000002100BF19E010F0800F03D00122FE4B81
:105880001A6002E00022FC4B1A604FEA40624FEAC5
:1058900012604FF00002F94B1A604FF00102F84B12
:1058A000C3F8B42201F10102D1B20829E3DB704749
:1058B00070B50646002500240020F0490860F04934
:1058C000C1F8BC02EF4908603046FFF7D1FF06205F
:1058D00005F0ACFE0020EA49C1F8B402012005F051
:1058E000A5FE0120E549086005F0A0FE0020E4497E
:1058F000C1F8B40200BF15E04FF6FF7000EA44049F
:105900000020DE4908604FF0010005F08FFE012005
:10591000DB49C1F8B402DC48006808B1601C84B2FD
:10592000681CC5B2102DE7DB24110120D5490860A1
:10593000204670BD2DE9FE4380460027002406E086
:105940004046FFF7B5FF2DF81400601C84B2052C0B
:10595000F6DB002416E0601C85B20FE03DF8140071
:105960003DF81510884207DD3DF814603DF815003C
:105970002DF814002DF81560681C85B2052DEDDB9F
:10598000601C84B2042CE6DB0027012405E03DF80E
:105990001400384487B2601C84B2042CF7DB032067
:1059A00097FBF0F086B23046BDE8FE832DE9F0416A
:1059B00004460D46B5480078FFF7BCFF0646B448DC
:1059C0000078FFF7B7FF074626802F800120BDE84B
:1059D000F0817FB504460D4602A903A8FFF7E6FF54
:1059E000064616B9002004B070BD694601A8FFF74D
:1059F000DDFF06460EB90020F5E7BDF80400BDF84E
:105A00000C10884206DCBDF80C10BDF804003230E2
:105A100081420CDBBDF80C00BDF80410884236DC76
:105A2000BDF80410BDF80C00323081422FDABDF809
:105A30000000BDF80810884206DCBDF80810BDF86B
:105A40000000323081420CDBBDF80800BDF80010C8
:105A500088421CDCBDF80010BDF8080032308142DD
:105A600015DABDF80C10BDF80420881800EBD071D1
:105A7000C1F34F012180BDF80810BDF8002088183F
:105A800000EBD071C1F34F0129800120ABE700206A
:105A9000A9E770B504460D4616467E48068004F117
:105AA0000D018AB2193988B22B462946FEF706FF46
:105AB00005F10D0083B2193881B222462046FEF767
:105AC000FDFE6A1C91B2621C90B2FBF7C0F86A1C22
:105AD00091B2621E90B2FBF7BAF86A1E91B2621CD4
