:020000040800F2
:1000000000500020BD750008590600085B06000876
:100010005F0600086306000867060008000000008D
:100020000000000000000000000000006B06000857
:100030006D060008000000006F0600087106000849
:10004000D7750008D7750008D7750008D775000860
:10005000D7750008D7750008D7750008D775000850
:10006000D7750008D7750008D7750008D775000840
:10007000D7750008D7750008D7750008D775000830
:10008000D7750008D7750008D7750008D775000820
:10009000D7750008D7750008D7750008D775000810
:1000A000D7750008D7750008D7750008D775000800
:1000B000D7750008D7750008D7750008D7750008F0
:1000C000D7750008D7750008D7750008D7750008E0
:1000D000D775000833750008D7750008D775000874
:1000E000D7750008D7750008D7750008D7750008C0
:1000F000D7750008D7750008D7750008D7750008B0
:10010000D7750008A1710008D7750008D7750008D9
:10011000D7750008D7750008D7750008D77500088F
:10012000D7750008D7750008D7750008D77500087F
:10013000D7750008D7750008D7750008D77500086F
:10014000D7750008D7750008D77500083DC80008A6
:10015000D7750008D7750008D7750008D77500084F
:10016000D7750008D7750008D7750008D77500083F
:10017000D7750008D7750008D7750008D77500082F
:10018000D7750008D775000800F002F800F061F894
:100190000AA090E8000C82448344AAF10107DA45E2
:1001A00001D100F056F8AFF2090EBAE80F0013F0D3
:1001B000010F18BFFB1A43F001031847D8E40000F1
:1001C000F8E400000A444FF0000C10F8013B13F073
:1001D000070408BF10F8014B1D1108BF10F8015BA0
:1001E000641E05D010F8016B641E01F8016BF9D193
:1001F00013F0080F1EBF10F8014BAD1C0C1B09D1EA
:100200006D1E58BF01F801CBFAD505E014F8016B5B
:1002100001F8016B6D1EF9D59142D6D370470000ED
:100220000023002400250026103A28BF78C1FBD8FF
:10023000520728BF30C148BF0B60704778290CF0C7
:100240008D84002070471FB50CF0ECFD1FBD10B56C
:1002500010BD0CF0B7FD1146FFF7F5FF00F010F8E8
:100260000CF0D5FD03B4FFF7F2FF03BC07F0FEF876
:1002700030BF72B6704762B6704780F30888704727
:100280001CB5002400254FF4A06007F0B5F9A820A4
:1002900007F06CF84FF4E13007F0F5F800F0F0FAF1
:1002A00001F095F804F0F2FE05F00DF84FF47840F7
:1002B0009A4908809AA010210B46C822CDE9001067
:1002C00032211E2004F0A3FE99A010210B46C82263
:1002D000CDE9001046211E2004F099FE9AA01021BD
:1002E0000B46C822CDE900105A211E2004F08FFED3
:1002F0009AA010210B46C822CDE900106E211E20C5
:1003000004F085FE05F032FF50B197A010210B4696
:10031000C822CDE9001082211E2004F078FE16E0EC
:1003200095A010210B46C822CDE9001082211E2085
:1003300004F06DFE102000909548D0E912100303E0
:1003400043EA115205238221862004F0B7FD04F010
:1003500099FFA0F56F4114390AD08EA010210B46E9
:10036000C822CDE9001082211E2004F050FE09E0D1
:100370008CA010210B46C822CDE9001096211E202A
:1003800004F045FE8CA010210B46C822CDE90010D8
:10039000AA211E2004F03BFE8C488D4B8D4A012182
:1003A00000908D480AF08FFD4FF4E16007F03EF8B1
:1003B000B3E0012007F03AF888480078864268D018
:1003C0004FF6FF70CE23F022BE2100901E2004F0D5
:1003D00094FB8248007810F0010F10D00020804973
:1003E000086080A04FF010010B464FF0C802CDE925
:1003F00000104FF0BE014FF01E0004F008FE7748D9
:10040000007810F0020F10D000207549086079A024
:100410004FF010010B464FF0C802CDE900104FF02D
:10042000BE014FF01E0004F0F2FD6C48007810F0A1
:10043000040F0AD073A010210B46C822CDE900108A
:10044000D2211E2004F0E3FD08E04FF6FF70E22306
:10045000F022D22100901E2004F04FFB5F4800786C
:1004600010F0080F0AD06BA010210B46C822CDE96E
:100470000010E6211E2004F0CAFD08E04FF6FF70D0
:10048000F623F022E62100901E2004F036FB5348AC
:1004900006786448007887421AD0624800780128BC
:1004A0000AD161A010210B46C822CDE90010AA2173
:1004B0001E2004F0ACFD09E060A010210B46C8220C
:1004C000CDE90010AA211E2004F0A1FD55480778AF
:1004D000681CC5B2C82D20D1002501204049086004
:1004E0005B48D0F8980208B9012000E00020594983
:1004F00008603A48007810F0100F04D00024012062
:100500004849087006E0601CC4B20A2C02DD0020D5
:10051000444908700020314908704AE7140000205F
:100520004D63756465762053544D33324634000074
:1005300055534220436172642052656164657220A4
:1005400054455354000000006D63756465762E7445
:10055000616F62616F2E636F6D0000003230313564
:100560002F392F350000000053442043617264206E
:100570004572726F722100005344204361726420FF
:1005800053697A653A20202020204D420000000067
:10059000F0170020573235513136204572726F7294
:1005A0002100000053504920464C415348205369D4
:1005B0007A653A324D42000055534220436F6E6EC9
:1005C000656374696E672E2E2E000000680100209E
:1005D0009000002000010020840100203C01002048
:1005E0009C0240425553422057726974696E672ECF
:1005F0002E2E00005553422052656164696E672EAD
:100600002E2E0000555342205772697465204572A2
:1006100072200000555342205265616420204572CB
:10062000722000006401002055534220436F6E6E1B
:10063000656374656420202020000000555342202B
:10064000446973436F6E6E656374656420000000D7
:100650000000404298024042704700BFFEE700BFE2
:10066000FEE700BFFEE700BFFEE770477047704738
:10067000704700000CB5002001900090754800689C
:1006800040F480307349086000BF7248006800F48D
:10069000003000900198401C0190009818B9019812
:1006A000B0F5A04FF1D16B48006810F4003F02D0C4
:1006B0000120009001E0002000900098012845D121
:1006C00064484030006840F0805062494031086022
:1006D0006148006840F440405F4908605D48083068
:1006E00000685C49083108600846006840F4004032
:1006F00008600846006840F4A05008605748091F89
:100700000860081F006840F08070091F086000BF83
:100710005048006810F0007FFAD040F20570504950
:1007200008604C480830006820F00300494908314F
:1007300008600846006840F00200086000BF4548B5
:100740000830006800F00C000828F8D10CBD10B586
:100750004448006840F47000424908603D48006821
:1007600040F001003B49086000203A490831086028
:10077000384800683C490840364908603B48091D34
:100780000860081F006820F48020091F086000200E
:1007900030490C310860FFF76DFF4FF000603149C0
:1007A0008039086010BD70B50020002202230024AB
:1007B0000221284D08352D6805F00C0020B10428D1
:1007C00006D0082834D107E0294D2A4E356033E0A1
:1007D000294D284E35602FE01E4D2D1D2D68C5F387
:1007E00080541C4D2D1D2D6805F03F0154B1224D44
:1007F000B5FBF1F5174E361D3668C6F3881605FBB6
:1008000006F209E01A4DB5FBF1F5124E361D3668B9
:10081000C6F3881605FB06F20E4D2D1D2D68C5F397
:1008200001456D1C6B00B2FBF3F5124E356003E021
:100830000F4D104E356000BF00BF064D08352D68C6
:10084000C5F303150D4E705D0A4D2D68C540094E68
:10085000356070BD00380240007000400854400709
:10086000003C024088ED00E0FFFFF6FE103000245F
:100870000024F4000000002000127A000400002090
:100880001CB50121084607F02DFEC0200090012074
:100890008DF8040000208DF8060003208DF8050077
:1008A00001208DF807006946034806F09DFFC0212E
:1008B000014807F015F81CBD0000024001B5BDF865
:1008C00000000090BDF80000F749088008BD01B5A0
:1008D000BDF800000090BDF80000F349891C0880B5
:1008E00008BD08B5F048801C00880090BDF80000E5
:1008F00008BD03B5BDF80000EB490880BDF8040051
:10090000891C08800CBD01B5BDF80000FFF7D6FFBB
:10091000052006F045FDFFF7E4FF08BDE348008928
:10092000E14908807047E049891C0880704730B56C
:10093000014601F01F04C1F34513CA0AE50205EBA5
:1009400043151544A8B230BD00BF0100A0F101025B
:10095000D0B2FAD1704730B504460D46D3488088EE
:10096000A0F51341413905D0D0488088A0F5A641B3
:10097000103914D1CD494889FFF7A0FF2012FFF7A5
:10098000A6FFE0B2FFF7A3FFC8498889FFF796FFEB
:100990002812FFF79CFFE8B2FFF799FF5DE0C3481C
:1009A0008088A0F5D04104391DD1C0488079012844
:1009B00004D1BE480088401E001B84B2BB49488950
:1009C000FFF77CFF2012FFF782FFE0B2FFF77FFF07
:1009D000B6498889FFF772FF2812FFF778FFE8B25F
:1009E000FFF775FF39E0B1488088A0F5AA411039BA
:1009F00020D1AE494889FFF761FF2012FFF767FF5A
:100A0000AA494989491C88B2FFF758FFE0B2FFF7AD
:100A10005EFFA6498889FFF751FF2812FFF757FFAD
:100A2000A2498989491C88B2FFF748FFE8B2FFF75D
:100A30004EFF12E09D488079012804D19B48008830
:100A4000401E001B84B2994948892146FFF751FF97
:100A5000964988892946FFF74CFF30BD3EB50446CC
:100A60000D46002002900190009090480088A0421E
:100A700003DD8E484088A84201DC00203EBD2946A7
:100A80002046FFF768FF89488088A0F51341413967
:100A90000BD086488088A0F5D041043905D0834822
:100AA0008088A0F5A641103903D12E20FFF706FF5C
:100AB0000DE07E488088A0F5AA41103904D14FF49A
:100AC0003850FFF7FBFE02E02220FFF7F7FE7748E1
:100AD0008088A0F51341203902D10220FFF734FFAE
:100AE000FFF7FFFE0220FFF72FFFFFF7FAFE02904D
:100AF0006E488088A0F5134141390BD06B4880883F
:100B0000A0F5A641103905D068488088A0F5AA4113
:100B1000103910D10220FFF717FFFFF7E2FE009017
:100B2000BDF80800C0B20190BDF804004FF6FF7197
:100B300001EA002001905D488088A0F51341253925
:100B400017D05A488088A0F58A41353911D05748C6
:100B50008088A0F58A4131390BD054488088A0F5AF
:100B60003541053905D051488088A0F54541053902
:100B700002D1BDF8080081E74C488088A0F51341F8
:100B800041390BD049488088A0F5A641103905D0DD
:100B900046488088A0F5AA4110390DD1BDF808005B
:100BA000C012C002BDF80410891240EA4110BDF81D
:100BB000001040EAE12061E7BDF80800FFF7B7FE4A
:100BC0005CE700B539488088A0F5134141390BD066
:100BD00036488088A0F5D041043905D03348808854
:100BE000A0F5A641103903D12920FFF767FE0FE0D9
:100BF0002E488088A0F5AA41103904D14FF4245022
:100C0000FFF75CFE04E040F273110720FFF771FE6E
:100C100000BD00B525488088A0F5134141390BD0AF
:100C200022488088A0F5D041043905D01F4880882B
:100C3000A0F5A641103903D12820FFF73FFE0EE0B2
:100C40001A488088A0F5AA41103904D14FF42050E9
:100C5000FFF734FE03E000210720FFF74AFE00BD46
:100C60002DE9F04305460024A1461048807901286B
:100C700023D10E488088A0F5D04104391DD0082D1D
:100C80001AD2DFE805F00406080A0C0E151706252F
:100C900012E0072510E004250EE005250CE00125F3
:100CA0000AE0002508E00000FEFF0760780700204A
:100CB000032501E0022500BF00BFFE488088A0F5A3
:100CC0001341413911D0FB488088A0F5D041043947
:100CD0000BD0F8488088A0F5A641103905D0F5481A
:100CE0008088A0F5AA41103978D1082D1CD2DFE800
:100CF00005F00406090C0F12151800BF14E044F0AB
:100D0000800411E044F040040EE044F0C0040BE025
:100D100044F0200408E044F0600405E044F0A0043E
:100D200002E044F0E00400BF00BFE2488088A0F584
:100D3000AA41103902D14FF4585901E04FF0360959
:100D4000DC488088A0F5A641103907D0D9488088B2
:100D5000A0F5AA41103901D044F00804D548808894
:100D6000A0F5D041043901D144F00204214648469F
:100D7000FFF7BFFD14F0200F03D1CE488079012882
:100D80000FD1CC480088CB494988884218DAC94835
:100D9000B0F800804088C74908800846A0F8028063
:100DA0000EE0C4480088C3494988884208DDC1482C
:100DB000B0F800804088BF4908800846A0F802804B
:100DC000BC48807901280AD1BA488088A0F5D04172
:100DD000043904D0B7484688078803E07AE0B5486C
:100DE00006884788B3488088A0F5AA4110394AD1BF
:100DF000B0494889FFF762FD0020FFF768FDAD4963
:100E00004989491C88B2FFF759FD0020FFF75FFDB3
:100E1000A8494989891C88B2FFF750FD711EC1F3AA
:100E20000F20FFF754FDA3494989C91C88B2FFF779
:100E300045FD711EC8B2FFF74AFD9E498889FFF73C
:100E40003DFD0020FFF743FD9A498989491C88B27E
:100E5000FFF734FD0020FFF73AFD96498989891C88
:100E600088B2FFF72BFD791EC1F30F20FFF72FFD8E
:100E700090498989C91C88B2FFF720FD791EC8B244
:100E8000FFF725FD5AE08B494889FFF717FD002041
:100E9000FFF71DFD0020FFF71AFD711EC1F30F20A3
:100EA000FFF715FD711EC8B2FFF711FD8149888952
:100EB000FFF704FD0020FFF70AFD0020FFF707FD04
:100EC000791EC1F30F20FFF702FD791EC8B2FFF7AC
:100ED000FEFC33E0082D1CD2DFE805F004070A0D04
:100EE0000F12151844F0300413E044F0100410E021
:100EF00044F020040DE000BF0BE044F0380408E0AB
:100F000044F0280405E044F0180402E044F008042A
:100F100000BF00BF67488088A0F50941893905D125
:100F20004FF0110946F24000044303E04FF003097B
:100F300044F4805421464846FFF7DBFCBDE8F083CB
:100F400030B504460D4629462046FFF704FDFFF75D
:100F5000E5FC594800885949088030BD70B5044601
:100F60000D46164653488088A0F51341413905D0F7
:100F700050488088A0F5A641103914D14D494889C0
:100F8000FFF79CFC2012FFF7A2FCE0B2FFF79FFCEA
:100F900048498889FFF792FC2812FFF798FCE8B2CD
:100FA000FFF795FC5DE043488088A0F5AA41103921
:100FB00020D140494889FFF781FC2012FFF787FCC8
:100FC0003C494989491C88B2FFF778FCE0B2FFF739
:100FD0007EFC38498889FFF771FC2812FFF777FCFF
:100FE00034498989491C88B2FFF768FCE8B2FFF7E9
:100FF0006EFC36E02F488088A0F5D04104391DD121
:101000002C488079012804D12A480088401E001B02
:1010100084B228494889FFF751FC2012FFF757FC9A
:10102000E0B2FFF754FC23498889FFF747FC2812F8
:10103000FFF74DFCE8B2FFF74AFC12E01D4880794B
:10104000012804D11B480088401E001B84B21949A6
:1010500048892146FFF74DFC164988892946FFF744
:1010600048FC144800891549891E0880881C0680A0
:1010700070BD10B50446002C59D10E498871F0207E
:1010800008804FF4A070488008468088A0F513417E
:1010900041390BD007488088A0F5D041043905D0EC
:1010A00004488088A0F5A641103921D12C2001499F
:1010B000088105E078070020140000200000086087
:1010C0002A2048812B20888108468088A0F5D041BD
:1010D000043905D0FE488088A0F5A641103906D114
:1010E0004FF4A070FA4908804FF4F070488079E01E
:1010F000F7488088A0F5AA41103910D14FF430503C
:10110000F34908814FF4285048814FF42C508881CE
:101110004FF4F07008804FF44870488062E022205D
:10112000EB49088120204881212088815AE0012054
:10113000E74988714FF4A0700880F0204880084685
:101140008088A0F51341413905D0E1488088A0F599
:10115000A641103907D12C20DD4908812A20488179
:101160002B2088812BE0DA488088A0F5D041043913
:1011700007D12C20D64908812B2048812A2088813C
:101180001DE0D3488088A0F5AA41103910D14FF452
:101190003050CF4908814FF4285048814FF42C50EB
:1011A00088814FF4487008804FF4F070488006E062
:1011B0002220C74908812120488120208881C448F5
:1011C0008088A0F5D041043905D0C1488088A0F5B9
:1011D000A641103906D14FF4F070BD4908804FF494
:1011E000A07048800020FFF73BFD10BD2DE9FF4FA8
:1011F00004460D4616461F46A019401E86B2E81941
:10120000401E87B2B2488088A0F5134141390BD007
:10121000AF488088A0F5A641103905D0AC48808839
:10122000A0F5D041043920D1A9494889FFF746FBF0
:101230002012FFF74CFBE0B2FFF749FB3012FFF73B
:1012400046FBF0B2FFF743FBA1498889FFF736FB65
:101250002812FFF73CFBE8B2FFF739FB3812FFF723
:1012600036FBF8B2FFF733FB7DE099488088A0F5A4
:10127000AA41103944D196494889FFF71FFB201233
:10128000FFF725FB92494989491C88B2FFF716FBF5
:10129000E0B2FFF71CFB8E494989891C88B2FFF731
:1012A0000DFB3012FFF713FB89494989C91C88B22D
:1012B000FFF704FBF0B2FFF70AFB85498889FFF7C7
:1012C000FDFA2812FFF703FB81498989491C88B27E
:1012D000FFF7F4FAE8B2FFF7FAFA7D498989891C29
:1012E00088B2FFF7EBFA3812FFF7F1FA78498989EB
:1012F000C91C88B2FFF7E2FAF8B2FFF7E8FA32E069
:101300007348807901280ED1A846B94670480088F4
:10131000801B401E1FFA80FA6D480088001B401E8B
:101320001FFA80FB03E0A046B146AA46BB46502008
:10133000039051200290522001905320009041468A
:101340000398FFF7D6FA49460298FFF7D2FA5146BA
:101350000198FFF7CEFA59460098FFF7CAFA2946D6
:101360002046FFF7F8FABDE8FF8F70B50446002667
:10137000574805884088454355488088A0F5D041A6
:10138000043916D152488079012812D100205049E1
:1013900088712A2048812B20888100210846FFF788
:1013A000DAFA01204A4988712B2048812A20888155
:1013B00003E000210846FFF7CEFAFFF7AFFA002658
:1013C00002E044480480761CAE42FAD370BD00B5FA
:1013D000A1B00020209001211A2007F083F80121FC
:1013E000084607F0B7F802201E9001208DF87C0017
:1013F00000208DF87E0002208DF87D0001208DF800
:101400007F001EA9344806F0EFF94EF2B3701E902B
:1014100002208DF87C0000208DF87E0003208DF8DE
:101420007D0001208DF87F001EA92C4806F0DCF914
:101430004FF680701E9002208DF87C0000208DF801
:101440007E0003208DF87D0001208DF87F001EA90D
:10145000234806F0C9F90C220021204806F04FFA73
:101460000C2201211D4806F04AFA0C2204211B48D7
:1014700006F045FA0C220521184806F040FA0C2225
:101480000721164806F03BFA0C220821134806F003
:1014900036FA0C220921114806F031FA0C220A21F1
:1014A0000E4806F02CFA0C220D210C4806F027FA03
:1014B0000C220E21094806F022FA0C220F210748BF
:1014C00006F01DFA0C220721054806F018FA09E07B
:1014D000780700200000086000040240000C024071
:1014E000001002400C220821FD4806F008FA0C22E8
:1014F0000921FB4806F003FA0C220A21F84806F0FD
:10150000FEF90C220B21F64806F0F9F90C221146DF
:10151000F34806F0F4F90C220D21F14806F0EFF93A
:101520000C220E21EE4806F0EAF90C220F21EC48BD
:1015300006F0E5F90F200890002009903C200A9061
:1015400000200B900C900D900E900920019000202F
:1015500002900820039000200490059006900790C8
:101560000F90109011901020129000201390159061
:101570001490169017904FF48050189000201990F6
:101580004FF480401A9000201B9008A81C9001A8DE
:101590001D900FA806F008FA0121002006F08CFA31
:1015A000322005F043FF01210020FFF7A2F932208D
:1015B00005F03CFF0020FFF7A6F9CA4988800846DD
:1015C0008088FF280ADB08468088A0F57F41FF3924
:1015D00004D0C4488088B0F5134F7CD1D320FFF7E6
:1015E0006DF9FFF77EF9BF498880FFF77AF9BD49A9
:1015F0008880FFF776F9BB498880084680884FF6D7
:10160000FF7101EA0020B7498880FFF76AF9B54900
:1016100089880843B349888008468088A0F513412B
:10162000413978D0BF20FFF749F9FFF75AF9AD49A2
:101630008880FFF756F9AB498880FFF752F9A9492E
:101640008880FFF74EF9A7498880084680884FF6C2
:10165000FF7101EA0020A3498880FFF742F9A14900
:10166000898808439F49888008468088A0F5D04132
:10167000043950D0D420FFF721F9FFF732F9994906
:101680008880FFF72EF997498880FFF72AF9954956
:101690008880084680884FF6FF7101EA0020914952
:1016A0008880FFF71EF98F49898808438D49888013
:1016B00008468088A0F5A64110392CD04FF45A4036
:1016C000FFF7FCF8FFF70DF9864988804FF45B407F
:1016D000FFF7F4F800E01EE0FFF703F98149888086
:1016E000084680884FF6FF7101EA00207D49888016
:1016F0004FF45C40FFF7E2F8FFF7F3F87949898887
:1017000008437849888008468088B0F5004F02D1A8
:1017100045F21050888073488088A0F51341413904
:101720000BD070488088A0F5A641103905D06D48CF
:101730008088A0F5AA4110391DD16B48006820F0BF
:101740000F004FF02041C1F81C010846D0F81C01E1
:1017500020F47060C1F81C010846D0F81C0140F06C
:101760000300C1F81C010846D0F81C0140F40070C9
:10177000C1F81C0128E05B488088A0F5D0410439FD
:1017800005D058488088A0F5454105391CD15648F8
:10179000006820F00F004FF02041C1F81C010846FE
:1017A000D0F81C0120F47060C1F81C010846D0F884
:1017B0001C0140F00A00C1F81C010846D0F81C01C9
:1017C00040F44060C1F81C014648818847A00BF0F6
:1017D00085F944488088A0F5134141397ED1CF2056
:1017E000FFF76CF80020FFF772F82098401C20905B
:1017F000C120FFF76CF83020FFF769F8ED20FFF704
:101800005DF86420FFF763F80320FFF760F812200B
:10181000FFF75DF88120FFF75AF8E820FFF74EF850
:101820008520FFF754F81020FFF751F87A20FFF7D2
:101830004EF8CB20FFF742F83920FFF748F82C206C
:10184000FFF745F80020FFF742F83420FFF73FF894
:101850000220FFF73CF8F720FFF730F82020FFF7D1
:1018600036F8EA20FFF72AF80020FFF730F80020CA
:10187000FFF72DF8C020FFF721F81B20FFF727F80E
:10188000C120FFF71BF80120FFF721F8C520FFF763
:1018900015F83020FFF71BF83020FFF718F8C720A5
:1018A000FFF70CF8B720FFF712F83620FFF706F81D
:1018B0004820FFF70CF83A20FFF700F85520FFF713
:1018C00006F8B120FEF7FAFF0020FFF700F81A2013
:1018D000FEF7FDFFB620FEF7F1FF0FE0A9E00000E4
:1018E00000100240780700201C0100A0204C434457
:1018F0002049443A25780D0A000000000A20FEF72E
:10190000E6FFA220FEF7E3FFF220FEF7D7FF00205C
:10191000FEF7DDFF2620FEF7D1FF0120FEF7D7FFFF
:10192000E020FEF7CBFF0F20FEF7D1FF2A20FEF7C5
:10193000CEFF2820FEF7CBFF0820FEF7C8FF0E20C1
:10194000FEF7C5FF0820FEF7C2FF5420FEF7BFFFD9
:10195000A920FEF7BCFF4320FEF7B9FF0A20FEF7DF
:10196000B6FF0F20FEF7B3FF0020FEF7B0FF002008
:10197000FEF7ADFF0020FEF7AAFF0020FEF7A7FF4D
:10198000E120FEF79BFF0020FEF7A1FF1520FEF7E8
:101990009EFF1720FEF79BFF0720FEF798FF112000
:1019A000FEF795FF0620FEF792FF2B20FEF78FFF34
:1019B0005620FEF78CFF3C20FEF789FF0520FEF73E
:1019C00086FF1020FEF783FF0F20FEF780FF3F20E9
:1019D000FEF77DFF3F20FEF77AFF0F20FEF777FF2F
:1019E0002B20FEF76BFF0020FEF771FF0020FEF7B3
:1019F0006EFF0120FEF76BFF3F20FEF768FF2A20F5
:101A0000FEF75CFF0020FEF762FF0020FEF75FFF9D
:101A10000020FEF75CFFEF20FEF759FF1120FEF7D4
:101A20004DFF782005F002FD2920FEF747FF03F067
:101A300058B8FE488088A0F5D04104397ED11120E5
:101A4000FEF73CFF142005F0F1FCD020FEF736FF36
:101A50000720FEF73CFF4220FEF739FF1D20FEF76E
:101A600036FFD120FEF72AFF0020FEF730FF1A20B4
:101A7000FEF72DFF0920FEF72AFFD220FEF71EFFFA
:101A80000120FEF724FF2220FEF721FFC020FEF7F1
:101A900015FF1020FEF71BFF3B20FEF718FF00206C
:101AA000FEF715FF0220FEF712FF1120FEF70FFFD1
:101AB000C520FEF703FF0320FEF709FFC820FEF74D
:101AC000FDFE0020FEF703FF2520FEF700FF21208A
:101AD000FEF7FDFE0520FEF7FAFE0020FEF7F7FEFA
:101AE0000A20FEF7F4FE6520FEF7F1FE2520FEF742
:101AF000EEFE7720FEF7EBFE5020FEF7E8FE0F200B
:101B0000FEF7E5FE0020FEF7E2FEF820FEF7D6FE27
:101B10000120FEF7DCFEFE20FEF7D0FE0020FEF7DF
:101B2000D6FE0220FEF7D3FE2020FEF7C7FE3620A9
:101B3000FEF7C4FE0820FEF7CAFE00E02AE03A20C5
:101B4000FEF7BCFE5520FEF7C2FE2B20FEF7B6FEC8
:101B50000020FEF7BCFE0020FEF7B9FE0120FEF7D4
:101B6000B6FE3F20FEF7B3FE2A20FEF7A7FE0020B8
:101B7000FEF7ADFE0020FEF7AAFE0120FEF7A7FE4D
:101B8000DF20FEF7A4FE782005F050FC2920FEF7A8
:101B900095FE4CE7A5488088A0F5A641103940F095
:101BA0007C87ED20FEF78AFE0120FEF790FEFE20E6
:101BB000FEF78DFEEE20FEF781FEDE20FEF787FEAB
:101BC0002120FEF784FEF120FEF778FE0120FEF7CB
:101BD0007EFEDF20FEF772FE1020FEF778FEC420A6
:101BE000FEF76CFE8F20FEF772FEC620FEF766FE43
:101BF0000020FEF76CFEE220FEF769FEE220FEF711
:101C000066FEE220FEF763FEBF20FEF757FEAA2025
:101C1000FEF75DFEB020FEF751FE0D20FEF757FEE9
:101C20000020FEF754FE0D20FEF751FE0020FEF7C7
:101C30004EFE1120FEF74BFE0020FEF748FE192055
:101C4000FEF745FE0020FEF742FE2120FEF73FFE94
:101C50000020FEF73CFE2D20FEF739FE0020FEF7A7
:101C600036FE3D20FEF733FE0020FEF730FE5D20FD
:101C7000FEF72DFE0020FEF72AFE5D20FEF727FE70
:101C80000020FEF724FEB120FEF718FE8020FEF7AC
:101C90001EFE0020FEF71BFE8B20FEF718FE002024
:101CA000FEF715FE9620FEF712FE0020FEF70FFE4F
:101CB000B220FEF703FE0020FEF709FE0020FEF72B
:101CC00006FE0220FEF703FE0020FEF700FE0320C2
:101CD000FEF7FDFD0020FEF7FAFDB320FEF7EEFD56
:101CE0000020FEF7F4FD0020FEF7F1FD0020FEF7D6
:101CF000EEFD0020FEF7EBFD0020FEF7E8FD0020E2
:101D0000FEF7E5FD0020FEF7E2FD0020FEF7DFFD17
:101D10000020FEF7DCFD0020FEF7D9FD0020FEF7D5
:101D2000D6FD0020FEF7D3FD0020FEF7D0FD0020F9
:101D3000FEF7CDFD0020FEF7CAFD0020FEF7C7FD2F
:101D40000020FEF7C4FD0020FEF7C1FD0020FEF7D5
:101D5000BEFD0020FEF7BBFD0020FEF7B8FD002011
:101D6000FEF7B5FD0020FEF7B2FD0020FEF7AFFD47
:101D7000B420FEF7A3FD8B20FEF7A9FD0020FEF79F
:101D8000A6FD9620FEF7A3FD0020FEF7A0FDA120F2
:101D9000FEF79DFD0020FEF79AFDB520FEF78EFDB3
:101DA0000220FEF794FD0020FEF791FD0320FEF7D0
:101DB0008EFD0020FEF78BFD0420FEF788FD00203D
:101DC000FEF785FDB620FEF779FD0020FEF77FFDCA
:101DD0000020FEF77CFDB720FEF770FD0020FEF727
:101DE00076FD0020FEF773FD3F20FEF770FD00201A
:101DF000FEF76DFD5E20FEF76AFD0020FEF767FD31
:101E00006420FEF764FD0020FEF761FD8C20FEF7E4
:101E10005EFD0020FEF75BFDAC20FEF758FD0020C4
:101E2000FEF755FDDC20FEF752FD01E078070020AB
:101E30000020FEF74CFD7020FEF749FD0020FEF764
:101E400046FD9020FEF743FD0020FEF740FDEB200D
:101E5000FEF73DFD0020FEF73AFDDC20FEF737FDE2
:101E60000020FEF734FDB820FEF728FD0020FEF725
:101E70002EFD0020FEF72BFD0020FEF728FD0020A0
:101E8000FEF725FD0020FEF722FD0020FEF71FFDD6
:101E90000020FEF71CFD0020FEF719FDBA20FEF71A
:101EA0000DFD2420FEF713FD0020FEF710FD00209D
:101EB000FEF70DFD0020FEF70AFDC120FEF7FEFC37
:101EC0002020FEF704FD0020FEF701FD5420FEF760
:101ED000FEFC0020FEF7FBFCFF20FEF7F8FC0020D4
:101EE000FEF7F5FCC220FEF7E9FC0A20FEF7EFFC46
:101EF0000020FEF7ECFC0420FEF7E9FC0020FEF7D2
:101F0000E6FCC320FEF7DAFC3C20FEF7E0FC0020F4
:101F1000FEF7DDFC3A20FEF7DAFC0020FEF7D7FCE6
:101F20003920FEF7D4FC0020FEF7D1FC3720FEF765
:101F3000CEFC0020FEF7CBFC3C20FEF7C8FC0020C6
:101F4000FEF7C5FC3620FEF7C2FC0020FEF7BFFC02
:101F50003220FEF7BCFC0020FEF7B9FC2F20FEF774
:101F6000B6FC0020FEF7B3FC2C20FEF7B0FC0020EE
:101F7000FEF7ADFC2920FEF7AAFC0020FEF7A7FC27
:101F80002620FEF7A4FC0020FEF7A1FC2420FEF78B
:101F90009EFC0020FEF79BFC2420FEF798FC00200E
:101FA000FEF795FC2320FEF792FC0020FEF78FFC45
:101FB0003C20FEF78CFC0020FEF789FC3620FEF763
:101FC00086FC0020FEF783FC3220FEF780FC002018
:101FD000FEF77DFC2F20FEF77AFC0020FEF777FC51
:101FE0002C20FEF774FC0020FEF771FC2920FEF780
:101FF0006EFC0020FEF76BFC2620FEF768FC00203C
:10200000FEF765FC2420FEF762FC0020FEF75FFC73
:102010002420FEF75CFC0020FEF759FC2320FEF78D
:1020200056FC0020FEF753FCC420FEF747FC62205C
:10203000FEF74DFC0020FEF74AFC0520FEF747FCAA
:102040000020FEF744FC8420FEF741FC0020FEF750
:102050003EFCF020FEF73BFC0020FEF738FC182089
:10206000FEF735FC0020FEF732FCA420FEF72FFC23
:102070000020FEF72CFC1820FEF729FC0020FEF7BC
:1020800026FC5020FEF723FC0020FEF720FC0C204D
:10209000FEF71DFC0020FEF71AFC1720FEF717FCC8
:1020A0000020FEF714FC9520FEF711FC0020FEF73F
:1020B0000EFCF320FEF70BFC0020FEF708FCE620E8
:1020C000FEF705FC0020FEF702FCC520FEF7F6FB3C
:1020D0003220FEF7FCFB0020FEF7F9FB4420FEF760
:1020E000F6FB0020FEF7F3FB6520FEF7F0FB002077
:1020F000FEF7EDFB7620FEF7EAFB0020FEF7E7FB9C
:102100008820FEF7E4FB0020FEF7E1FBC620FEF787
:10211000D5FB2020FEF7DBFB0020FEF7D8FB1720C5
:10212000FEF7D5FB0020FEF7D2FB0120FEF7CFFB28
:102130000020FEF7CCFBC720FEF7C0FB0020FEF717
:10214000C6FB0020FEF7C3FB0020FEF7C0FB00200B
:10215000FEF7BDFBC820FEF7B1FB0020FEF7B7FB82
:102160000020FEF7B4FB0020FEF7B1FB0020FEF7D5
:10217000AEFBC920FEF7A2FB0020FEF7A8FB002063
:10218000FEF7A5FB0020FEF7A2FB0020FEF79FFB59
:102190000020FEF79CFB0020FEF799FB0020FEF7D5
:1021A00096FB0020FEF793FB0020FEF790FB00203B
:1021B000FEF78DFB0020FEF78AFB0020FEF787FB71
:1021C0000020FEF784FB0020FEF781FB0020FEF7D5
:1021D0007EFB0020FEF77BFBE020FEF76FFB162066
:1021E000FEF775FB0020FEF772FB1C20FEF76FFB6D
:1021F0000020FEF76CFB2120FEF769FB0020FEF7B4
:1022000066FB3620FEF763FB0020FEF760FB4620EE
:10221000FEF75DFB0020FEF75AFB5220FEF757FB4E
:102220000020FEF754FB6420FEF751FB0020FEF770
:102230004EFB7A20FEF74BFB0020FEF748FB8B207D
:10224000FEF745FB0020FEF742FB9920FEF73FFB1F
:102250000020FEF73CFBA820FEF739FB0020FEF72C
:1022600036FBB920FEF733FB0020FEF730FBC4201D
:10227000FEF72DFB0020FEF72AFBCA20FEF727FB06
:102280000020FEF724FBD220FEF721FB0020FEF702
:102290001EFBD920FEF71BFB0020FEF718FBE020F9
:1022A000FEF715FB0020FEF712FBF320FEF70FFBF5
:1022B0000020FEF70CFBE120FEF700FB1620FEF7E6
:1022C00006FB0020FEF703FB1C20FEF700FB0020AE
:1022D000FEF7FDFA2220FEF7FAFA0020FEF7F7FAE1
:1022E0003620FEF7F4FA0020FEF7F1FA4520FEF75B
:1022F000EEFA0020FEF7EBFA5220FEF7E8FA002093
:10230000FEF7E5FA6420FEF7E2FA0020FEF7DFFAB6
:102310007A20FEF7DCFA0020FEF7D9FA8B20FEF7D0
:10232000D6FA0020FEF7D3FA9920FEF7D0FA002063
:10233000FEF7CDFAA820FEF7CAFA0020FEF7C7FA8A
:10234000B920FEF7C4FA0020FEF7C1FAC420FEF758
:10235000BEFA0020FEF7BBFACA20FEF7B8FA00204A
:10236000FEF7B5FAD220FEF7B2FA0020FEF7AFFA78
:10237000D820FEF7ACFA0020FEF7A9FAE020FEF71D
:10238000A6FA0020FEF7A3FAF320FEF7A0FA002039
:10239000FEF79DFAE220FEF791FA0520FEF797FA84
:1023A0000020FEF794FA0B20FEF791FA0020FEF7CA
:1023B0008EFA1B20FEF78BFA0020FEF788FA3420F5
:1023C000FEF785FA0020FEF782FA4420FEF77FFA36
:1023D0000020FEF77CFA4F20FEF779FA0020FEF786
:1023E00076FA6120FEF773FA0020FEF770FA792082
:1023F000FEF76DFA0020FEF76AFA8820FEF767FA0A
:102400000020FEF764FA9720FEF761FA0020FEF73D
:102410005EFAA620FEF75BFA0020FEF758FAB72016
:10242000FEF755FA0020FEF752FAC220FEF74FFAE7
:102430000020FEF74CFAC720FEF749FA0020FEF70D
:1024400046FAD120FEF743FA0020FEF740FAD620E4
:10245000FEF73DFA0020FEF73AFADD20FEF737FAE4
:102460000020FEF734FAF320FEF731FA0020FEF7E1
:102470002EFAE320FEF722FA0520FEF728FA0020C4
:10248000FEF725FA0A20FEF722FA0020FEF71FFACF
:102490001C20FEF71CFA0020FEF719FA3320FEF785
:1024A00016FA0020FEF713FA4420FEF710FA002077
:1024B000FEF70DFA5020FEF70AFA0020FEF707FAA1
:1024C0006220FEF704FA0020FEF701FA7820FEF7FA
:1024D000FEF90020FEF7FBF98820FEF7F8F900204E
:1024E000FEF7F5F99720FEF7F2F90020FEF7EFF975
:1024F000A620FEF7ECF90020FEF7E9F9B720FEF779
:10250000E6F90020FEF7E3F9C220FEF7E0F900202B
:10251000FEF7DDF9C720FEF7DAF90020FEF7D7F95C
:10252000D120FEF7D4F90020FEF7D1F9D520FEF72F
:10253000CEF90020FEF7CBF9DD20FEF7C8F9002028
:10254000FEF7C5F9F320FEF7C2F90020FEF7BFF948
:10255000E420FEF7B3F90120FEF7B9F90020FEF7F9
:10256000B6F90120FEF7B3F90020FEF7B0F902201A
:10257000FEF7ADF90020FEF7AAF92A20FEF7A7F929
:102580000020FEF7A4F93C20FEF7A1F90020FEF799
:102590009EF94B20FEF79BF90020FEF798F95D208D
:1025A000FEF795F90020FEF792F97420FEF78FF9F7
:1025B0000020FEF78CF98420FEF789F90020FEF751
:1025C00086F99320FEF783F90020FEF780F9A22018
:1025D000FEF77DF90020FEF77AF9B320FEF777F9D0
:1025E0000020FEF774F9BE20FEF771F90020FEF717
:1025F0006EF9C420FEF76BF90020FEF768F9CD20D4
:10260000FEF765F90020FEF762F9D320FEF75FF9C7
:102610000020FEF75CF9DD20FEF759F90020FEF7F7
:1026200056F9F320FEF753F90020FEF750F9E520A4
:10263000FEF744F90020FEF74AF90020FEF747F9BB
:102640000020FEF744F90020FEF741F90220FEF7D2
:102650003EF90020FEF73BF92920FEF738F900206B
:10266000FEF735F93C20FEF732F90020FEF72FF98E
:102670004B20FEF72CF90020FEF729F95D20FEF72C
:1026800026F90020FEF723F97420FEF720F9002038
:10269000FEF71DF98420FEF71AF90020FEF717F95E
:1026A0009320FEF714F90020FEF711F9A220FEF79F
:1026B0000EF90020FEF70BF9B320FEF708F9002011
:1026C000FEF705F9BE20FEF702F90020FEF7FFF83D
:1026D000C420FEF7FCF80020FEF7F9F8CD20FEF745
:1026E000F6F80020FEF7F3F8D320FEF7F0F800200C
:1026F000FEF7EDF8DC20FEF7EAF80020FEF7E7F839
:10270000F320FEF7E4F80020FEF7E1F8E620FEF7FC
:10271000D5F81120FEF7DBF80020FEF7D8F83420BA
:10272000FEF7D5F80020FEF7D2F85620FEF7CFF8D6
:102730000020FEF7CCF87620FEF7C9F80020FEF75F
:10274000C6F87720FEF7C3F80020FEF7C0F8662031
:10275000FEF7BDF80020FEF7BAF88820FEF7B7F8BC
:102760000020FEF7B4F89920FEF7B1F80020FEF73C
:10277000AEF8BB20FEF7ABF80020FEF7A8F89920D2
:10278000FEF7A5F80020FEF7A2F86620FEF79FF8F6
:102790000020FEF79CF85520FEF799F80020FEF780
:1027A00096F85520FEF793F80020FEF790F84520A4
:1027B000FEF78DF80020FEF78AF84320FEF787F831
:1027C0000020FEF784F84420FEF781F80020FEF791
:1027D0007EF8E720FEF772F83220FEF778F8002046
:1027E000FEF775F85520FEF772F80020FEF76FF837
:1027F0007620FEF76CF80020FEF769F86620FEF7F9
:1028000066F80020FEF763F86720FEF760F8002006
:10281000FEF75DF86720FEF75AF80020FEF757F83C
:102820008720FEF754F80020FEF751F89920FEF7B4
:102830004EF80020FEF74BF8BB20FEF748F80020CA
:10284000FEF745F89920FEF742F80020FEF73FF822
:102850007720FEF73CF80020FEF739F84420FEF719
:1028600036F80020FEF733F85620FEF730F8002047
:10287000FEF72DF82320FEF72AF80020FEF727F8B0
:102880003320FEF724F80020FEF721F84520FEF75C
:102890001EF80020FEF71BF8E820FEF70FF80020D6
:1028A000FEF715F80020FEF712F89920FEF70FF852
:1028B0000020FEF70CF88720FEF709F80020FEF74D
:1028C00006F88820FEF703F80020FEF700F87720CE
:1028D000FDF7FDFF0020FDF7FAFF6620FDF7F7FF8B
:1028E0000020FDF7F4FF8820FDF7F1FF0020FDF741
:1028F000EEFFAA20FDF7EBFF0020FDF7E8FFBB206D
:10290000FDF7E5FF0020FDF7E2FF9920FDF7DFFF6F
:102910000020FDF7DCFF6620FDF7D9FF0020FDF762
:10292000D6FF5520FDF7D3FF0020FDF7D0FF55203F
:10293000FDF7CDFF0020FDF7CAFF4420FDF7C7FFDC
:102940000020FDF7C4FF4420FDF7C1FF0020FDF784
:10295000BEFF5520FDF7BBFF0020FDF7B8FFE920C3
:10296000FDF7ACFFAA20FDF7B2FF0020FDF7AFFF97
:102970000020FDF7ACFF0020FDF7A9FF0020FDF7C8
:102980009DFFAA20FDF7A3FFCF20FDF797FF0020B2
:10299000FDF79DFF0020FDF79AFF0020FDF797FF50
:1029A0000020FDF794FF0020FDF791FF0020FDF7C8
:1029B0008EFF0020FDF78BFF0020FDF788FF002031
:1029C000FDF785FF0020FDF782FF0020FDF77FFF68
:1029D0000020FDF77CFF0020FDF779FF0020FDF7C8
:1029E00076FF0020FDF773FF0020FDF770FF002049
:1029F000FDF76DFFF020FDF761FF0020FDF767FF99
:102A00005020FDF764FF0020FDF761FF0020FDF777
:102A10005EFF0020FDF75BFFF320FDF74FFF002076
:102A2000FDF755FFF920FDF749FF0620FDF74FFFA1
:102A30001020FDF74CFF2920FDF749FF0020FDF78E
:102A400046FF3A20FDF73AFF5520FDF740FF1120E1
:102A5000FDF734FF642004F0E9FC2920FDF72EFF88
:102A60003520FDF72BFF0020FDF731FF5120FDF74A
:102A700025FFFF20FDF72BFF5320FDF71FFF2C2024
:102A8000FDF725FF5520FDF719FF8220FDF71FFFF9
:102A90002C20FDF713FF02F024B8FE488088A0F533
:102AA000AA4110397ED155214FF47040FDF721FF26
:102AB000AA214FF20100FDF71CFF52214FF2020044
:102AC000FDF717FF08214FF20300FDF712FF012168
:102AD0004FF20400FDF70DFF0D214FF43040FDF7DC
:102AE00008FF0D214BF20100FDF703FF0D214BF212
:102AF0000200FDF7FEFE34214FF43640FDF7F9FEEB
:102B000034214BF20160FDF7F4FE34214BF20260F8
:102B1000FDF7EFFE0D214FF43140FDF7EAFE0D21E8
:102B20004BF20110FDF7E5FE0D214BF20210FDF70F
:102B3000E0FE34214FF43740FDF7DBFE34214BF249
:102B40000170FDF7D6FE34214BF20270FDF7D1FE85
:102B500000214FF43240FDF7CCFE00214BF2012062
:102B6000FDF7C7FE00214BF20220FDF7C2FE242133
:102B70004FF43840FDF7BDFE24214BF60100FDF770
:102B8000B8FE24214BF60200FDF7B3FE01214FF4FD
:102B90003F40FDF7AEFE0F214FF43340FDF7A9FE95
:102BA0000F2100E0FEE34BF20130FDF7A2FE0F2102
:102BB0004BF20230FDF79DFE34214FF43940FDF712
:102BC00098FE34214BF60110FDF793FE34214BF6AD
:102BD0000210FDF78EFE08214FF43540FDF789FE07
:102BE00008214BF20150FDF784FE08214BF2025000
:102BF000FDF77FFE03214FF44240FDF77AFE2421CA
:102C00004FF43A40FDF775FE24214BF60120FDF705
:102C100070FE24214BF60220FDF76BFE00214FF4DD
:102C20003C40FDF766FE78214BF60140FDF761FE62
:102C300000214BF60240FDF75CFE00214FF43D40C1
:102C4000FDF757FE78214BF60150FDF752FE0021AB
:102C50004BF60250FDF74DFE00214FF43E40FDF7CC
:102C600048FE64214BF60160FDF743FE00214FF45E
:102C70005140FDF73EFE33214DF20110FDF739FEC4
:102C800000214DF20210FDF734FE34214DF2031005
:102C9000FDF72FFE00214DF20410FDF72AFE3A2128
:102CA0004DF20510FDF725FE00214DF20610FDF74F
:102CB00020FE4A214DF20710FDF71BFE00214DF2C8
:102CC0000810FDF716FE5C214DF20910FDF711FE0C
:102CD00000214DF20A10FDF70CFE81214DF20B1080
:102CE000FDF707FE00214DF20C10FDF702FEA621B4
:102CF0004DF20D10FDF7FDFD00214DF20E10FDF718
:102D0000F8FDE5214DF20F10FDF7F3FD01214DF225
:102D10001010FDF7EEFD13214DF21110FDF7E9FD46
:102D200001214DF21210FDF7E4FD54214DF2131074
:102D3000FDF7DFFD01214DF21410FDF7DAFD8221D0
:102D40004DF21510FDF7D5FD01214DF21610FDF7DE
:102D5000D0FDCA214DF21710FDF7CBFD02214DF237
:102D60001810FDF7C6FD00214DF21910FDF7C1FD49
:102D700002214DF21A10FDF7BCFD01214DF21B108E
:102D8000FDF7B7FD02214DF21C10FDF7B2FD342115
:102D90004DF21D10FDF7ADFD02214DF21E10FDF7A5
:102DA000A8FD67214DF21F10FDF7A3FD02214DF292
:102DB0002010FDF79EFD84214DF22110FDF799FDB5
:102DC00002214DF22210FDF794FDA4214DF22310B3
:102DD000FDF78FFD02214DF22410FDF78AFDB7218A
:102DE0004DF22510FDF785FD02214DF22610FDF76D
:102DF00080FDCF214DF22710FDF77BFD02214DF222
:102E00002810FDF776FDDE214DF22910FDF771FD4A
:102E100002214DF22A10FDF76CFDF2214DF22B102C
:102E2000FDF767FD02214DF22C10FDF762FDFE213A
:102E30004DF22D10FDF75DFD03214DF22E10FDF733
:102E400058FD10214DF22F10FDF753FD03214DF2D7
:102E50003010FDF74EFD33214DF23110FDF749FDE5
:102E600003214DF23210FDF744FD6D214DF2331078
:102E7000FDF73FFD00214FF45240FDF73AFD3321AD
:102E80004DF20120FDF735FD00214DF20220FDF746
:102E900030FD01E07807002034214DF20320FDF7DA
:102EA00028FD00214DF20420FDF723FD3A214DF2CB
:102EB0000520FDF71EFD00214DF20620FDF719FD4E
:102EC0004A214DF20720FDF714FD00214DF20820A4
:102ED000FDF70FFD5C214DF20920FDF70AFD0021F1
:102EE0004DF20A20FDF705FD81214DF20B20FDF783
:102EF00000FD00214DF20C20FDF7FBFCA6214DF258
:102F00000D20FDF7F6FC00214DF20E20FDF7F1FC3F
:102F1000E5214DF20F20FDF7ECFC01214DF21020D0
:102F2000FDF7E7FC13214DF21120FDF7E2FC012132
:102F30004DF21220FDF7DDFC54214DF21320FDF778
:102F4000D8FC01214DF21420FDF7D3FC82214DF273
:102F50001520FDF7CEFC01214DF21620FDF7C9FC2E
:102F6000CA214DF21720FDF7C4FC02214DF21820B2
:102F7000FDF7BFFC00214DF21920FDF7BAFC02213C
:102F80004DF21A20FDF7B5FC01214DF21B20FDF793
:102F9000B0FC02214DF21C20FDF7ABFC34214DF2B8
:102FA0001D20FDF7A6FC02214DF21E20FDF7A1FC1D
:102FB00067214DF21F20FDF79CFC02214DF22020DD
:102FC000FDF797FC84214DF22120FDF792FC0221B0
:102FD0004DF22220FDF78DFCA4214DF22320FDF7B8
:102FE00088FC02214DF22420FDF783FCB7214DF22D
:102FF0002520FDF77EFC02214DF22620FDF779FC0D
:10300000CF214DF22720FDF774FC02214DF228203C
:10301000FDF76FFCDE214DF22920FDF76AFC02214D
:103020004DF22A20FDF765FCF2214DF22B20FDF731
:1030300060FC02214DF22C20FDF75BFCFE214DF2DD
:103040002D20FDF756FC03214DF22E20FDF751FCFB
:1030500010214DF22F20FDF74CFC03214DF23020C2
:10306000FDF747FC33214DF23120FDF742FC0321EF
:103070004DF23220FDF73DFC6D214DF23320FDF77E
:1030800038FC00214FF45340FDF733FC33214DF25F
:103090000130FDF72EFC00214DF20230FDF729FC36
:1030A00034214DF20330FDF724FC00214DF20430B1
:1030B000FDF71FFC3A214DF20530FDF71AFC002107
:1030C0004DF20630FDF715FC4A214DF20730FDF7B1
:1030D00010FC00214DF20830FDF70BFC5C214DF295
:1030E0000930FDF706FC00214DF20A30FDF701FC26
:1030F00081214DF20B30FDF7FCFB00214DF20C302D
:10310000FDF7F7FBA6214DF20D30FDF7F2FB002194
:103110004DF20E30FDF7EDFBE5214DF20F30FDF7DE
:10312000E8FB01214DF21030FDF7E3FB13214DF2D6
:103130001130FDF7DEFB01214DF21230FDF7D9FB16
:1031400054214DF21330FDF7D4FB01214DF2143020
:10315000FDF7CFFB82214DF21530FDF7CAFB0121AF
:103160004DF21630FDF7C5FBCA214DF21730FDF7C1
:10317000C0FB02214DF21830FDF7BBFB00214DF2E0
:103180001930FDF7B6FB02214DF21A30FDF7B1FB05
:1031900001214DF21B30FDF7ACFB02214DF21C303A
:1031A000FDF7A7FB34214DF21D30FDF7A2FB0221F4
:1031B0004DF21E30FDF79DFB67214DF21F30FDF7EC
:1031C00098FB02214DF22030FDF793FB84214DF254
:1031D0002130FDF78EFB02214DF22230FDF789FBF5
:1031E000A4214DF22330FDF784FB02214DF224305F
:1031F000FDF77FFBB7214DF22530FDF77AFB022169
:103200004DF22630FDF775FBCF214DF22730FDF74B
:1032100070FB02214DF22830FDF76BFBDE214DF2F1
:103220002930FDF766FB02214DF22A30FDF761FBE4
:10323000F2214DF22B30FDF75CFB02214DF22C30D8
:10324000FDF757FBFE214DF22D30FDF752FB032118
:103250004DF22E30FDF74DFB10214DF22F30FDF7D2
:1032600048FB03214DF23030FDF743FB33214DF293
:103270003130FDF73EFB03214DF23230FDF739FBD3
:103280006D214DF23330FDF734FB00214FF45440F3
:10329000FDF72FFB33214DF20140FDF72AFB002102
:1032A0004DF20240FDF725FB34214DF20340FDF7BE
:1032B00020FB00214DF20440FDF71BFB3A214DF2AB
:1032C0000540FDF716FB00214DF20640FDF711FB0E
:1032D0004A214DF20740FDF70CFB00214DF208405A
:1032E000FDF707FB5C214DF20940FDF702FB0021D1
:1032F0004DF20A40FDF7FDFA81214DF20B40FDF73A
:10330000F8FA00214DF20C40FDF7F3FAA6214DF238
:103310000D40FDF7EEFA00214DF20E40FDF7E9FAFF
:10332000E5214DF20F40FDF7E4FA01214DF2104086
:10333000FDF7DFFA13214DF21140FDF7DAFA012112
:103340004DF21240FDF7D5FA54214DF21340FDF72E
:10335000D0FA01214DF21440FDF7CBFA82214DF253
:103360001540FDF7C6FA01214DF21640FDF7C1FAEE
:10337000CA214DF21740FDF7BCFA02214DF2184068
:10338000FDF7B7FA00214DF21940FDF7B2FA02211C
:103390004DF21A40FDF7ADFA01214DF21B40FDF749
:1033A000A8FA00E004E302214DF21C40FDF7A1FA67
:1033B00034214DF21D40FDF79CFA02214DF21E40D2
:1033C000FDF797FA67214DF21F40FDF792FA0221AF
:1033D0004DF22040FDF78DFA84214DF22140FDF79A
:1033E00088FA02214DF22240FDF783FAA4214DF222
:1033F0002340FDF77EFA02214DF22440FDF779FAD1
:10340000B7214DF22540FDF774FA02214DF2264016
:10341000FDF76FFACF214DF22740FDF76AFA02213E
:103420004DF22840FDF765FADE214DF22940FDF707
:1034300060FA02214DF22A40FDF75BFAF2214DF2CB
:103440002B40FDF756FA02214DF22C40FDF751FAC0
:10345000FE214DF22D40FDF74CFA03214DF22E4096
:10346000FDF747FA10214DF22F40FDF742FA0321F4
:103470004DF23040FDF73DFA33214DF23140FDF77A
:1034800038FA03214DF23240FDF733FA6D214DF247
:103490003340FDF72EFA00214FF45540FDF729FA8D
:1034A00033214DF20150FDF724FA00214DF2025074
:1034B000FDF71FFA34214DF20350FDF71AFA0021EF
:1034C0004DF20450FDF715FA3A214DF20550FDF783
:1034D00010FA00214DF20650FDF70BFA4A214DF289
:1034E0000750FDF706FA00214DF20850FDF701FAEA
:1034F0005C214DF20950FDF7FCF900214DF20A5014
:10350000FDF7F7F981214DF20B50FDF7F2F900219B
:103510004DF20C50FDF7EDF9A6214DF20D50FDF7DF
:10352000E8F900214DF20E50FDF7E3F9E5214DF2E7
:103530000F50FDF7DEF901214DF21050FDF7D9F9DA
:1035400013214DF21150FDF7D4F901214DF2125023
:10355000FDF7CFF954214DF21350FDF7CAF90121BF
:103560004DF21450FDF7C5F982214DF21550FDF7CB
:10357000C0F901214DF21650FDF7BBF9CA214DF2F9
:103580001750FDF7B6F902214DF21850FDF7B1F9C9
:1035900000214DF21950FDF7ACF902214DF21A50FD
:1035A000FDF7A7F901214DF21B50FDF7A2F9022109
:1035B0004DF21C50FDF79DF934214DF21D50FDF7E1
:1035C00098F902214DF21E50FDF793F967214DF253
:1035D0001F50FDF78EF902214DF22050FDF789F9B9
:1035E00084214DF22150FDF784F902214DF2225041
:1035F000FDF77FF9A4214DF22350FDF77AF902215E
:103600004DF22450FDF775F9B7214DF22550FDF725
:1036100070F902214DF22650FDF76BF9CF214DF2E2
:103620002750FDF766F902214DF22850FDF761F9A8
:10363000DE214DF22950FDF75CF902214DF22A50AE
:10364000FDF757F9F2214DF22B50FDF752F9022107
:103650004DF22C50FDF74DF9FE214DF22D50FDF7A6
:1036600048F903214DF22E50FDF743F910214DF298
:103670002F50FDF73EF903214DF23050FDF739F997
:1036800033214DF23150FDF734F903214DF2325020
:10369000FDF72FF96D214DF23350FDF72AF9002186
:1036A0004FF45640FDF725F933214DF20160FDF747
:1036B00020F900214DF20260FDF71BF934214DF293
:1036C0000360FDF716F900214DF20460FDF711F9D2
:1036D0003A214DF20560FDF70CF900214DF206602C
:1036E000FDF707F94A214DF20760FDF702F90021C5
:1036F0004DF20860FDF7FDF85C214DF20960FDF721
:10370000F8F800214DF20A60FDF7F3F881214DF23F
:103710000B60FDF7EEF800214DF20C60FDF7E9F8C3
:10372000A6214DF20D60FDF7E4F800214DF20E6088
:10373000FDF7DFF8E5214DF20F60FDF7DAF8012122
:103740004DF21060FDF7D5F813214DF21160FDF731
:10375000D0F801214DF21260FDF7CBF854214DF263
:103760001360FDF7C6F801214DF21460FDF7C1F8B2
:1037700082214DF21560FDF7BCF801214DF2166073
:10378000FDF7B7F8CA214DF21760FDF7B2F8022134
:103790004DF21860FDF7ADF800214DF21960FDF70C
:1037A000A8F802214DF21A60FDF7A3F801214DF2AD
:1037B0001B60FDF79EF802214DF21C60FDF799F8A1
:1037C00034214DF21D60FDF794F802214DF21E6088
:1037D000FDF78FF867214DF21F60FDF78AF802218F
:1037E0004DF22060FDF785F884214DF22160FDF750
:1037F00080F802214DF22260FDF77BF8A4214DF202
:103800002360FDF776F802214DF22460FDF771F890
:10381000B7214DF22560FDF76CF802214DF22660CC
:10382000FDF767F8CF214DF22760FDF762F802211E
:103830004DF22860FDF75DF8DE214DF22960FDF7BD
:1038400058F802214DF22A60FDF753F8F2214DF2AB
:103850002B60FDF74EF802214DF22C60FDF749F880
:10386000FE214DF22D60FDF744F803214DF22E604C
:10387000FDF73FF810214DF22F60FDF73AF80321D4
:103880004DF23060FDF735F833214DF23160FDF730
:1038900030F803214DF23260FDF72BF86D214DF227
:1038A0003360FDF726F855214FF47040FDF721F8FD
:1038B000AA214FF20100FDF71CF852214FF202003D
:1038C000FDF717F808214FF20300FDF712F8002169
:1038D0004FF20400FDF70DF8CC214FF43140FDF715
:1038E00008F800214BF20110FDF703F805214FF411
:1038F0003640FCF7FEFF70214FF43740FCF7F9FF2C
:1039000070214BF20170FCF7F4FF01214FF43840B5
:10391000FCF7EFFF03214BF60100FCF7EAFF032160
:103920004BF60200FCF7E5FF03214BF60300FCF722
:10393000E0FF02214FF43C40FCF7DBFF00214BF697
:103940000140FCF7D6FF00214BF60240FCF7D1FF07
:10395000D0214FF44940FCF7CCFF02214CF6011076
:10396000FCF7C7FF50214CF60210FCF7C2FF5021B4
:103970004CF60310FCF7BDFF50214CF60410FCF789
:10398000B8FF00214FF45450FCF7B3FF55214FF41A
:103990006850FCF7AEFF4FF48850FCF78FFF78209B
:1039A00003F0FEFC4FF42450FCF788FF01F099B8B7
:1039B000FE488088A0F5134125397DD147F6F001F6
:1039C000E520FCF796FF4FF480710120FCF791FF92
:1039D0004FF4E0610220FCF78CFF41F2300103203C
:1039E000FCF787FF00210420FCF783FF40F202214F
:1039F0000820FCF77EFF00210920FCF77AFF002158
:103A00000A20FCF776FF00210C20FCF772FF002152
:103A10000D20FCF76EFF00210F20FCF76AFF00214C
:103A20001020FCF766FF07211120FCF762FF002140
:103A30001220FCF75EFF00211320FCF75AFF002143
:103A40000720FCF756FF41F290611020FCF751FF70
:103A500040F227211120FCF74CFF9D211220FCF79A
:103A600048FF4FF4C8511320FCF743FF25212920BC
:103A7000FCF73FFF0D212B20FCF73BFF07213020F7
:103A8000FCF737FF40F203313120FCF732FF03210E
:103A90003220FCF72EFF40F206213520FCF729FFEB
:103AA00008213620FCF725FF40F206413720FCF7BD
:103AB00020FF4FF4417100E058E03820FCF719FF77
:103AC00007213920FCF715FF40F202613C20FCF78A
:103AD00010FF08213D20FCF70CFF00215020FCF7CF
:103AE00008FFEF215120FCF704FF00215220FCF7D2
:103AF00000FF40F23F115320FCF7FBFE4FF427413B
:103B00006020FCF7F6FE01216120FCF7F2FE0021A7
:103B10006A20FCF7EEFE00218020FCF7EAFE00217F
:103B20008120FCF7E6FE00218220FCF7E2FE002166
:103B30008320FCF7DEFE00218420FCF7DAFE002162
:103B40008520FCF7D6FE10219020FCF7D2FE4FF422
:103B5000C0619220FCF7CDFE40F233110720FCF744
:103B6000C8FE22210020FCF7C4FE1FE78F48808892
:103B7000A0F5134128397DD141F28F01EC20FCF7EB
:103B8000B8FE41F23421EF20FCF7B3FE4FF4807110
:103B90000120FCF7AEFE4FF4E0610220FCF7A9FE25
:103BA00041F230010320FCF7A4FE00210420FCF7C1
:103BB000A0FE40F202210820FCF79BFE0021092014
:103BC000FCF797FE00210A20FCF793FE01210C2050
:103BD000FCF78FFE00210D20FCF78BFE00210F204B
:103BE000FCF787FE00211020FCF783FE072111203F
:103BF000FCF77FFE00211220FCF77BFE0021132042
:103C0000FCF777FE01210720FCF773FE322003F05A
:103C10000DFC41F290411020FCF76BFE40F2272191
:103C20001120FCF766FE322003F000FC8A211220EE
:103C3000FCF75FFE322003F0F9FB4FF4D051132064
:103C4000FCF757FE06212920FCF753FE0D212B20FF
:103C5000FCF74FFE322003F0E9FB00212020FCF7A7
:103C600048FE00212120FCF744FE322003F0DEFB59
:103C7000002100E075E03020FCF73BFE40F20461DB
:103C80003120FCF736FE40F205313220FCF731FEE0
:103C900000213520FCF72DFE40F609413620FCF7C7
:103CA00028FE4FF401713720FCF723FE40F201316A
:103CB0003820FCF71EFE40F207713920FCF719FE90
:103CC00000213C20FCF715FE40F60A213D20FCF7C0
:103CD00010FE322003F0AAFB00215020FCF709FE61
:103CE000EF215120FCF705FE00215220FCF701FED8
:103CF00040F23F115320FCF7FCFD4FF427416020B8
:103D0000FCF7F7FD01216120FCF7F3FD00216A209B
:103D1000FCF7EFFD00218020FCF7EBFD0021812066
:103D2000FCF7E7FD00218220FCF7E3FD0021832062
:103D3000FCF7DFFD00218420FCF7DBFD002185205E
:103D4000FCF7D7FD10219020FCF7D3FD4FF4C061A4
:103D50009220FCF7CEFD40F233110720FCF7C9FD9D
:103D600024E612488088A0F5134120397ED1084608
:103D7000FCF7BFFD4FF480710120FCF7BAFD4FF452
:103D8000E0610220FCF7B5FD41F230010320FCF7B1
:103D9000B0FD00210420FCF7ACFD40F20221082018
:103DA000FCF7A7FD0021092002E0000078070020B1
:103DB000FCF79FFD00210A20FCF79BFD01210C2050
:103DC000FCF797FD00210D20FCF793FD00210F204B
:103DD000FCF78FFD322003F029FB40F20111072090
:103DE000FCF787FD322003F021FB4FF486511020B1
:103DF000FCF77FFD07211120FCF77BFD4FF4887154
:103E00001220FCF776FD4FF430611320FCF771FDB2
:103E100000212920FCF76DFD44F210012B20FCF756
:103E200068FD00215020FCF764FDEF215120FCF7D4
:103E300060FD00215220FCF75CFD40F23F11532051
:103E4000FCF757FD4FF41C516020FCF752FD012197
:103E50006120FCF74EFD00216A20FCF74AFD00219D
:103E60008020FCF746FD0021812000E030E0FCF7D7
:103E700040FD00218220FCF73CFD00218320FCF75F
:103E800038FD00218420FCF734FD00218520FCF75B
:103E900030FD10219020FCF72CFD00219220FCF732
:103EA00028FD01219320FCF724FD4FF48871952013
:103EB000FCF71FFD00219720FCF71BFD0021982037
:103EC000FCF717FD40F273110720FCF712FD6DE5BA
:103ED000FE488088A0F5134131397DD141F21401AB
:103EE000E720FCF706FD4FF480710120FCF701FD8F
:103EF0004FF400710220FCF7FCFC41F23801032072
:103F0000FCF7F7FC40F202210820FCF7F2FC00214C
:103F10000920FCF7EEFC00210A20FCF7EAFC002156
:103F20000C20FCF7E6FC00210D20FCF7E2FC002150
:103F30000F20FCF7DEFC00211020FCF7DAFC072143
:103F40001120FCF7D6FC00211220FCF7D2FC002146
:103F50001320FCF7CEFCC82003F068FA41F2906110
:103F60001020FCF7C6FC40F227211120FCF7C1FC11
:103F7000322003F05BFA0C211220FCF7BAFC32204D
:103F800003F054FA4FF400611320FCF7B2FC112146
:103F90002920FCF7AEFC0B212B20FCF7AAFC3220D9
:103FA00003F044FA00212020FCF7A3FC40F23F116B
:103FB0002120FCF79EFC00213020FCF79AFC4FF4F6
:103FC00083713120FCF795FC00213220FCF791FC35
:103FD0004FF40171352000E064E0FCF78AFC41F207
:103FE0000A613620FCF785FC40F207713720FCF7A8
:103FF00080FC4FF483713820FCF77BFC40F20771A2
:104000003920FCF776FC40F202413C20FCF771FCC1
:1040100040F60F413D20FCF76CFC00215020FCF7DE
:1040200068FCEF215120FCF764FC00215220FCF7D2
:1040300060FC40F23F115320FCF75BFC4FF41C5135
:104040006020FCF756FC01216120FCF752FC0021A6
:104050006A20FCF74EFC00218020FCF74AFC00217E
:104060008120FCF746FC00218220FCF742FC002165
:104070008320FCF73EFC00218420FCF73AFC002161
:104080008520FCF736FC10219020FCF732FC4FF421
:10409000C0619220FCF72DFC40F233110720FCF7A1
:1040A00028FC83E489488088A0F5A84108397DD19F
:1040B0004FF480710120FCF71CFC4FF4E0610220FA
:1040C000FCF717FC41F230010320FCF712FC002141
:1040D0000420FCF70EFC40F207210820FCF709FC45
:1040E00000210920FCF705FC00210A20FCF701FC57
:1040F00000210C20FCF7FDFB00210D20FCF7F9FB53
:1041000000210F20FCF7F5FB142003F08FF941F29A
:10411000B0611020FCF7EDFB01211120FCF7E9FB59
:1041200001211720FCF7E5FB4FF49C711220FCF7EE
:10413000E0FB4FF400611320FCF7DBFB0921292091
:10414000FCF7D7FB09212A20FCF7D3FB0021A42090
:10415000FCF7CFFB00215020FCF7CBFBEF215120D7
:10416000FCF7C7FB00215220FCF7C3FB40F23F11D4
:104170005320FCF7BEFB4FF41C516020FCF7B9FB49
:1041800001216120FCF7B5FB00216A20FCF7B1FB9F
:1041900000218020FCF7ADFB00218120FCF7A9FB6A
:1041A00000218220FCF7A5FB002100E024E0832011
:1041B000FCF79FFB00218420FCF79BFB002185205E
:1041C000FCF797FB13219020FCF793FB0021922032
:1041D000FCF78FFB03219320FCF78BFB4FF48871D6
:1041E0009520FCF786FB40F273110720FCF781FB5A
:1041F000322003F01BF9B8E434488088A0F5A851B8
:10420000053965D10720FCF774FB322003F00EF965
:104210004FF48E711220FCF76CFB0121A420FCF7F7
:1042200068FB0F210820FCF764FB08210A20FCF73B
:1042300060FB08210D20FCF75CFB40F20771302089
:10424000FCF757FB07213120FCF753FB40F20361D9
:104250003220FCF74EFB4FF4E0613320FCF749FBC2
:1042600040F202213420FCF744FB02213520FCF708
:1042700040FB41F60F713620FCF73BFB40F2077123
:104280003720FCF736FB00213820FCF732FB0021F9
:104290003920FCF72EFB40F207713A20FCF729FB8E
:1042A00000213B20FCF725FB07213C20FCF721FBEC
:1042B00000213D20FCF71DFB322003F0B7F801215F
:1042C0000720FCF716FB0121172002E078070020E9
:1042D000AEE0FCF70EFB322003F0A8F84FF4BD511E
:1042E0001020FCF706FB40F217211120FCF701FB20
:1042F0004FF48F711220FCF7FCFA4FF47061132019
:10430000FCF7F7FA00212A20FCF7F3FA0A2129200A
:10431000FCF7EFFA4FF49F711220FCF7EAFA002144
:104320005020FCF7E6FAEF215120FCF7E2FA0021D9
:104330005220FCF7DEFA40F23F115320FCF7D9FA85
:104340004FF41C516020FCF7D4FA01216120FCF7E6
:10435000D0FA00216A20FCF7CCFA00218020FCF77B
:10436000C8FA00218120FCF7C4FA00218220FCF762
:10437000C0FA00218320FCF7BCFA00218420FCF75E
:10438000B8FA00218520FCF7B4FA13219020FCF73D
:10439000B0FA4FF440719220FCF7ABFA052193205C
:1043A000FCF7A7FA00219520FCF7A3FA002197203B
:1043B000FCF79FFA00219820FCF79BFA4FF48071DC
:1043C0000120FCF796FA4FF4E0610220FCF791FA25
:1043D00041F238010320FCF78CFA00210420FCF79D
:1043E00088FA00210C20FCF784FA00210F20FCF74A
:1043F00080FA00212020FCF77CFA00212120FCF724
:1044000078FA21210720FCF774FA142003F00EF843
:1044100061210720FCF76DFA142003F007F840F241
:1044200073110720FCF765FA142002F0FFFF58E330
:10443000FE488088A0F5354105397DD10846FCF756
:1044400058FA00210846FCF754FA00210846FCF708
:1044500050FA00210846FCF74CFA0121A420FCF791
:1044600048FA142002F0E2FF4FF41C516020FCF7E0
:1044700040FA40F202210820FCF73BFA4FF40571A4
:104480003020FCF736FA43F215713120FCF731FA8F
:1044900040F204613220FCF72CFA40F6166133201A
:1044A000FCF727FA42F211213420FCF722FA4FF4EC
:1044B000A8513520FCF71DFA48F207513620FCF7C9
:1044C00018FA41F207413720FCF713FA41F2034191
:1044D0003820FCF70EFA20213920FCF70AFA1A21BD
:1044E0009020FCF706FA00211020FCF702FA0721C1
:1044F0001120FCF7FEF900211220FCF7FAF9002147
:104500001320FCF7F6F9142002F090FF4FF4E66157
:104510001020FCF7EEF940F237111120FCF7E9F911
:10452000142002F083FF4FF4DC711220FCF7E1F954
:10453000142002F07BFF00E083E04FF47061132051
:10454000FCF7D7F980212A20FCF7D3F9482129204C
:10455000FCF7CFF9142002F069FF4FF480710120BD
:10456000FCF7C7F94FF4E0610220FCF7C2F941F211
:1045700038010320FCF7BDF940F202210820FCF7C6
:10458000B8F900210A20FCF7B4F900210C20FCF74F
:10459000B0F900210D20FCF7ACF930210E20FCF71A
:1045A000A8F900215020FCF7A4F9EF215120FCF7D5
:1045B000A0F900215220FCF79CF940F23F11532052
:1045C000FCF797F94FF41C516020FCF792F9012198
:1045D0006120FCF78EF900216A20FCF78AF911218D
:1045E0009020FCF786F94FF4C0619220FCF781F926
:1045F00040F202419320FCF77CF902219420FCF761
:1046000078F9142002F012FF01210720FCF771F95C
:10461000142002F00BFF61210720FCF76AF940F239
:1046200073110720FCF765F900212020FCF761F9E0
:1046300000212120FCF75DF922210020FCF759F927
:104640004FE27A488088A0F5454105397DD108467A
:10465000FCF74FF900210846FCF74BF9142002F053
:10466000E5FE00210846FCF744F900210846FCF766
:1046700040F900210846FCF73CF900210846FCF708
:1046800038F90121A420FCF734F9142002F0CEFE01
:104690004FF41C516020FCF72CF940F6060108206D
:1046A000FCF727F940F203713020FCF722F90121D1
:1046B0003120FCF71EF904213220FCF71AF94FF4DF
:1046C00081713320FCF715F94FF440713420FCF769
:1046D00010F940F203113520FCF70BF91F213620A9
:1046E000FCF707F940F203713720FCF702F90121CA
:1046F0003820FCF7FEF804213920FCF7FAF81521E0
:104700009020FCF7F6F84FF482611020FCF7F1F8E6
:1047100040F247211120FCF7ECF84FF4DE71122033
:10472000FCF7E7F84FF460611320FCF7E2F878201B
:1047300002F07CFE4FF480710120FCF7DAF84FF4B0
:1047400000710220FCF7D5F800E050E041F23001A2
:104750000320FCF7CEF808210A20FCF7CAF8002154
:104760000C20FCF7C6F820210E20FCF7C2F800212F
:104770000F20FCF7BEF800212020FCF7BAF800213A
:104780002120FCF7B6F83D212A20FCF7B2F81420CE
:1047900002F04CFE2D212920FCF7ABF8002150201F
:1047A000FCF7A7F84DF2EF015120FCF7A2F8002129
:1047B0005220FCF79EF840F23F115320FCF799F885
:1047C00000216120FCF795F800216A20FCF791F8A0
:1047D0004FF440719220FCF78CF805219320FCF7F0
:1047E00088F84FF480710720FCF783F879E10F48CF
:1047F0008088A0F58A4131397ED101210020FCF763
:1048000078F80A2002F012FE41F228611020FCF72D
:1048100070F80E211220FCF76CF840F639211320B5
:10482000FCF767F80A2002F001FE01E0780700209B
:1048300040211120FCF75DF850211520FCF759F8B4
:104840000A2002F0F3FD1E211220FCF752F80A2084
:1048500002F0ECFD4FF4B1511020FCF74AF842F69B
:1048600039211320FCF745F80A2002F0DFFD4FF450
:1048700080710120FCF73DF84FF440710220FCF7F5
:1048800038F841F238010320FCF733F840F20221F6
:104890000820FCF72EF808210A20FCF72AF800214E
:1048A0003020FCF726F840F202413120FCF721F8D5
:1048B0004FF483713220FCF71CF840F2035133208F
:1048C000FCF717F84FF482713420FCF712F840F22D
:1048D00001313520FCF70DF840F207713620FCF766
:1048E00008F840F205313720FCF703F84FF4027165
:1048F0003820FBF7FEFF00E03EE040F60B71392068
:10490000FBF7F7FF02214120FBF7F3FF4FF41C51A7
:104910006020FBF7EEFF01216120FBF7EAFF4FF477
:1049200004719020FBF7E5FF4FF485719220FBF7AF
:10493000E0FF04219320FBF7DCFF4FF48071A020FF
:10494000FBF7D7FF01210720FBF7D3FF2121072029
:10495000FBF7CFFF23210720FBF7CBFF33210720F5
:10496000FBF7C7FF40F233110720FBF7C2FF00211E
:10497000A020FBF7BEFFB4E0FE488088A0F58A4186
:104980003539F8D130211520FBF7B3FF10219A20DB
:10499000FBF7AFFF20211120FBF7ABFF43F22841CB
:1049A0001020FBF7A6FF02211220FBF7A2FF41F225
:1049B00038011320FBF79DFF282002F037FD12215C
:1049C0000846FBF796FF282002F030FD43F2204115
:1049D0001020FBF78EFF43F238011320FBF789FF0D
:1049E000462002F023FD00213020FBF782FF40F239
:1049F00002413120FBF77DFF40F207313220FBF707
:104A000078FF4FF441713320FBF773FF042134200A
:104A1000FBF76FFF40F201413520FBF76AFF40F2E0
:104A200007713620FBF765FF40F205313720FBF7B1
:104A300060FF4FF4C2613820FBF75BFF4FF4C261A7
:104A40003920FBF756FF4FF480710120FBF751FF2F
:104A50004FF440710220FBF74CFF41F2300103207C
:104A6000FBF747FF40F608010820FBF742FF08214B
:104A70000A20FBF73EFF4FF41C516020FBF739FF83
:104A800001216120FBF735FF4FF49F719020FBF768
:104A900030FF4FF480719220FBF72BFF4FF48071B1
:104AA0009320FBF726FF4FF44051A020FBF721FF96
:104AB0001021A320FBF71DFF01210720FBF719FFA1
:104AC00021210720FBF715FF23210720FBF711FF0A
:104AD00033210720FBF70DFF40F233110720FBF7CE
:104AE00008FF0020FCF7C5FA0120A34908604FF633
:104AF000FF70FCF73AFC21B000BD2DE9FC4F0546E4
:104B00000E4617469846DDF82C90002001909948F3
:104B10008088A0F5D041043929D1964880790128B0
:104B200025D1AB46354693480088C01B401E86B24F
:104B3000474690480088A0EB0B00401E1FFA80F803
:104B400000208C4988712A2048812B208881434687
:104B50003A4631462846CDF80090FFF7CEFF0120B7
:104B6000844988712B2048812A2088811CE0781B89
:104B7000401C80B20190344614E021462846FBF7E1
:104B8000EAFEFBF7CBFE4FF0000A06E07B48A0F8F8
:104B900000900AF101001FFA80FA01988245F5DBC6
:104BA000601C84B24445E8DDBDE8FC8F2DE9F84F78
:104BB00007460D4690469946DDF828B0A8EB070059
:104BC000401C1FFA80FAA9EB0500401C80B200903F
:104BD000002414E0281981B23846FBF7BCFEFBF72D
:104BE0009DFE002607E004FB0A603BF810006349C5
:104BF0000880701C86B25645F5DB601C84B20098B4
:104C00008442E7DBBDE8F88F2DE9FF4F84B0814691
:104C10008A460020039002900698A0EB09050798A9
:104C2000A0EB0A06CDF80490CDF800A0002D01DD20
:104C3000012705E00DB9002702E04FF0FF376D4274
:104C4000002E02DD4FF0010806E016B94FF0000813
:104C500002E04FF0FF387642B54201DD2C4600E01D
:104C600034464FF0000B21E0009A91B2019A90B2C5
:104C7000FCF766F9039828440390029830440290A8
:104C80000398A04205DD0398001B03900198384467
:104C900001900298A04205DD0298001B0290009846
:104CA000404400900BF101001FFA80FB601C83451B
:104CB000DADD08B0BDE8F08FF0B504460D461646C3
:104CC0001F462B46324629462046FFF79DFF3B46AE
:104CD000224629462046FFF797FF3B463246394693
:104CE0002046FFF791FF3B46324629463046FFF704
:104CF0008BFFF0BD2DE9F04306460F469046002499
:104D000045460320A0EB480943E07A1B91B23219D3
:104D100090B2FCF715F93A1B91B2721990B2FCF7F8
:104D20000FF93A1991B2721990B2FCF709F97A1990
:104D300091B2321990B2FCF703F97A1991B2321B91
:104D400090B2FCF7FDF83A1991B2721B90B2FCF7E1
:104D5000F7F87A1B91B2321B90B2FCF7F1F83A1BCC
:104D600091B2721B90B2FCF7EBF8641CB9F1000F22
:104D70000ADA05E0780700208482404200000860DB
:104D8000A000801D814404E0601B80000A30814443
:104D90006D1EAC42B9DDBDE8F0832DE9F84F8046C9
:104DA0000E4617461C46B3462046E31704EB5373E2
:104DB000DB1021464FEAE47C04EB5C7C4FEAEC0C10
:104DC000B4EBCC0C02D04FF0010C01E04FF0000C22
:104DD0006344224604EBD27C4FEA6C0C03FB0CF3D9
:104DE000DBB20093A7F12000C7B2002556E00C2CDF
:104DF00007D107EB47009F4901EB800010F80590B1
:104E000013E0102C05D19C4800EB071010F805901A
:104E10000BE0182C07D107EBC700984901EB800085
:104E200010F8059001E0BDE8F88F4FF0000A2FE080
:104E300019F0800F06D09248028831464046FCF7B0
:104E40008DF807E00A9828B98E4802883146404616
:104E5000FCF784F84FEA49604FEA1069701C86B28B
:104E600089484088B04200DCDDE7A6EB0B00A04299
:104E70000AD15E4608F101001FFA80F882480088D6
:104E8000404500DCCFE706E00AF1010000F0FF0A30
:104E9000BAF1080FCCDB00BF681CC5B20098854290
:104EA000A5DB00BFBFE710B50246012000E050437C
:104EB0000B00A1F10104E1B2F9D110BD2DE9FF4FC2
:104EC00081B0074691461E460E9D4FF0000A002411
:104ED00039E0301B401EC1B20A20FFF7E4FFB9FBE6
:104EE000F0F00A21B0FBF1F201FB1208BAF1000F59
:104EF00016D1701EA04213DDB8F1000F0ED10020B4
:104F0000AB4605EBDB71491001FB0471009088B2E0
:104F10002B4620220299FFF740FF12E04FF0010AD2
:104F20000020AB4605EBDB71491001FB04710090DA
:104F300088B208F13001CAB22B460299FFF72DFF63
:104F400000BF601CC4B2B442C3DB05B0BDE8F08F43
:104F50002DE9FF4F82B0064692461F46DDE90F4815
:104F60000020019000254DE0781B401EC1B20A20B0
:104F7000FFF799FFBAFBF0F00A21B0FBF1F201FB59
:104F80001209019850BB781EA84227DDB9F1000F25
:104F900022D118F0800F0FD008F00100A34604EBD7
:104FA000DB71491001FB0561009088B22346302275
:104FB0000399FFF7F2FE0EE008F00100A34604EBB0
:104FC000DB71491001FB0561009088B22346202265
:104FD0000399FFF7E2FE13E00120019008F00100C1
:104FE000A34604EBDB71491001FB0561009088B218
:104FF00009F13001CAB223460399FFF7CEFE00BF84
:10500000681CC5B2BD42AFDB06B0BDE8F08F2DE92C
:10501000F84704460D4690469946DDE9096704F0D5
:10502000FF0A08EB04001FFA80F809EB05001FFADD
:1050300080F916E0444502DB5446A81985B24D4577
:1050400000DB14E0002000903A78334629462046E1
:10505000FFF7A3FE304606EBD07104EB61018CB282
:105060007F1C38787E2802DC38782028E2DA00BFFE
:10507000BDE8F8872ECE0008A2D2000892D800081A
:105080001400002016000020780700201CB5012124
:10509000112003F027FA1820009000208DF804005A
:1050A00003208DF8050001208DF8070069462C4883
:1050B00002F09AFB0120009002208DF8070069465B
:1050C000284802F091FB1CBD10B5044614B1012024
:1050D000254908702448007858B31021204802F070
:1050E000E5FB50B108211E4802F0E0FB28B1012188
:1050F0001C4802F0DBFB01281BD10A2002F096F9C4
:105100000020194908701021154802F0CFFB08B99A
:10511000012010BD0821124802F0C8FB08B9022086
:10512000F7E701210F4802F0C1FB012815D1042047
:10513000EFE710210A4802F0B9FB01280DD1082140
:10514000074802F0B3FB012807D10121054802F00E
:10515000ADFB10B90120044908700020D9E7000018
:1051600000100240000002401800002010B5044664
:1051700000BF0221414804F013F90028F9D021466C
:105180003E4804F0C4F800BF01213C4804F008F98F
:105190000028F9D0394804F0B7F8C0B210BD00B506
:1051A00087B00121084603F09DF90121080303F0AF
:1051B000F3F93820059002208DF8180000208DF8B2
:1051C0001A0003208DF8190001208DF81B0005A995
:1051D0002B4802F009FB05220321294802F08FFB2E
:1051E00005220421264802F08AFB052211462448A4
:1051F00002F085FB0121080303F023FA00214FF49C
:10520000805003F01EFA0020ADF800004FF48270C9
:10521000ADF802000020ADF804000220ADF8060051
:105220000120ADF808004002ADF80A003820ADF8C2
:105230000C000020ADF80E000720ADF81000694604
:105240000E4803F0EBFE01210C4803F0DFFFFF20C6
:10525000FFF78CFF07B000BD10B504460748008873
:105260004FF6C7710840054908800846008820436A
:1052700008800121014803F0C9FF10BD0030014042
:105280000004024010B500240020D54908604FF00A
:105290009000FFF76BFF0020FFF768FF0020FFF78B
:1052A00065FF0020FFF762FFFF20FFF75FFF44EA82
:1052B0000024FF20FFF75AFF04430120C949C1F829
:1052C0008002204610BD1CB50121022003F00AF91E
:1052D000012000908DF8040000208DF806000320C6
:1052E0008DF8050001208DF807006946BE4802F0E0
:1052F0007BFA0120BA490860FFF751FF0020FFF751
:10530000ABFFFFF7BFFFB94908801CBD10B50024F3
:105310000020B34908604FF00500FFF727FFFF208A
:10532000FFF724FF04460120AE49C1F88002204661
:1053300010BD10B504460020A94908604FF00100D7
:10534000FFF714FF2046FFF711FF0120A549C1F820
:10535000800210BD10B50020A14908604FF0060082
:10536000FFF704FF01209F49C1F8800210BD10B56E
:1053700000209B4908604FF00400FFF7F7FE012072
:105380009849C1F8800210BD2DE9F04106460C464F
:1053900017460020924908604FF00300FFF7E6FE31
:1053A000C4F30740FFF7E2FEC4F30720FFF7DEFE79
:1053B000E0B2FFF7DBFE002505E0FF20FFF7D6FE99
:1053C0007055681C85B2BD42F7DB01208449086036
:1053D000BDE8F08110B500BFFFF798FF10F0010F96
:1053E000FAD110BD2DE9F04106460C461746FFF7ED
:1053F000B1FF00207A4908604FF00200FFF7B6FEC7
:10540000C4F30740FFF7B2FEC4F30720FFF7AEFE78
:10541000E0B2FFF7ABFE002504E0705DFFF7A6FEEB
:10542000681C85B2BD42F8DB01206D490860FFF7BA
:10543000D1FFBDE8F0812DE9F04107460E46144644
:10544000F0B2C0F58075AC4200DC254612E02A4679
:1054500031463846FFF7C6FFAC4200D10BE02F447F
:105460002E44601B84B2B4F5807F02DD4FF480755A
:1054700000E02546EBE700BFBDE8F08110B504462B
:1054800021465BA007F02AFB2403FFF763FFFFF729
:10549000A1FF0020524908604FF02000FFF766FE90
:1054A000C4F30740FFF762FEC4F30720FFF75EFE78
:1054B000E0B2FFF75BFE01204A49C1F88002FFF726
:1054C00089FF10BD2DE9F05F81460F461646DFF8D3
:1054D00028B14FEA1738C7F30B0ACAF58054A64221
:1054E00000DC344644E04FEA08314FF4805258461D
:1054F000FFF74AFF002508E00AEB05001BF8000053
:10550000FF2800D003E0681C85B2A542F4DB00BF91
:10551000A54216DA4046FFF7B1FF002507E019F86B
:10552000050005EB0A010BF80100681C85B2A542D5
:10553000F5DB4FEA08314FF480525846FFF77BFF06
:1055400004E0224639464846FFF775FFA64200D1DF
:105550000FE008F101084FF0000AA1442744301B76
:1055600086B2B6F5805F02DD4FF4805400E0344629
:10557000B9E700BFBDE8F09F10B5FFF7EBFEFFF7FE
:1055800029FF0020164908604FF0C700FFF7EEFD25
:1055900001201449C1F88002FFF71CFF10BD10B5AF
:1055A00000200F4908604FF0B900FFF7DFFD012030
:1055B0000C49C1F88002032001F0F2FE10BD10B5C5
:1055C0000020074908604FF0AB00FFF7CFFD012036
:1055D0000449C1F88002032001F0E2FE10BD000082
:1055E0008082404200804042000402401A000020B5
:1055F00066653A25780D0A00860700200020FE49DE
:105600000860091D0860091D0860091D0860FA4945
:1056100024310860091D0860091D0860F748F64933
:10562000383108600020091D0860704701460020DD
:10563000012900D011B9F24B197000E02620704703
:105640000146ED4A121D106820F0FF00084310606B
:10565000704770B5044606E0E7483430056815F039
:10566000450F00D000E0F7E700BF042002F033FD53
:1056700020B1042002F03AFD032070BD012002F0A9
:105680002AFD20B1012002F031FD0120F5E7DA48C2
:1056900010300068A04201D01020EEE740F2FF5029
:1056A00002F024FDD4481430006808210840C0B23C
:1056B000E3E72DE9FC4107460D46002600240020C3
:1056C000009001900820CF490860102048604020D9
:1056D00088600020C8604FF480600861084602F0CE
:1056E0006AFC1020FFF7B5FF044614B12046BDE860
:1056F000FC81C54800880004C24908603720486022
:10570000402088600020C8604FF48060086108462F
:1057100002F051FC3720FFF79CFF04460CB12046F5
:10572000E5E74FF0FF30B9490860082048603020B5
:1057300088600220C8600020086101204861084696
:1057400002F065FC0020AF4908603320486040202B
:1057500088600020C8604FF480600861084602F04D
:105760002AFC3320FFF775FF04460CB12046BEE744
:105770000DE04FF4001002F0AEFC40B19E488030C6
:1057800000684DF82600761C022E00D306E09A48E9
:105790003430006840F22A610842EAD000BF082095
:1057A00002F099FC20B1082002F0A0FC04209EE742
:1057B000022002F090FC20B1022002F097FC0220AF
:1057C00095E7202002F087FC20B1202002F08EFC1B
:1057D00006208CE74FF4007002F07DFC28B14FF4F6
:1057E000007002F083FC072081E740F2FF5002F0D6
:1057F0007DFC00980006009901F47F4140EA0120F9
:10580000009901F47F0140EA1120009940EA1160FB
:10581000686001980006019901F47F4140EA012087
:10582000019901F47F0140EA1120019940EA1160D9
:10583000286020465BE77CB50546002400200090E8
:10584000019000260DB1022600E000266A481430BF
:10585000006810F0007F01D00E207CBD6A490988E5
:1058600088B26946FFF725FF04460CB12046F4E7ED
:10587000019810F4802F2CD06348008800046149FF
:10588000086037204860402088600020C8604FF4DE
:1058900080600861084602F08EFB3720FFF7D9FED2
:1058A00004460CB12046D8E7564806600620554904
:1058B0004860402088600020C8604FF48060086124
:1058C000084602F078FB0620FFF7C3FE0446204698
:1058D000C3E72520C1E770B5044600254C48007891
:1058E000032802D12725284670BD4948007838B1E1
:1058F00047480078012803D045480078022819D18C
:10590000B4F5805F02D127252846EDE7E0B2FFF726
:1059100092FF054675B93848001D006820F4C05054
:105920003549091D0860084600682043086008469C
:10593000006808602846D7E710B50446314804607F
:10594000072030494860402088600020C8604FF43C
:1059500080600861084602F02EFB0720FFF779FE01
:1059600010BDF0B5014600200022294B1B7881F8BC
:105970005630254B1B88A1F85430264B1B681A0E55
:1059800093090B70C2F383034B7002F003038B7017
:10599000204B1B68C3F30742CA701E4B1B88C3F31E
:1059A00007220A711B4B1A784A715B681A0E1301A1
:1059B000CB80184B5B68C3F30742CB8843EA1213D2
:1059C000CB8002F00F030B72124B9B88C3F30722AC
:1059D000D3094B72C2F380138B72C2F34013CB72A4
:1059E000C2F300130B7300234B73094B1B78C3B135
:1059F000074B1B78012B0FE0002C0140FF07C00074
:105A000024000020A017002020000020B417002050
:105A10001C000020CC17002003D0FE4B1B78032B6A
:105A20004FD193071B0D0B61FB4B1A790B6943EAAE
:105A300082030B61F84B9B681A0E0B6943EA9213C1
:105A40000B61C2F3C2030B7502F007034B75F24BF7
:105A50009B68C3F3074253098B75C2F38203CB756E
:105A600093075B0F0B76EC4B1B89C3F307220B7E6E
:105A700043EAD2130B760B695B1C0024C1E9123494
:105A80000B7E9B1C012404FA03F3DC17D1E91256A8
:105A9000A5FB037C06FB03C305FB0433C1E91273BA
:105AA0000C7A0123A3400B650024D1E912650B6D2C
:105AB000A6FB037C05FB03C306FB0433C1E9127399
:105AC0002EE0D44B1B78022B2AD1D34B1A799306A4
:105AD0009B0A0B61D04B9B681A0E0B6943EA0223A9
